{
  "_format": "hh-sol-artifact-1",
  "contractName": "Trivia",
  "sourceName": "contracts/Trivia.sol",
  "abi": [
    {
      "inputs": [
        {
          "internalType": "address",
          "name": "_token",
          "type": "address"
        }
      ],
      "stateMutability": "nonpayable",
      "type": "constructor"
    },
    {
      "anonymous": false,
      "inputs": [
        {
          "indexed": true,
          "internalType": "uint256",
          "name": "questionId",
          "type": "uint256"
        },
        {
          "indexed": true,
          "internalType": "address",
          "name": "player",
          "type": "address"
        },
        {
          "indexed": false,
          "internalType": "uint256",
          "name": "reward",
          "type": "uint256"
        }
      ],
      "name": "CorrectAnswer",
      "type": "event"
    },
    {
      "anonymous": false,
      "inputs": [
        {
          "indexed": true,
          "internalType": "uint256",
          "name": "questionId",
          "type": "uint256"
        },
        {
          "indexed": false,
          "internalType": "uint256",
          "name": "reward",
          "type": "uint256"
        }
      ],
      "name": "QuestionAdded",
      "type": "event"
    },
    {
      "inputs": [
        {
          "internalType": "string",
          "name": "_question",
          "type": "string"
        },
        {
          "internalType": "string",
          "name": "_answer",
          "type": "string"
        },
        {
          "internalType": "uint256",
          "name": "_reward",
          "type": "uint256"
        }
      ],
      "name": "addQuestion",
      "outputs": [],
      "stateMutability": "nonpayable",
      "type": "function"
    },
    {
      "inputs": [
        {
          "internalType": "uint256",
          "name": "_questionId",
          "type": "uint256"
        },
        {
          "internalType": "string",
          "name": "_answer",
          "type": "string"
        }
      ],
      "name": "answerQuestion",
      "outputs": [],
      "stateMutability": "nonpayable",
      "type": "function"
    },
    {
      "inputs": [],
      "name": "getQuestionCount",
      "outputs": [
        {
          "internalType": "uint256",
          "name": "",
          "type": "uint256"
        }
      ],
      "stateMutability": "view",
      "type": "function"
    },
    {
      "inputs": [
        {
          "internalType": "uint256",
          "name": "",
          "type": "uint256"
        },
        {
          "internalType": "address",
          "name": "",
          "type": "address"
        }
      ],
      "name": "hasAnswered",
      "outputs": [
        {
          "internalType": "bool",
          "name": "",
          "type": "bool"
        }
      ],
      "stateMutability": "view",
      "type": "function"
    },
    {
      "inputs": [],
      "name": "owner",
      "outputs": [
        {
          "internalType": "address",
          "name": "",
          "type": "address"
        }
      ],
      "stateMutability": "view",
      "type": "function"
    },
    {
      "inputs": [
        {
          "internalType": "uint256",
          "name": "",
          "type": "uint256"
        }
      ],
      "name": "questions",
      "outputs": [
        {
          "internalType": "string",
          "name": "question",
          "type": "string"
        },
        {
          "internalType": "bytes32",
          "name": "answerHash",
          "type": "bytes32"
        },
        {
          "internalType": "uint256",
          "name": "reward",
          "type": "uint256"
        },
        {
          "internalType": "bool",
          "name": "active",
          "type": "bool"
        }
      ],
      "stateMutability": "view",
      "type": "function"
    },
    {
      "inputs": [],
      "name": "rewardToken",
      "outputs": [
        {
          "internalType": "contract IERC20",
          "name": "",
          "type": "address"
        }
      ],
      "stateMutability": "view",
      "type": "function"
    }
  ],
  "bytecode": "0x608060405234801561001057600080fd5b50604051610aad380380610aad83398101604081905261002f9161005d565b600080546001600160a01b039092166001600160a01b0319928316179055600180549091163317905561008d565b60006020828403121561006f57600080fd5b81516001600160a01b038116811461008657600080fd5b9392505050565b610a118061009c6000396000f3fe608060405234801561001057600080fd5b506004361061007d5760003560e01c80638da5cb5b1161005b5780638da5cb5b146100d6578063dd41cc2f14610101578063e6b4eacf14610112578063f7c618c11461015057600080fd5b8063240990cb1461008257806331b1b97814610097578063447e52a0146100c3575b600080fd5b61009561009036600461069a565b610163565b005b6100aa6100a5366004610707565b6102bd565b6040516100ba9493929190610744565b60405180910390f35b6100956100d136600461078d565b61038a565b6001546100e9906001600160a01b031681565b6040516001600160a01b0390911681526020016100ba565b6002546040519081526020016100ba565b6101406101203660046107d4565b600360209081526000928352604080842090915290825290205460ff1681565b60405190151581526020016100ba565b6000546100e9906001600160a01b031681565b6001546001600160a01b031633146101af5760405162461bcd60e51b815260206004820152600a60248201526927b7363c9037bbb732b960b11b60448201526064015b60405180910390fd5b6000826040516020016101c29190610810565b60408051601f19818403018152828252805160209182012060808401835287845290830181905290820184905260016060830181905260028054918201815560005282519193506004027f405787fa12a823e0f2b7631cc41b3ba8828b3321ca811111fa75cd3aa3bb5ace0190819061023b90826108b5565b50602082015181600101556040820151816002015560608201518160030160006101000a81548160ff021916908315150217905550505060016002805490506102849190610975565b6040518381527fe5ac7a6f7f975d3d3ba41acafad3abf1430692be1442c6bde74a8ae06b3853559060200160405180910390a250505050565b600281815481106102cd57600080fd5b90600052602060002090600402016000915090508060000180546102f09061082c565b80601f016020809104026020016040519081016040528092919081815260200182805461031c9061082c565b80156103695780601f1061033e57610100808354040283529160200191610369565b820191906000526020600020905b81548152906001019060200180831161034c57829003601f168201915b50505050600183015460028401546003909401549293909290915060ff1684565b60025482106103ce5760405162461bcd60e51b815260206004820152601060248201526f24b73b30b634b21038bab2b9ba34b7b760811b60448201526064016101a6565b6000600283815481106103e3576103e361099c565b60009182526020909120600490910201600381015490915060ff1661043e5760405162461bcd60e51b81526020600482015260116024820152705175657374696f6e20696e61637469766560781b60448201526064016101a6565b600083815260036020908152604080832033845290915290205460ff161561049b5760405162461bcd60e51b815260206004820152601060248201526f105b1c9958591e48185b9cddd95c995960821b60448201526064016101a6565b6000826040516020016104ae9190610810565b604051602081830303815290604052805190602001209050816001015481146105085760405162461bcd60e51b815260206004820152600c60248201526b2bb937b7339030b739bbb2b960a11b60448201526064016101a6565b6000848152600360209081526040808320338085529252808320805460ff1916600117905591546002850154925163a9059cbb60e01b8152600481019290925260248201929092526001600160a01b039091169063a9059cbb906044016020604051808303816000875af1158015610584573d6000803e3d6000fd5b505050506040513d601f19601f820116820180604052508101906105a891906109b2565b50336001600160a01b0316847f95eb5b5758f128c0e79107d87755f8689dd3e43c0145c710e104f988d6679d6284600201546040516105e991815260200190565b60405180910390a350505050565b634e487b7160e01b600052604160045260246000fd5b600082601f83011261061e57600080fd5b813567ffffffffffffffff80821115610639576106396105f7565b604051601f8301601f19908116603f01168101908282118183101715610661576106616105f7565b8160405283815286602085880101111561067a57600080fd5b836020870160208301376000602085830101528094505050505092915050565b6000806000606084860312156106af57600080fd5b833567ffffffffffffffff808211156106c757600080fd5b6106d38783880161060d565b945060208601359150808211156106e957600080fd5b506106f68682870161060d565b925050604084013590509250925092565b60006020828403121561071957600080fd5b5035919050565b60005b8381101561073b578181015183820152602001610723565b50506000910152565b60808152600085518060808401526107638160a0850160208a01610720565b60208301959095525060408101929092521515606082015260a0601f909201601f19160101919050565b600080604083850312156107a057600080fd5b82359150602083013567ffffffffffffffff8111156107be57600080fd5b6107ca8582860161060d565b9150509250929050565b600080604083850312156107e757600080fd5b8235915060208301356001600160a01b038116811461080557600080fd5b809150509250929050565b60008251610822818460208701610720565b9190910192915050565b600181811c9082168061084057607f821691505b60208210810361086057634e487b7160e01b600052602260045260246000fd5b50919050565b601f8211156108b057600081815260208120601f850160051c8101602086101561088d5750805b601f850160051c820191505b818110156108ac57828155600101610899565b5050505b505050565b815167ffffffffffffffff8111156108cf576108cf6105f7565b6108e3816108dd845461082c565b84610866565b602080601f83116001811461091857600084156109005750858301515b600019600386901b1c1916600185901b1785556108ac565b600085815260208120601f198616915b8281101561094757888601518255948401946001909101908401610928565b50858210156109655787850151600019600388901b60f8161c191681555b5050505050600190811b01905550565b8181038181111561099657634e487b7160e01b600052601160045260246000fd5b92915050565b634e487b7160e01b600052603260045260246000fd5b6000602082840312156109c457600080fd5b815180151581146109d457600080fd5b939250505056fea2646970667358221220b62abb2f4485db19809666bb0295e47f5ecf95dabdb9f28d595ea6a5701ba05d64736f6c63430008140033",
  "linkReferences": {},
  "deployedLinkReferences": {}
}