{"contracts/NFT.sol":{"WalletConnectNFT":{"abi":[{"inputs":[{"internalType":"string","name":"_name","type":"string"},{"internalType":"string","name":"_symbol","type":"string"},{"internalType":"string","name":"_baseTokenURI","type":"string"}],"stateMutability":"nonpayable","type":"constructor"},{"inputs":[],"name":"ERC721EnumerableForbiddenBatchMint","type":"error"},{"inputs":[{"internalType":"address","name":"sender","type":"address"},{"internalType":"uint256","name":"tokenId","type":"uint256"},{"internalType":"address","name":"owner","type":"address"}],"name":"ERC721IncorrectOwner","type":"error"},{"inputs":[{"internalType":"address","name":"operator","type":"address"},{"internalType":"uint256","name":"tokenId","type":"uint256"}],"name":"ERC721InsufficientApproval","type":"error"},{"inputs":[{"internalType":"address","name":"approver","type":"address"}],"name":"ERC721InvalidApprover","type":"error"},{"inputs":[{"internalType":"address","name":"operator","type":"address"}],"name":"ERC721InvalidOperator","type":"error"},{"inputs":[{"internalType":"address","name":"owner","type":"address"}],"name":"ERC721InvalidOwner","type":"error"},{"inputs":[{"internalType":"address","name":"receiver","type":"address"}],"name":"ERC721InvalidReceiver","type":"error"},{"inputs":[{"internalType":"address","name":"sender","type":"address"}],"name":"ERC721InvalidSender","type":"error"},{"inputs":[{"internalType":"uint256","name":"tokenId","type":"uint256"}],"name":"ERC721NonexistentToken","type":"error"},{"inputs":[{"internalType":"address","name":"owner","type":"address"},{"internalType":"uint256","name":"index","type":"uint256"}],"name":"ERC721OutOfBoundsIndex","type":"error"},{"inputs":[{"internalType":"address","name":"owner","type":"address"}],"name":"OwnableInvalidOwner","type":"error"},{"inputs":[{"internalType":"address","name":"account","type":"address"}],"name":"OwnableUnauthorizedAccount","type":"error"},{"inputs":[],"name":"ReentrancyGuardReentrantCall","type":"error"},{"anonymous":false,"inputs":[{"indexed":true,"internalType":"address","name":"owner","type":"address"},{"indexed":true,"internalType":"address","name":"approved","type":"address"},{"indexed":true,"internalType":"uint256","name":"tokenId","type":"uint256"}],"name":"Approval","type":"event"},{"anonymous":false,"inputs":[{"indexed":true,"internalType":"address","name":"owner","type":"address"},{"indexed":true,"internalType":"address","name":"operator","type":"address"},{"indexed":false,"internalType":"bool","name":"approved","type":"bool"}],"name":"ApprovalForAll","type":"event"},{"anonymous":false,"inputs":[{"indexed":false,"internalType":"string","name":"newBaseURI","type":"string"}],"name":"BaseURIUpdated","type":"event"},{"anonymous":false,"inputs":[{"indexed":false,"internalType":"uint256","name":"_fromTokenId","type":"uint256"},{"indexed":false,"internalType":"uint256","name":"_toTokenId","type":"uint256"}],"name":"BatchMetadataUpdate","type":"event"},{"anonymous":false,"inputs":[{"indexed":false,"internalType":"uint256","name":"_tokenId","type":"uint256"}],"name":"MetadataUpdate","type":"event"},{"anonymous":false,"inputs":[{"indexed":false,"internalType":"uint256","name":"oldPrice","type":"uint256"},{"indexed":false,"internalType":"uint256","name":"newPrice","type":"uint256"}],"name":"MintPriceUpdated","type":"event"},{"anonymous":false,"inputs":[{"indexed":false,"internalType":"bool","name":"enabled","type":"bool"}],"name":"MintingToggled","type":"event"},{"anonymous":false,"inputs":[{"indexed":true,"internalType":"address","name":"minter","type":"address"},{"indexed":true,"internalType":"uint256","name":"tokenId","type":"uint256"},{"indexed":false,"internalType":"string","name":"tokenURI","type":"string"},{"indexed":false,"internalType":"uint256","name":"mintPrice","type":"uint256"}],"name":"NFTMinted","type":"event"},{"anonymous":false,"inputs":[{"indexed":true,"internalType":"address","name":"previousOwner","type":"address"},{"indexed":true,"internalType":"address","name":"newOwner","type":"address"}],"name":"OwnershipTransferred","type":"event"},{"anonymous":false,"inputs":[{"indexed":false,"internalType":"bool","name":"enabled","type":"bool"}],"name":"PublicMintToggled","type":"event"},{"anonymous":false,"inputs":[{"indexed":true,"internalType":"address","name":"from","type":"address"},{"indexed":true,"internalType":"address","name":"to","type":"address"},{"indexed":true,"internalType":"uint256","name":"tokenId","type":"uint256"}],"name":"Transfer","type":"event"},{"anonymous":false,"inputs":[{"indexed":true,"internalType":"address","name":"user","type":"address"},{"indexed":false,"internalType":"bool","name":"status","type":"bool"}],"name":"WhitelistUpdated","type":"event"},{"anonymous":false,"inputs":[{"indexed":true,"internalType":"address","name":"owner","type":"address"},{"indexed":false,"internalType":"uint256","name":"amount","type":"uint256"}],"name":"Withdrawn","type":"event"},{"inputs":[{"internalType":"address","name":"_user","type":"address"}],"name":"addToWhitelist","outputs":[],"stateMutability":"nonpayable","type":"function"},{"inputs":[{"internalType":"address[]","name":"_users","type":"address[]"}],"name":"addToWhitelistBatch","outputs":[],"stateMutability":"nonpayable","type":"function"},{"inputs":[{"internalType":"address","name":"to","type":"address"},{"internalType":"uint256","name":"tokenId","type":"uint256"}],"name":"approve","outputs":[],"stateMutability":"nonpayable","type":"function"},{"inputs":[{"internalType":"address","name":"owner","type":"address"}],"name":"balanceOf","outputs":[{"internalType":"uint256","name":"","type":"uint256"}],"stateMutability":"view","type":"function"},{"inputs":[],"name":"baseTokenURI","outputs":[{"internalType":"string","name":"","type":"string"}],"stateMutability":"view","type":"function"},{"inputs":[],"name":"collectionDescription","outputs":[{"internalType":"string","name":"","type":"string"}],"stateMutability":"view","type":"function"},{"inputs":[],"name":"contractURI","outputs":[{"internalType":"string","name":"","type":"string"}],"stateMutability":"view","type":"function"},{"inputs":[],"name":"emergencyPause","outputs":[],"stateMutability":"nonpayable","type":"function"},{"inputs":[],"name":"emergencyUnpause","outputs":[],"stateMutability":"nonpayable","type":"function"},{"inputs":[{"internalType":"string","name":"_tokenURI","type":"string"}],"name":"freeMint","outputs":[{"internalType":"uint256","name":"","type":"uint256"}],"stateMutability":"nonpayable","type":"function"},{"inputs":[{"internalType":"uint256","name":"tokenId","type":"uint256"}],"name":"getApproved","outputs":[{"internalType":"address","name":"","type":"address"}],"stateMutability":"view","type":"function"},{"inputs":[],"name":"getCollectionStats","outputs":[{"internalType":"uint256","name":"currentSupply","type":"uint256"},{"internalType":"uint256","name":"maxSupply_","type":"uint256"},{"internalType":"uint256","name":"mintPrice_","type":"uint256"},{"internalType":"bool","name":"mintingEnabled_","type":"bool"},{"internalType":"bool","name":"publicMintEnabled_","type":"bool"}],"stateMutability":"view","type":"function"},{"inputs":[{"internalType":"address","name":"_user","type":"address"}],"name":"getMintStats","outputs":[{"internalType":"uint256","name":"minted","type":"uint256"},{"internalType":"uint256","name":"remaining","type":"uint256"},{"internalType":"bool","name":"isWhitelisted","type":"bool"},{"internalType":"uint256","name":"price","type":"uint256"}],"stateMutability":"view","type":"function"},{"inputs":[{"internalType":"uint256","name":"_tokenId","type":"uint256"}],"name":"getTokenInfo","outputs":[{"internalType":"address","name":"owner","type":"address"},{"internalType":"string","name":"uri","type":"string"},{"internalType":"bool","name":"exists","type":"bool"}],"stateMutability":"view","type":"function"},{"inputs":[{"internalType":"address","name":"owner","type":"address"},{"internalType":"address","name":"operator","type":"address"}],"name":"isApprovedForAll","outputs":[{"internalType":"bool","name":"","type":"bool"}],"stateMutability":"view","type":"function"},{"inputs":[],"name":"maxMintPerWallet","outputs":[{"internalType":"uint256","name":"","type":"uint256"}],"stateMutability":"view","type":"function"},{"inputs":[],"name":"maxSupply","outputs":[{"internalType":"uint256","name":"","type":"uint256"}],"stateMutability":"view","type":"function"},{"inputs":[{"internalType":"string","name":"_tokenURI","type":"string"}],"name":"mint","outputs":[{"internalType":"uint256","name":"","type":"uint256"}],"stateMutability":"payable","type":"function"},{"inputs":[{"internalType":"string[]","name":"_tokenURIs","type":"string[]"}],"name":"mintBatch","outputs":[{"internalType":"uint256[]","name":"","type":"uint256[]"}],"stateMutability":"payable","type":"function"},{"inputs":[],"name":"mintPrice","outputs":[{"internalType":"uint256","name":"","type":"uint256"}],"stateMutability":"view","type":"function"},{"inputs":[{"internalType":"address","name":"_to","type":"address"},{"internalType":"string","name":"_tokenURI","type":"string"}],"name":"mintTo","outputs":[{"internalType":"uint256","name":"","type":"uint256"}],"stateMutability":"nonpayable","type":"function"},{"inputs":[{"internalType":"address","name":"","type":"address"}],"name":"mintedPerWallet","outputs":[{"internalType":"uint256","name":"","type":"uint256"}],"stateMutability":"view","type":"function"},{"inputs":[],"name":"mintingEnabled","outputs":[{"internalType":"bool","name":"","type":"bool"}],"stateMutability":"view","type":"function"},{"inputs":[],"name":"name","outputs":[{"internalType":"string","name":"","type":"string"}],"stateMutability":"view","type":"function"},{"inputs":[],"name":"owner","outputs":[{"internalType":"address","name":"","type":"address"}],"stateMutability":"view","type":"function"},{"inputs":[{"internalType":"uint256","name":"tokenId","type":"uint256"}],"name":"ownerOf","outputs":[{"internalType":"address","name":"","type":"address"}],"stateMutability":"view","type":"function"},{"inputs":[],"name":"publicMintEnabled","outputs":[{"internalType":"bool","name":"","type":"bool"}],"stateMutability":"view","type":"function"},{"inputs":[{"internalType":"address","name":"_user","type":"address"}],"name":"removeFromWhitelist","outputs":[],"stateMutability":"nonpayable","type":"function"},{"inputs":[],"name":"renounceOwnership","outputs":[],"stateMutability":"nonpayable","type":"function"},{"inputs":[],"name":"royaltyFeeNumerator","outputs":[{"internalType":"uint96","name":"","type":"uint96"}],"stateMutability":"view","type":"function"},{"inputs":[{"internalType":"uint256","name":"_tokenId","type":"uint256"},{"internalType":"uint256","name":"_salePrice","type":"uint256"}],"name":"royaltyInfo","outputs":[{"internalType":"address","name":"receiver","type":"address"},{"internalType":"uint256","name":"royaltyAmount","type":"uint256"}],"stateMutability":"view","type":"function"},{"inputs":[],"name":"royaltyReceiver","outputs":[{"internalType":"address","name":"","type":"address"}],"stateMutability":"view","type":"function"},{"inputs":[{"internalType":"address","name":"from","type":"address"},{"internalType":"address","name":"to","type":"address"},{"internalType":"uint256","name":"tokenId","type":"uint256"}],"name":"safeTransferFrom","outputs":[],"stateMutability":"nonpayable","type":"function"},{"inputs":[{"internalType":"address","name":"from","type":"address"},{"internalType":"address","name":"to","type":"address"},{"internalType":"uint256","name":"tokenId","type":"uint256"},{"internalType":"bytes","name":"data","type":"bytes"}],"name":"safeTransferFrom","outputs":[],"stateMutability":"nonpayable","type":"function"},{"inputs":[{"internalType":"address","name":"operator","type":"address"},{"internalType":"bool","name":"approved","type":"bool"}],"name":"setApprovalForAll","outputs":[],"stateMutability":"nonpayable","type":"function"},{"inputs":[{"internalType":"string","name":"_newBaseURI","type":"string"}],"name":"setBaseURI","outputs":[],"stateMutability":"nonpayable","type":"function"},{"inputs":[{"internalType":"string","name":"_description","type":"string"}],"name":"setCollectionDescription","outputs":[],"stateMutability":"nonpayable","type":"function"},{"inputs":[{"internalType":"uint256","name":"_newMax","type":"uint256"}],"name":"setMaxMintPerWallet","outputs":[],"stateMutability":"nonpayable","type":"function"},{"inputs":[{"internalType":"uint256","name":"_newMaxSupply","type":"uint256"}],"name":"setMaxSupply","outputs":[],"stateMutability":"nonpayable","type":"function"},{"inputs":[{"internalType":"uint256","name":"_newPrice","type":"uint256"}],"name":"setMintPrice","outputs":[],"stateMutability":"nonpayable","type":"function"},{"inputs":[{"internalType":"address","name":"_receiver","type":"address"},{"internalType":"uint96","name":"_feeNumerator","type":"uint96"}],"name":"setRoyaltyInfo","outputs":[],"stateMutability":"nonpayable","type":"function"},{"inputs":[{"internalType":"bytes4","name":"interfaceId","type":"bytes4"}],"name":"supportsInterface","outputs":[{"internalType":"bool","name":"","type":"bool"}],"stateMutability":"view","type":"function"},{"inputs":[],"name":"symbol","outputs":[{"internalType":"string","name":"","type":"string"}],"stateMutability":"view","type":"function"},{"inputs":[],"name":"toggleMinting","outputs":[],"stateMutability":"nonpayable","type":"function"},{"inputs":[],"name":"togglePublicMint","outputs":[],"stateMutability":"nonpayable","type":"function"},{"inputs":[{"internalType":"uint256","name":"index","type":"uint256"}],"name":"tokenByIndex","outputs":[{"internalType":"uint256","name":"","type":"uint256"}],"stateMutability":"view","type":"function"},{"inputs":[{"internalType":"address","name":"owner","type":"address"},{"internalType":"uint256","name":"index","type":"uint256"}],"name":"tokenOfOwnerByIndex","outputs":[{"internalType":"uint256","name":"","type":"uint256"}],"stateMutability":"view","type":"function"},{"inputs":[{"internalType":"uint256","name":"_tokenId","type":"uint256"}],"name":"tokenURI","outputs":[{"internalType":"string","name":"","type":"string"}],"stateMutability":"view","type":"function"},{"inputs":[{"internalType":"address","name":"_owner","type":"address"}],"name":"tokensOfOwner","outputs":[{"internalType":"uint256[]","name":"","type":"uint256[]"}],"stateMutability":"view","type":"function"},{"inputs":[],"name":"totalSupply","outputs":[{"internalType":"uint256","name":"","type":"uint256"}],"stateMutability":"view","type":"function"},{"inputs":[{"internalType":"address","name":"from","type":"address"},{"internalType":"address","name":"to","type":"address"},{"internalType":"uint256","name":"tokenId","type":"uint256"}],"name":"transferFrom","outputs":[],"stateMutability":"nonpayable","type":"function"},{"inputs":[{"internalType":"address","name":"newOwner","type":"address"}],"name":"transferOwnership","outputs":[],"stateMutability":"nonpayable","type":"function"},{"inputs":[{"internalType":"address","name":"","type":"address"}],"name":"whitelist","outputs":[{"internalType":"bool","name":"","type":"bool"}],"stateMutability":"view","type":"function"},{"inputs":[],"name":"withdraw","outputs":[],"stateMutability":"nonpayable","type":"function"},{"inputs":[{"internalType":"uint256","name":"_amount","type":"uint256"}],"name":"withdrawAmount","outputs":[],"stateMutability":"nonpayable","type":"function"},{"stateMutability":"payable","type":"receive"}],"devdoc":{"details":"Complete NFT contract with minting, metadata, and WalletConnect optimization","errors":{"ERC721EnumerableForbiddenBatchMint()":[{"details":"Batch mint is not allowed."}],"ERC721IncorrectOwner(address,uint256,address)":[{"details":"Indicates an error related to the ownership over a particular token. Used in transfers.","params":{"owner":"Address of the current owner of a token.","sender":"Address whose tokens are being transferred.","tokenId":"Identifier number of a token."}}],"ERC721InsufficientApproval(address,uint256)":[{"details":"Indicates a failure with the `operator`’s approval. Used in transfers.","params":{"operator":"Address that may be allowed to operate on tokens without being their owner.","tokenId":"Identifier number of a token."}}],"ERC721InvalidApprover(address)":[{"details":"Indicates a failure with the `approver` of a token to be approved. Used in approvals.","params":{"approver":"Address initiating an approval operation."}}],"ERC721InvalidOperator(address)":[{"details":"Indicates a failure with the `operator` to be approved. Used in approvals.","params":{"operator":"Address that may be allowed to operate on tokens without being their owner."}}],"ERC721InvalidOwner(address)":[{"details":"Indicates that an address can't be an owner. For example, `address(0)` is a forbidden owner in EIP-20. Used in balance queries.","params":{"owner":"Address of the current owner of a token."}}],"ERC721InvalidReceiver(address)":[{"details":"Indicates a failure with the token `receiver`. Used in transfers.","params":{"receiver":"Address to which tokens are being transferred."}}],"ERC721InvalidSender(address)":[{"details":"Indicates a failure with the token `sender`. Used in transfers.","params":{"sender":"Address whose tokens are being transferred."}}],"ERC721NonexistentToken(uint256)":[{"details":"Indicates a `tokenId` whose `owner` is the zero address.","params":{"tokenId":"Identifier number of a token."}}],"ERC721OutOfBoundsIndex(address,uint256)":[{"details":"An `owner`'s token query was out of bounds for `index`. NOTE: The owner being `address(0)` indicates a global out of bounds index."}],"OwnableInvalidOwner(address)":[{"details":"The owner is not a valid owner account. (eg. `address(0)`)"}],"OwnableUnauthorizedAccount(address)":[{"details":"The caller account is not authorized to perform an operation."}],"ReentrancyGuardReentrantCall()":[{"details":"Unauthorized reentrant call."}]},"events":{"Approval(address,address,uint256)":{"details":"Emitted when `owner` enables `approved` to manage the `tokenId` token."},"ApprovalForAll(address,address,bool)":{"details":"Emitted when `owner` enables or disables (`approved`) `operator` to manage all of its assets."},"BatchMetadataUpdate(uint256,uint256)":{"details":"This event emits when the metadata of a range of tokens is changed. So that the third-party platforms such as NFT market could timely update the images and related attributes of the NFTs."},"MetadataUpdate(uint256)":{"details":"This event emits when the metadata of a token is changed. So that the third-party platforms such as NFT market could timely update the images and related attributes of the NFT."},"Transfer(address,address,uint256)":{"details":"Emitted when `tokenId` token is transferred from `from` to `to`."}},"kind":"dev","methods":{"addToWhitelist(address)":{"details":"Add address to whitelist"},"addToWhitelistBatch(address[])":{"details":"Add multiple addresses to whitelist"},"approve(address,uint256)":{"details":"See {IERC721-approve}."},"balanceOf(address)":{"details":"See {IERC721-balanceOf}."},"contractURI()":{"details":"Contract-level metadata for OpenSea"},"emergencyPause()":{"details":"Pause all minting in case of emergency"},"emergencyUnpause()":{"details":"Resume minting after emergency"},"freeMint(string)":{"details":"Free mint for whitelisted addresses","params":{"_tokenURI":"IPFS URI for the NFT metadata"}},"getApproved(uint256)":{"details":"See {IERC721-getApproved}."},"getCollectionStats()":{"details":"Get collection statistics"},"getMintStats(address)":{"details":"Get minting statistics for an address"},"getTokenInfo(uint256)":{"details":"Get detailed token information"},"isApprovedForAll(address,address)":{"details":"See {IERC721-isApprovedForAll}."},"mint(string)":{"details":"Public mint function - main entry point for users","params":{"_tokenURI":"IPFS URI for the NFT metadata"}},"mintBatch(string[])":{"details":"Batch mint multiple NFTs in one transaction","params":{"_tokenURIs":"Array of IPFS URIs"}},"mintTo(address,string)":{"details":"Owner can mint to any address (for giveaways, etc.)","params":{"_to":"Recipient address","_tokenURI":"IPFS URI for the NFT metadata"}},"name()":{"details":"See {IERC721Metadata-name}."},"owner()":{"details":"Returns the address of the current owner."},"ownerOf(uint256)":{"details":"See {IERC721-ownerOf}."},"removeFromWhitelist(address)":{"details":"Remove address from whitelist"},"renounceOwnership()":{"details":"Leaves the contract without owner. It will not be possible to call `onlyOwner` functions. Can only be called by the current owner. NOTE: Renouncing ownership will leave the contract without an owner, thereby disabling any functionality that is only available to the owner."},"royaltyInfo(uint256,uint256)":{"details":"Returns royalty info for a token"},"safeTransferFrom(address,address,uint256)":{"details":"See {IERC721-safeTransferFrom}."},"safeTransferFrom(address,address,uint256,bytes)":{"details":"See {IERC721-safeTransferFrom}."},"setApprovalForAll(address,bool)":{"details":"See {IERC721-setApprovalForAll}."},"setBaseURI(string)":{"details":"Update base URI"},"setCollectionDescription(string)":{"details":"Update collection description"},"setMaxMintPerWallet(uint256)":{"details":"Update max mint per wallet"},"setMaxSupply(uint256)":{"details":"Update max supply"},"setMintPrice(uint256)":{"details":"Update mint price"},"setRoyaltyInfo(address,uint96)":{"details":"Update royalty info"},"symbol()":{"details":"See {IERC721Metadata-symbol}."},"toggleMinting()":{"details":"Toggle minting on/off"},"togglePublicMint()":{"details":"Toggle public minting on/off"},"tokenByIndex(uint256)":{"details":"See {IERC721Enumerable-tokenByIndex}."},"tokenOfOwnerByIndex(address,uint256)":{"details":"See {IERC721Enumerable-tokenOfOwnerByIndex}."},"tokenURI(uint256)":{"details":"Override tokenURI to support both base URI and custom URIs"},"tokensOfOwner(address)":{"details":"Get all token IDs owned by an address"},"totalSupply()":{"details":"Get total minted supply"},"transferFrom(address,address,uint256)":{"details":"See {IERC721-transferFrom}."},"transferOwnership(address)":{"details":"Transfers ownership of the contract to a new account (`newOwner`). Can only be called by the current owner."},"withdraw()":{"details":"Withdraw contract balance to owner"},"withdrawAmount(uint256)":{"details":"Withdraw specific amount"}},"title":"WalletConnectNFT","version":1},"evm":{"bytecode":{"linkReferences":{},"object":"60e0604052603e6080818152906200377660a039600f9062000022908262000212565b5066038d7ea4c68000601055612710601155600a6012556013805461ffff1916610101179055601680546001600160a01b0316607d60a21b1790553480156200006a57600080fd5b50604051620037b4380380620037b48339810160408190526200008d916200038d565b33838360006200009e838262000212565b506001620000ad828262000212565b5050506001600160a01b038116620000df57604051631e4fbdf760e01b81526000600482015260240160405180910390fd5b620000ea816200011b565b506001600c55600e620000fe828262000212565b5050601680546001600160a01b03191633179055506200041e9050565b600b80546001600160a01b038381166001600160a01b0319831681179093556040519116919082907f8be0079c531659141344cd1fd0a4f28419497f9722a3daafe3b4186f6b6457e090600090a35050565b634e487b7160e01b600052604160045260246000fd5b600181811c908216806200019857607f821691505b602082108103620001b957634e487b7160e01b600052602260045260246000fd5b50919050565b601f8211156200020d57600081815260208120601f850160051c81016020861015620001e85750805b601f850160051c820191505b818110156200020957828155600101620001f4565b5050505b505050565b81516001600160401b038111156200022e576200022e6200016d565b62000246816200023f845462000183565b84620001bf565b602080601f8311600181146200027e5760008415620002655750858301515b600019600386901b1c1916600185901b17855562000209565b600085815260208120601f198616915b82811015620002af578886015182559484019460019091019084016200028e565b5085821015620002ce5787850151600019600388901b60f8161c191681555b5050505050600190811b01905550565b600082601f830112620002f057600080fd5b81516001600160401b03808211156200030d576200030d6200016d565b604051601f8301601f19908116603f011681019082821181831017156200033857620003386200016d565b816040528381526020925086838588010111156200035557600080fd5b600091505b838210156200037957858201830151818301840152908201906200035a565b600093810190920192909252949350505050565b600080600060608486031215620003a357600080fd5b83516001600160401b0380821115620003bb57600080fd5b620003c987838801620002de565b94506020860151915080821115620003e057600080fd5b620003ee87838801620002de565b935060408601519150808211156200040557600080fd5b506200041486828701620002de565b9150509250925092565b613348806200042e6000396000f3fe6080604052600436106103535760003560e01c80637d55094d116101c6578063afdf6134116100f7578063e2c6875c11610095578063e985e9c51161006f578063e985e9c514610a1c578063f09dfbe914610a3c578063f2fde38b14610a4f578063f4a0a52814610a6f57600080fd5b8063e2c6875c146109d2578063e43252d7146109e7578063e8a3d48514610a0757600080fd5b8063c87b56dd116100d1578063c87b56dd14610974578063d547cfb714610994578063d5abeb01146109a9578063d85d3d27146109bf57600080fd5b8063afdf61341461091e578063b228d9251461093e578063b88d4fde1461095457600080fd5b80639471302e116101645780639fbc87131161013e5780639fbc8713146108a45780639fd6db12146108c4578063a22cb465146108de578063a6177139146108fe57600080fd5b80639471302e1461083f57806395d89b411461085f5780639b19251a1461087457600080fd5b80638462151c116101a05780638462151c146107a55780638ab1d681146107d25780638c7a63ae146107f25780638da5cb5b1461082157600080fd5b80637d55094d1461070b57806381ddcc1f14610720578063840e15d41461075f57600080fd5b80633a602b4d116102a057806355f804b31161023e5780636817c76c116102185780636817c76c146106a05780636f8b44b0146106b657806370a08231146106d6578063715018a6146106f657600080fd5b806355f804b3146106125780635894bd51146106325780636352211e1461068057600080fd5b806342842e0e1161027a57806342842e0e146105a85780634a4e3bd5146105c85780634f6ccce7146105dd57806351858e27146105fd57600080fd5b80633a602b4d146105515780633ccfd60b1461057e5780634047638d1461059357600080fd5b8063095ea7b31161030d5780631d64b7c1116102e75780631d64b7c1146104b257806323b872dd146104d25780632a55205a146104f25780632f745c591461053157600080fd5b8063095ea7b31461045e5780630f4161aa1461047e57806318160ddd1461049d57600080fd5b806275a3171461035f57806301ffc9a71461039257806302fa7c47146103c25780630562b9f7146103e457806306fdde0314610404578063081812fc1461042657600080fd5b3661035a57005b600080fd5b34801561036b57600080fd5b5061037f61037a366004612ade565b610a8f565b6040519081526020015b60405180910390f35b34801561039e57600080fd5b506103b26103ad366004612b42565b610ad8565b6040519015158152602001610389565b3480156103ce57600080fd5b506103e26103dd366004612b5f565b610ae3565b005b3480156103f057600080fd5b506103e26103ff366004612ba2565b610b5d565b34801561041057600080fd5b50610419610cb8565b6040516103899190612c0b565b34801561043257600080fd5b50610446610441366004612ba2565b610d4a565b6040516001600160a01b039091168152602001610389565b34801561046a57600080fd5b506103e2610479366004612c1e565b610d73565b34801561048a57600080fd5b506013546103b290610100900460ff1681565b3480156104a957600080fd5b50600d5461037f565b3480156104be57600080fd5b5061037f6104cd366004612c48565b610d82565b3480156104de57600080fd5b506103e26104ed366004612c7d565b610e9d565b3480156104fe57600080fd5b5061051261050d366004612cb9565b610f28565b604080516001600160a01b039093168352602083019190915201610389565b34801561053d57600080fd5b5061037f61054c366004612c1e565b610f6a565b34801561055d57600080fd5b5061037f61056c366004612cdb565b60156020526000908152604090205481565b34801561058a57600080fd5b506103e2610fcf565b34801561059f57600080fd5b506103e2611128565b3480156105b457600080fd5b506103e26105c3366004612c7d565b611192565b3480156105d457600080fd5b506103e26111b2565b3480156105e957600080fd5b5061037f6105f8366004612ba2565b6111cb565b34801561060957600080fd5b506103e2611224565b34801561061e57600080fd5b506103e261062d366004612c48565b611239565b34801561063e57600080fd5b50600d546011546010546013546040805194855260208501939093529183015260ff80821615156060840152610100909104161515608082015260a001610389565b34801561068c57600080fd5b5061044661069b366004612ba2565b611288565b3480156106ac57600080fd5b5061037f60105481565b3480156106c257600080fd5b506103e26106d1366004612ba2565b611293565b3480156106e257600080fd5b5061037f6106f1366004612cdb565b6112f2565b34801561070257600080fd5b506103e261133a565b34801561071757600080fd5b506103e261134c565b34801561072c57600080fd5b5060165461074790600160a01b90046001600160601b031681565b6040516001600160601b039091168152602001610389565b34801561076b57600080fd5b5061077f61077a366004612cdb565b61139c565b604080519485526020850193909352901515918301919091526060820152608001610389565b3480156107b157600080fd5b506107c56107c0366004612cdb565b6113f6565b6040516103899190612cf6565b3480156107de57600080fd5b506103e26107ed366004612cdb565b611498565b3480156107fe57600080fd5b5061081261080d366004612ba2565b6114f6565b60405161038993929190612d3a565b34801561082d57600080fd5b50600b546001600160a01b0316610446565b34801561084b57600080fd5b506103e261085a366004612c48565b61154b565b34801561086b57600080fd5b5061041961155f565b34801561088057600080fd5b506103b261088f366004612cdb565b60146020526000908152604090205460ff1681565b3480156108b057600080fd5b50601654610446906001600160a01b031681565b3480156108d057600080fd5b506013546103b29060ff1681565b3480156108ea57600080fd5b506103e26108f9366004612d70565b61156e565b34801561090a57600080fd5b506103e2610919366004612da1565b611579565b34801561092a57600080fd5b506103e2610939366004612ba2565b61165f565b34801561094a57600080fd5b5061037f60125481565b34801561096057600080fd5b506103e261096f366004612e16565b61166c565b34801561098057600080fd5b5061041961098f366004612ba2565b611683565b3480156109a057600080fd5b5061041961168e565b3480156109b557600080fd5b5061037f60115481565b61037f6109cd366004612c48565b61171c565b3480156109de57600080fd5b506104196118d0565b3480156109f357600080fd5b506103e2610a02366004612cdb565b6118dd565b348015610a1357600080fd5b5061041961193c565b348015610a2857600080fd5b506103b2610a37366004612e92565b611964565b6107c5610a4a366004612ebc565b611992565b348015610a5b57600080fd5b506103e2610a6a366004612cdb565b611c98565b348015610a7b57600080fd5b506103e2610a8a366004612ba2565b611cd3565b6000610a99611d21565b601154600d5410610ac55760405162461bcd60e51b8152600401610abc90612f7f565b60405180910390fd5b610acf8383611d4e565b90505b92915050565b6000610ad282611def565b610aeb611d21565b6103e8816001600160601b03161115610b3d5760405162461bcd60e51b81526020600482015260146024820152730a4def2c2d8e8f240cccaca40e8dede40d0d2ced60631b6044820152606401610abc565b6001600160601b0316600160a01b026001600160a01b0390911617601655565b610b65611d21565b610b6d611e14565b47811115610bb45760405162461bcd60e51b8152602060048201526014602482015273496e73756666696369656e742062616c616e636560601b6044820152606401610abc565b6000610bc8600b546001600160a01b031690565b6001600160a01b03168260405160006040518083038185875af1925050503d8060008114610c12576040519150601f19603f3d011682016040523d82523d6000602084013e610c17565b606091505b5050905080610c5c5760405162461bcd60e51b815260206004820152601160248201527015da5d1a191c985dd85b0819985a5b1959607a1b6044820152606401610abc565b600b546001600160a01b03166001600160a01b03167f7084f5476618d8e60b11ef0d7d3f06914655adb8793e28ff7f018d4c76d505d583604051610ca291815260200190565b60405180910390a250610cb56001600c55565b50565b606060008054610cc790612fab565b80601f0160208091040260200160405190810160405280929190818152602001828054610cf390612fab565b8015610d405780601f10610d1557610100808354040283529160200191610d40565b820191906000526020600020905b815481529060010190602001808311610d2357829003601f168201915b5050505050905090565b6000610d5582611e3e565b506000828152600460205260409020546001600160a01b0316610ad2565b610d7e828233611e77565b5050565b6000610d8c611e14565b60135460ff16610dae5760405162461bcd60e51b8152600401610abc90612fe5565b3360009081526014602052604090205460ff16610dff5760405162461bcd60e51b815260206004820152600f60248201526e139bdd081dda1a5d195b1a5cdd1959608a1b6044820152606401610abc565b601154600d5410610e225760405162461bcd60e51b8152600401610abc90612f7f565b6012543360009081526015602052604090205410610e825760405162461bcd60e51b815260206004820152601c60248201527f4578636565646564206d6178206d696e74207065722077616c6c6574000000006044820152606401610abc565b610e8c3383611d4e565b9050610e986001600c55565b919050565b6001600160a01b038216610ec757604051633250574960e11b815260006004820152602401610abc565b6000610ed4838333611e84565b9050836001600160a01b0316816001600160a01b031614610f22576040516364283d7b60e01b81526001600160a01b0380861660048301526024820184905282166044820152606401610abc565b50505050565b6016546001600160a01b0381169060009061271090610f5790600160a01b90046001600160601b031685613028565b610f61919061303f565b90509250929050565b6000610f75836112f2565b8210610fa65760405163295f44f760e21b81526001600160a01b038416600482015260248101839052604401610abc565b506001600160a01b03919091166000908152600760209081526040808320938352929052205490565b610fd7611d21565b610fdf611e14565b47806110245760405162461bcd60e51b81526020600482015260146024820152734e6f2066756e647320746f20776974686472617760601b6044820152606401610abc565b6000611038600b546001600160a01b031690565b6001600160a01b03168260405160006040518083038185875af1925050503d8060008114611082576040519150601f19603f3d011682016040523d82523d6000602084013e611087565b606091505b50509050806110cc5760405162461bcd60e51b815260206004820152601160248201527015da5d1a191c985dd85b0819985a5b1959607a1b6044820152606401610abc565b600b546001600160a01b03166001600160a01b03167f7084f5476618d8e60b11ef0d7d3f06914655adb8793e28ff7f018d4c76d505d58360405161111291815260200190565b60405180910390a250506111266001600c55565b565b611130611d21565b6013805460ff610100808304821615810261ff001990931692909217928390556040517fa81e445dac2343503dc87e4663774817434721db7d985310a6959766e6d4480e936111889390049091161515815260200190565b60405180910390a1565b6111ad8383836040518060200160405280600081525061166c565b505050565b6111ba611d21565b6013805461ffff1916610101179055565b60006111d6600d5490565b82106111ff5760405163295f44f760e21b81526000600482015260248101839052604401610abc565b6009828154811061121257611212613061565b90600052602060002001549050919050565b61122c611d21565b6013805461ffff19169055565b611241611d21565b600e61124d82826130c5565b507f6741b2fc379fad678116fe3d4d4b9a1a184ab53ba36b86ad0fa66340b1ab41ad8160405161127d9190612c0b565b60405180910390a150565b6000610ad282611e3e565b61129b611d21565b600d548110156112ed5760405162461bcd60e51b815260206004820152601f60248201527f43616e6e6f74207365742062656c6f772063757272656e7420737570706c79006044820152606401610abc565b601155565b60006001600160a01b03821661131e576040516322718ad960e21b815260006004820152602401610abc565b506001600160a01b031660009081526003602052604090205490565b611342611d21565b6111266000611e99565b611354611d21565b6013805460ff8082161560ff1990921682179092556040519116151581527f6bdfe227d5db299c59aa56d5f846f40dbd73b271aaa78e18ed74fc3e00b8aa6b90602001611188565b6001600160a01b038116600090815260156020526040812054601254909190819081906113ca908590613185565b6001600160a01b03909516600090815260146020526040902054601054949660ff909116949350915050565b60606000611403836112f2565b905060008167ffffffffffffffff81111561142057611420612a1f565b604051908082528060200260200182016040528015611449578160200160208202803683370190505b50905060005b82811015611490576114618582610f6a565b82828151811061147357611473613061565b60209081029190910101528061148881613198565b91505061144f565b509392505050565b6114a0611d21565b6001600160a01b0381166000818152601460209081526040808320805460ff19169055519182527ff93f9a76c1bf3444d22400a00cb9fe990e6abe9dbb333fda48859cfee864543d91015b60405180910390a250565b60006060818061151b856000908152600260205260409020546001600160a01b031690565b6001600160a01b031614801591506115445761153684611288565b925061154184611683565b91505b9193909250565b611553611d21565b600f610d7e82826130c5565b606060018054610cc790612fab565b610d7e338383611eeb565b611581611d21565b60005b818110156111ad576001601460008585858181106115a4576115a4613061565b90506020020160208101906115b99190612cdb565b6001600160a01b031681526020810191909152604001600020805460ff19169115159190911790558282828181106115f3576115f3613061565b90506020020160208101906116089190612cdb565b6001600160a01b03167ff93f9a76c1bf3444d22400a00cb9fe990e6abe9dbb333fda48859cfee864543d6001604051611645911515815260200190565b60405180910390a28061165781613198565b915050611584565b611667611d21565b601255565b611677848484610e9d565b610f2284848484611f8a565b6060610ad2826120b3565b600e805461169b90612fab565b80601f01602080910402602001604051908101604052809291908181526020018280546116c790612fab565b80156117145780601f106116e957610100808354040283529160200191611714565b820191906000526020600020905b8154815290600101906020018083116116f757829003601f168201915b505050505081565b6000611726611e14565b60135460ff166117485760405162461bcd60e51b8152600401610abc90612fe5565b601354610100900460ff168061176d57503360009081526014602052604090205460ff165b6117b35760405162461bcd60e51b8152602060048201526017602482015276141d589b1a58c81b5a5b9d081b9bdd08195b98589b1959604a1b6044820152606401610abc565b601154600d54106117d65760405162461bcd60e51b8152600401610abc90612f7f565b60105434101561181f5760405162461bcd60e51b8152602060048201526014602482015273125b9cdd59999a58da595b9d081c185e5b595b9d60621b6044820152606401610abc565b601254336000908152601560205260409020541061187f5760405162461bcd60e51b815260206004820152601c60248201527f4578636565646564206d6178206d696e74207065722077616c6c6574000000006044820152606401610abc565b6000825111610e825760405162461bcd60e51b815260206004820152601960248201527f546f6b656e205552492063616e6e6f7420626520656d707479000000000000006044820152606401610abc565b600f805461169b90612fab565b6118e5611d21565b6001600160a01b038116600081815260146020908152604091829020805460ff1916600190811790915591519182527ff93f9a76c1bf3444d22400a00cb9fe990e6abe9dbb333fda48859cfee864543d91016114eb565b6060600e60405160200161195091906131b1565b604051602081830303815290604052905090565b6001600160a01b03918216600090815260056020908152604080832093909416825291909152205460ff1690565b606061199c611e14565b60135460ff166119be5760405162461bcd60e51b8152600401610abc90612fe5565b601354610100900460ff16806119e357503360009081526014602052604090205460ff165b611a295760405162461bcd60e51b8152602060048201526017602482015276141d589b1a58c81b5a5b9d081b9bdd08195b98589b1959604a1b6044820152606401610abc565b6000825111611a715760405162461bcd60e51b81526020600482015260146024820152734d757374206d696e74206174206c65617374203160601b6044820152606401610abc565b601482511115611ac35760405162461bcd60e51b815260206004820152601a60248201527f4d6178696d756d20323020706572207472616e73616374696f6e0000000000006044820152606401610abc565b6011548251600d54611ad5919061323e565b1115611b235760405162461bcd60e51b815260206004820152601760248201527f576f756c6420657863656564206d617820737570706c790000000000000000006044820152606401610abc565b8151601054611b329190613028565b341015611b785760405162461bcd60e51b8152602060048201526014602482015273125b9cdd59999a58da595b9d081c185e5b595b9d60621b6044820152606401610abc565b601254825133600090815260156020526040902054611b97919061323e565b1115611be55760405162461bcd60e51b815260206004820181905260248201527f576f756c6420657863656564206d6178206d696e74207065722077616c6c65746044820152606401610abc565b6000825167ffffffffffffffff811115611c0157611c01612a1f565b604051908082528060200260200182016040528015611c2a578160200160208202803683370190505b50905060005b8351811015611c8b57611c5c33858381518110611c4f57611c4f613061565b6020026020010151611d4e565b828281518110611c6e57611c6e613061565b602090810291909101015280611c8381613198565b915050611c30565b509050610e986001600c55565b611ca0611d21565b6001600160a01b038116611cca57604051631e4fbdf760e01b815260006004820152602401610abc565b610cb581611e99565b611cdb611d21565b601080549082905560408051828152602081018490527f2e1c9e000c6e8dda4d03536adb13b7cb6034ccff90d17f01de381e4d5097b52591015b60405180910390a15050565b600b546001600160a01b031633146111265760405163118cdaa760e01b8152336004820152602401610abc565b600d805460009182611d5f83613198565b9091555050600d54611d7184826121af565b611d7b81846121c9565b6001600160a01b0384166000908152601560205260408120805491611d9f83613198565b919050555080846001600160a01b03167f7f9dd5d8fa69e733db2277a568b65a9651a3042da18fb2b5ea1966d3891cbfda8534604051611de0929190613251565b60405180910390a39392505050565b60006001600160e01b0319821663780e9d6360e01b1480610ad25750610ad282612212565b6002600c5403611e3757604051633ee5aeb560e01b815260040160405180910390fd5b6002600c55565b6000818152600260205260408120546001600160a01b031680610ad257604051637e27328960e01b815260048101849052602401610abc565b6111ad8383836001612237565b6000611e9184848461233d565b949350505050565b600b80546001600160a01b038381166001600160a01b0319831681179093556040519116919082907f8be0079c531659141344cd1fd0a4f28419497f9722a3daafe3b4186f6b6457e090600090a35050565b6001600160a01b038216611f1d57604051630b61174360e31b81526001600160a01b0383166004820152602401610abc565b6001600160a01b03838116600081815260056020908152604080832094871680845294825291829020805460ff191686151590811790915591519182527f17307eab39ab6107e8899845ad3d59bd9653f200f220920489ca2b5937696c31910160405180910390a3505050565b6001600160a01b0383163b15610f2257604051630a85bd0160e11b81526001600160a01b0384169063150b7a0290611fcc903390889087908790600401613273565b6020604051808303816000875af1925050508015612007575060408051601f3d908101601f19168201909252612004918101906132b0565b60015b612070573d808015612035576040519150601f19603f3d011682016040523d82523d6000602084013e61203a565b606091505b50805160000361206857604051633250574960e11b81526001600160a01b0385166004820152602401610abc565b805181602001fd5b6001600160e01b03198116630a85bd0160e11b146120ac57604051633250574960e11b81526001600160a01b0385166004820152602401610abc565b5050505050565b60606120be82611e3e565b50600082815260066020526040812080546120d890612fab565b80601f016020809104026020016040519081016040528092919081815260200182805461210490612fab565b80156121515780601f1061212657610100808354040283529160200191612151565b820191906000526020600020905b81548152906001019060200180831161213457829003601f168201915b50505050509050600061216261240a565b90508051600003612174575092915050565b8151156121a657808260405160200161218e9291906132cd565b60405160208183030381529060405292505050919050565b611e9184612419565b610d7e828260405180602001604052806000815250612481565b60008281526006602052604090206121e182826130c5565b506040518281527ff8e1a15aba9398e019f0b49df1a4fde98ee17ae345cb5f6b5e2c27f5033e8ce790602001611d15565b60006001600160e01b03198216632483248360e11b1480610ad25750610ad282612498565b808061224b57506001600160a01b03821615155b1561230d57600061225b84611e3e565b90506001600160a01b038316158015906122875750826001600160a01b0316816001600160a01b031614155b801561229a57506122988184611964565b155b156122c35760405163a9fbf51f60e01b81526001600160a01b0384166004820152602401610abc565b811561230b5783856001600160a01b0316826001600160a01b03167f8c5be1e5ebec7d5bd14f71427d1e84f3dd0314c0f7b2291e5b200ac8c7c3b92560405160405180910390a45b505b5050600090815260046020526040902080546001600160a01b0319166001600160a01b0392909216919091179055565b60008061234b8585856124e8565b90506001600160a01b0381166123a8576123a384600980546000838152600a60205260408120829055600182018355919091527f6e1540171b6c0c960b71a7020d9f60077f6af931a8bbf590da0223dacf75c7af0155565b6123cb565b846001600160a01b0316816001600160a01b0316146123cb576123cb81856125e1565b6001600160a01b0385166123e7576123e284612672565b611e91565b846001600160a01b0316816001600160a01b031614611e9157611e918585612721565b6060600e8054610cc790612fab565b606061242482611e3e565b50600061242f61240a565b9050600081511161244f576040518060200160405280600081525061247a565b8061245984612771565b60405160200161246a9291906132cd565b6040516020818303038152906040525b9392505050565b61248b8383612804565b6111ad6000848484611f8a565b60006001600160e01b031982166380ac58cd60e01b14806124c957506001600160e01b03198216635b5e139f60e01b145b80610ad257506301ffc9a760e01b6001600160e01b0319831614610ad2565b6000828152600260205260408120546001600160a01b039081169083161561251557612515818486612869565b6001600160a01b0381161561255357612532600085600080612237565b6001600160a01b038116600090815260036020526040902080546000190190555b6001600160a01b03851615612582576001600160a01b0385166000908152600360205260409020805460010190555b60008481526002602052604080822080546001600160a01b0319166001600160a01b0389811691821790925591518793918516917fddf252ad1be2c89b69c2b068fc378daa952ba7f163c4a11628f55a4df523b3ef91a4949350505050565b60006125ec836112f2565b60008381526008602052604090205490915080821461263f576001600160a01b03841660009081526007602090815260408083208584528252808320548484528184208190558352600890915290208190555b5060009182526008602090815260408084208490556001600160a01b039094168352600781528383209183525290812055565b60095460009061268490600190613185565b6000838152600a6020526040812054600980549394509092849081106126ac576126ac613061565b9060005260206000200154905080600983815481106126cd576126cd613061565b6000918252602080832090910192909255828152600a90915260408082208490558582528120556009805480612705576127056132fc565b6001900381819060005260206000200160009055905550505050565b6000600161272e846112f2565b6127389190613185565b6001600160a01b039093166000908152600760209081526040808320868452825280832085905593825260089052919091209190915550565b6060600061277e836128cd565b600101905060008167ffffffffffffffff81111561279e5761279e612a1f565b6040519080825280601f01601f1916602001820160405280156127c8576020820181803683370190505b5090508181016020015b600019016f181899199a1a9b1b9c1cb0b131b232b360811b600a86061a8153600a85049450846127d257509392505050565b6001600160a01b03821661282e57604051633250574960e11b815260006004820152602401610abc565b600061283c83836000611e84565b90506001600160a01b038116156111ad576040516339e3563760e11b815260006004820152602401610abc565b6128748383836129a5565b6111ad576001600160a01b0383166128a257604051637e27328960e01b815260048101829052602401610abc565b60405163177e802f60e01b81526001600160a01b038316600482015260248101829052604401610abc565b60008072184f03e93ff9f4daa797ed6e38ed64bf6a1f0160401b831061290c5772184f03e93ff9f4daa797ed6e38ed64bf6a1f0160401b830492506040015b6d04ee2d6d415b85acef81000000008310612938576d04ee2d6d415b85acef8100000000830492506020015b662386f26fc10000831061295657662386f26fc10000830492506010015b6305f5e100831061296e576305f5e100830492506008015b612710831061298257612710830492506004015b60648310612994576064830492506002015b600a8310610ad25760010192915050565b60006001600160a01b03831615801590611e915750826001600160a01b0316846001600160a01b031614806129df57506129df8484611964565b80611e915750506000908152600460205260409020546001600160a01b03908116911614919050565b80356001600160a01b0381168114610e9857600080fd5b634e487b7160e01b600052604160045260246000fd5b604051601f8201601f1916810167ffffffffffffffff81118282101715612a5e57612a5e612a1f565b604052919050565b600067ffffffffffffffff831115612a8057612a80612a1f565b612a93601f8401601f1916602001612a35565b9050828152838383011115612aa757600080fd5b828260208301376000602084830101529392505050565b600082601f830112612acf57600080fd5b610acf83833560208501612a66565b60008060408385031215612af157600080fd5b612afa83612a08565b9150602083013567ffffffffffffffff811115612b1657600080fd5b612b2285828601612abe565b9150509250929050565b6001600160e01b031981168114610cb557600080fd5b600060208284031215612b5457600080fd5b813561247a81612b2c565b60008060408385031215612b7257600080fd5b612b7b83612a08565b915060208301356001600160601b0381168114612b9757600080fd5b809150509250929050565b600060208284031215612bb457600080fd5b5035919050565b60005b83811015612bd6578181015183820152602001612bbe565b50506000910152565b60008151808452612bf7816020860160208601612bbb565b601f01601f19169290920160200192915050565b602081526000610acf6020830184612bdf565b60008060408385031215612c3157600080fd5b612c3a83612a08565b946020939093013593505050565b600060208284031215612c5a57600080fd5b813567ffffffffffffffff811115612c7157600080fd5b611e9184828501612abe565b600080600060608486031215612c9257600080fd5b612c9b84612a08565b9250612ca960208501612a08565b9150604084013590509250925092565b60008060408385031215612ccc57600080fd5b50508035926020909101359150565b600060208284031215612ced57600080fd5b610acf82612a08565b6020808252825182820181905260009190848201906040850190845b81811015612d2e57835183529284019291840191600101612d12565b50909695505050505050565b6001600160a01b0384168152606060208201819052600090612d5e90830185612bdf565b90508215156040830152949350505050565b60008060408385031215612d8357600080fd5b612d8c83612a08565b915060208301358015158114612b9757600080fd5b60008060208385031215612db457600080fd5b823567ffffffffffffffff80821115612dcc57600080fd5b818501915085601f830112612de057600080fd5b813581811115612def57600080fd5b8660208260051b8501011115612e0457600080fd5b60209290920196919550909350505050565b60008060008060808587031215612e2c57600080fd5b612e3585612a08565b9350612e4360208601612a08565b925060408501359150606085013567ffffffffffffffff811115612e6657600080fd5b8501601f81018713612e7757600080fd5b612e8687823560208401612a66565b91505092959194509250565b60008060408385031215612ea557600080fd5b612eae83612a08565b9150610f6160208401612a08565b60006020808385031215612ecf57600080fd5b823567ffffffffffffffff80821115612ee757600080fd5b818501915085601f830112612efb57600080fd5b813581811115612f0d57612f0d612a1f565b8060051b612f1c858201612a35565b9182528381018501918581019089841115612f3657600080fd5b86860192505b83831015612f7257823585811115612f545760008081fd5b612f628b89838a0101612abe565b8352509186019190860190612f3c565b9998505050505050505050565b60208082526012908201527113585e081cdd5c1c1b1e481c995858da195960721b604082015260600190565b600181811c90821680612fbf57607f821691505b602082108103612fdf57634e487b7160e01b600052602260045260246000fd5b50919050565b602080825260139082015272135a5b9d1a5b99c81a5cc8191a5cd8589b1959606a1b604082015260600190565b634e487b7160e01b600052601160045260246000fd5b8082028115828204841417610ad257610ad2613012565b60008261305c57634e487b7160e01b600052601260045260246000fd5b500490565b634e487b7160e01b600052603260045260246000fd5b601f8211156111ad57600081815260208120601f850160051c8101602086101561309e5750805b601f850160051c820191505b818110156130bd578281556001016130aa565b505050505050565b815167ffffffffffffffff8111156130df576130df612a1f565b6130f3816130ed8454612fab565b84613077565b602080601f83116001811461312857600084156131105750858301515b600019600386901b1c1916600185901b1785556130bd565b600085815260208120601f198616915b8281101561315757888601518255948401946001909101908401613138565b50858210156131755787850151600019600388901b60f8161c191681555b5050505050600190811b01905550565b81810381811115610ad257610ad2613012565b6000600182016131aa576131aa613012565b5060010190565b60008083546131bf81612fab565b600182811680156131d757600181146131ec5761321b565b60ff198416875282151583028701945061321b565b8760005260208060002060005b858110156132125781548a8201529084019082016131f9565b50505082870194505b50506e31b7b63632b1ba34b7b7173539b7b760891b83525050600f019392505050565b80820180821115610ad257610ad2613012565b6040815260006132646040830185612bdf565b90508260208301529392505050565b6001600160a01b03858116825284166020820152604081018390526080606082018190526000906132a690830184612bdf565b9695505050505050565b6000602082840312156132c257600080fd5b815161247a81612b2c565b600083516132df818460208801612bbb565b8351908301906132f3818360208801612bbb565b01949350505050565b634e487b7160e01b600052603160045260246000fdfea26469706673582212208756549ac2d027008d90ab4fa7258402cb31bf077b9ef02b9fbc7bcfbef16ae264736f6c6343000814003357616c6c6574436f6e6e656374204e465420436f6c6c656374696f6e202d204d696e7420796f757220756e69717565206469676974616c20617373657421","opcodes":"PUSH1 0xE0 PUSH1 0x40 MSTORE PUSH1 0x3E PUSH1 0x80 DUP2 DUP2 MSTORE SWAP1 PUSH3 0x3776 PUSH1 0xA0 CODECOPY PUSH1 0xF SWAP1 PUSH3 0x22 SWAP1 DUP3 PUSH3 0x212 JUMP JUMPDEST POP PUSH7 0x38D7EA4C68000 PUSH1 0x10 SSTORE PUSH2 0x2710 PUSH1 0x11 SSTORE PUSH1 0xA PUSH1 0x12 SSTORE PUSH1 0x13 DUP1 SLOAD PUSH2 0xFFFF NOT AND PUSH2 0x101 OR SWAP1 SSTORE PUSH1 0x16 DUP1 SLOAD PUSH1 0x1 PUSH1 0x1 PUSH1 0xA0 SHL SUB AND PUSH1 0x7D PUSH1 0xA2 SHL OR SWAP1 SSTORE CALLVALUE DUP1 ISZERO PUSH3 0x6A JUMPI PUSH1 0x0 DUP1 REVERT JUMPDEST POP PUSH1 0x40 MLOAD PUSH3 0x37B4 CODESIZE SUB DUP1 PUSH3 0x37B4 DUP4 CODECOPY DUP2 ADD PUSH1 0x40 DUP2 SWAP1 MSTORE PUSH3 0x8D SWAP2 PUSH3 0x38D JUMP JUMPDEST CALLER DUP4 DUP4 PUSH1 0x0 PUSH3 0x9E DUP4 DUP3 PUSH3 0x212 JUMP JUMPDEST POP PUSH1 0x1 PUSH3 0xAD DUP3 DUP3 PUSH3 0x212 JUMP JUMPDEST POP POP POP PUSH1 0x1 PUSH1 0x1 PUSH1 0xA0 SHL SUB DUP2 AND PUSH3 0xDF JUMPI PUSH1 0x40 MLOAD PUSH4 0x1E4FBDF7 PUSH1 0xE0 SHL DUP2 MSTORE PUSH1 0x0 PUSH1 0x4 DUP3 ADD MSTORE PUSH1 0x24 ADD PUSH1 0x40 MLOAD DUP1 SWAP2 SUB SWAP1 REVERT JUMPDEST PUSH3 0xEA DUP2 PUSH3 0x11B JUMP JUMPDEST POP PUSH1 0x1 PUSH1 0xC SSTORE PUSH1 0xE PUSH3 0xFE DUP3 DUP3 PUSH3 0x212 JUMP JUMPDEST POP POP PUSH1 0x16 DUP1 SLOAD PUSH1 0x1 PUSH1 0x1 PUSH1 0xA0 SHL SUB NOT AND CALLER OR SWAP1 SSTORE POP PUSH3 0x41E SWAP1 POP JUMP JUMPDEST PUSH1 0xB DUP1 SLOAD PUSH1 0x1 PUSH1 0x1 PUSH1 0xA0 SHL SUB DUP4 DUP2 AND PUSH1 0x1 PUSH1 0x1 PUSH1 0xA0 SHL SUB NOT DUP4 AND DUP2 OR SWAP1 SWAP4 SSTORE PUSH1 0x40 MLOAD SWAP2 AND SWAP2 SWAP1 DUP3 SWAP1 PUSH32 0x8BE0079C531659141344CD1FD0A4F28419497F9722A3DAAFE3B4186F6B6457E0 SWAP1 PUSH1 0x0 SWAP1 LOG3 POP POP JUMP JUMPDEST PUSH4 0x4E487B71 PUSH1 0xE0 SHL PUSH1 0x0 MSTORE PUSH1 0x41 PUSH1 0x4 MSTORE PUSH1 0x24 PUSH1 0x0 REVERT JUMPDEST PUSH1 0x1 DUP2 DUP2 SHR SWAP1 DUP3 AND DUP1 PUSH3 0x198 JUMPI PUSH1 0x7F DUP3 AND SWAP2 POP JUMPDEST PUSH1 0x20 DUP3 LT DUP2 SUB PUSH3 0x1B9 JUMPI PUSH4 0x4E487B71 PUSH1 0xE0 SHL PUSH1 0x0 MSTORE PUSH1 0x22 PUSH1 0x4 MSTORE PUSH1 0x24 PUSH1 0x0 REVERT JUMPDEST POP SWAP2 SWAP1 POP JUMP JUMPDEST PUSH1 0x1F DUP3 GT ISZERO PUSH3 0x20D JUMPI PUSH1 0x0 DUP2 DUP2 MSTORE PUSH1 0x20 DUP2 KECCAK256 PUSH1 0x1F DUP6 ADD PUSH1 0x5 SHR DUP2 ADD PUSH1 0x20 DUP7 LT ISZERO PUSH3 0x1E8 JUMPI POP DUP1 JUMPDEST PUSH1 0x1F DUP6 ADD PUSH1 0x5 SHR DUP3 ADD SWAP2 POP JUMPDEST DUP2 DUP2 LT ISZERO PUSH3 0x209 JUMPI DUP3 DUP2 SSTORE PUSH1 0x1 ADD PUSH3 0x1F4 JUMP JUMPDEST POP POP POP JUMPDEST POP POP POP JUMP JUMPDEST DUP2 MLOAD PUSH1 0x1 PUSH1 0x1 PUSH1 0x40 SHL SUB DUP2 GT ISZERO PUSH3 0x22E JUMPI PUSH3 0x22E PUSH3 0x16D JUMP JUMPDEST PUSH3 0x246 DUP2 PUSH3 0x23F DUP5 SLOAD PUSH3 0x183 JUMP JUMPDEST DUP5 PUSH3 0x1BF JUMP JUMPDEST PUSH1 0x20 DUP1 PUSH1 0x1F DUP4 GT PUSH1 0x1 DUP2 EQ PUSH3 0x27E JUMPI PUSH1 0x0 DUP5 ISZERO PUSH3 0x265 JUMPI POP DUP6 DUP4 ADD MLOAD JUMPDEST PUSH1 0x0 NOT PUSH1 0x3 DUP7 SWAP1 SHL SHR NOT AND PUSH1 0x1 DUP6 SWAP1 SHL OR DUP6 SSTORE PUSH3 0x209 JUMP JUMPDEST PUSH1 0x0 DUP6 DUP2 MSTORE PUSH1 0x20 DUP2 KECCAK256 PUSH1 0x1F NOT DUP7 AND SWAP2 JUMPDEST DUP3 DUP2 LT ISZERO PUSH3 0x2AF JUMPI DUP9 DUP7 ADD MLOAD DUP3 SSTORE SWAP5 DUP5 ADD SWAP5 PUSH1 0x1 SWAP1 SWAP2 ADD SWAP1 DUP5 ADD PUSH3 0x28E JUMP JUMPDEST POP DUP6 DUP3 LT ISZERO PUSH3 0x2CE JUMPI DUP8 DUP6 ADD MLOAD PUSH1 0x0 NOT PUSH1 0x3 DUP9 SWAP1 SHL PUSH1 0xF8 AND SHR NOT AND DUP2 SSTORE JUMPDEST POP POP POP POP POP PUSH1 0x1 SWAP1 DUP2 SHL ADD SWAP1 SSTORE POP JUMP JUMPDEST PUSH1 0x0 DUP3 PUSH1 0x1F DUP4 ADD SLT PUSH3 0x2F0 JUMPI PUSH1 0x0 DUP1 REVERT JUMPDEST DUP2 MLOAD PUSH1 0x1 PUSH1 0x1 PUSH1 0x40 SHL SUB DUP1 DUP3 GT ISZERO PUSH3 0x30D JUMPI PUSH3 0x30D PUSH3 0x16D JUMP JUMPDEST PUSH1 0x40 MLOAD PUSH1 0x1F DUP4 ADD PUSH1 0x1F NOT SWAP1 DUP2 AND PUSH1 0x3F ADD AND DUP2 ADD SWAP1 DUP3 DUP3 GT DUP2 DUP4 LT OR ISZERO PUSH3 0x338 JUMPI PUSH3 0x338 PUSH3 0x16D JUMP JUMPDEST DUP2 PUSH1 0x40 MSTORE DUP4 DUP2 MSTORE PUSH1 0x20 SWAP3 POP DUP7 DUP4 DUP6 DUP9 ADD ADD GT ISZERO PUSH3 0x355 JUMPI PUSH1 0x0 DUP1 REVERT JUMPDEST PUSH1 0x0 SWAP2 POP JUMPDEST DUP4 DUP3 LT ISZERO PUSH3 0x379 JUMPI DUP6 DUP3 ADD DUP4 ADD MLOAD DUP2 DUP4 ADD DUP5 ADD MSTORE SWAP1 DUP3 ADD SWAP1 PUSH3 0x35A JUMP JUMPDEST PUSH1 0x0 SWAP4 DUP2 ADD SWAP1 SWAP3 ADD SWAP3 SWAP1 SWAP3 MSTORE SWAP5 SWAP4 POP POP POP POP JUMP JUMPDEST PUSH1 0x0 DUP1 PUSH1 0x0 PUSH1 0x60 DUP5 DUP7 SUB SLT ISZERO PUSH3 0x3A3 JUMPI PUSH1 0x0 DUP1 REVERT JUMPDEST DUP4 MLOAD PUSH1 0x1 PUSH1 0x1 PUSH1 0x40 SHL SUB DUP1 DUP3 GT ISZERO PUSH3 0x3BB JUMPI PUSH1 0x0 DUP1 REVERT JUMPDEST PUSH3 0x3C9 DUP8 DUP4 DUP9 ADD PUSH3 0x2DE JUMP JUMPDEST SWAP5 POP PUSH1 0x20 DUP7 ADD MLOAD SWAP2 POP DUP1 DUP3 GT ISZERO PUSH3 0x3E0 JUMPI PUSH1 0x0 DUP1 REVERT JUMPDEST PUSH3 0x3EE DUP8 DUP4 DUP9 ADD PUSH3 0x2DE JUMP JUMPDEST SWAP4 POP PUSH1 0x40 DUP7 ADD MLOAD SWAP2 POP DUP1 DUP3 GT ISZERO PUSH3 0x405 JUMPI PUSH1 0x0 DUP1 REVERT JUMPDEST POP PUSH3 0x414 DUP7 DUP3 DUP8 ADD PUSH3 0x2DE JUMP JUMPDEST SWAP2 POP POP SWAP3 POP SWAP3 POP SWAP3 JUMP JUMPDEST PUSH2 0x3348 DUP1 PUSH3 0x42E PUSH1 0x0 CODECOPY PUSH1 0x0 RETURN INVALID PUSH1 0x80 PUSH1 0x40 MSTORE PUSH1 0x4 CALLDATASIZE LT PUSH2 0x353 JUMPI PUSH1 0x0 CALLDATALOAD PUSH1 0xE0 SHR DUP1 PUSH4 0x7D55094D GT PUSH2 0x1C6 JUMPI DUP1 PUSH4 0xAFDF6134 GT PUSH2 0xF7 JUMPI DUP1 PUSH4 0xE2C6875C GT PUSH2 0x95 JUMPI DUP1 PUSH4 0xE985E9C5 GT PUSH2 0x6F JUMPI DUP1 PUSH4 0xE985E9C5 EQ PUSH2 0xA1C JUMPI DUP1 PUSH4 0xF09DFBE9 EQ PUSH2 0xA3C JUMPI DUP1 PUSH4 0xF2FDE38B EQ PUSH2 0xA4F JUMPI DUP1 PUSH4 0xF4A0A528 EQ PUSH2 0xA6F JUMPI PUSH1 0x0 DUP1 REVERT JUMPDEST DUP1 PUSH4 0xE2C6875C EQ PUSH2 0x9D2 JUMPI DUP1 PUSH4 0xE43252D7 EQ PUSH2 0x9E7 JUMPI DUP1 PUSH4 0xE8A3D485 EQ PUSH2 0xA07 JUMPI PUSH1 0x0 DUP1 REVERT JUMPDEST DUP1 PUSH4 0xC87B56DD GT PUSH2 0xD1 JUMPI DUP1 PUSH4 0xC87B56DD EQ PUSH2 0x974 JUMPI DUP1 PUSH4 0xD547CFB7 EQ PUSH2 0x994 JUMPI DUP1 PUSH4 0xD5ABEB01 EQ PUSH2 0x9A9 JUMPI DUP1 PUSH4 0xD85D3D27 EQ PUSH2 0x9BF JUMPI PUSH1 0x0 DUP1 REVERT JUMPDEST DUP1 PUSH4 0xAFDF6134 EQ PUSH2 0x91E JUMPI DUP1 PUSH4 0xB228D925 EQ PUSH2 0x93E JUMPI DUP1 PUSH4 0xB88D4FDE EQ PUSH2 0x954 JUMPI PUSH1 0x0 DUP1 REVERT JUMPDEST DUP1 PUSH4 0x9471302E GT PUSH2 0x164 JUMPI DUP1 PUSH4 0x9FBC8713 GT PUSH2 0x13E JUMPI DUP1 PUSH4 0x9FBC8713 EQ PUSH2 0x8A4 JUMPI DUP1 PUSH4 0x9FD6DB12 EQ PUSH2 0x8C4 JUMPI DUP1 PUSH4 0xA22CB465 EQ PUSH2 0x8DE JUMPI DUP1 PUSH4 0xA6177139 EQ PUSH2 0x8FE JUMPI PUSH1 0x0 DUP1 REVERT JUMPDEST DUP1 PUSH4 0x9471302E EQ PUSH2 0x83F JUMPI DUP1 PUSH4 0x95D89B41 EQ PUSH2 0x85F JUMPI DUP1 PUSH4 0x9B19251A EQ PUSH2 0x874 JUMPI PUSH1 0x0 DUP1 REVERT JUMPDEST DUP1 PUSH4 0x8462151C GT PUSH2 0x1A0 JUMPI DUP1 PUSH4 0x8462151C EQ PUSH2 0x7A5 JUMPI DUP1 PUSH4 0x8AB1D681 EQ PUSH2 0x7D2 JUMPI DUP1 PUSH4 0x8C7A63AE EQ PUSH2 0x7F2 JUMPI DUP1 PUSH4 0x8DA5CB5B EQ PUSH2 0x821 JUMPI PUSH1 0x0 DUP1 REVERT JUMPDEST DUP1 PUSH4 0x7D55094D EQ PUSH2 0x70B JUMPI DUP1 PUSH4 0x81DDCC1F EQ PUSH2 0x720 JUMPI DUP1 PUSH4 0x840E15D4 EQ PUSH2 0x75F JUMPI PUSH1 0x0 DUP1 REVERT JUMPDEST DUP1 PUSH4 0x3A602B4D GT PUSH2 0x2A0 JUMPI DUP1 PUSH4 0x55F804B3 GT PUSH2 0x23E JUMPI DUP1 PUSH4 0x6817C76C GT PUSH2 0x218 JUMPI DUP1 PUSH4 0x6817C76C EQ PUSH2 0x6A0 JUMPI DUP1 PUSH4 0x6F8B44B0 EQ PUSH2 0x6B6 JUMPI DUP1 PUSH4 0x70A08231 EQ PUSH2 0x6D6 JUMPI DUP1 PUSH4 0x715018A6 EQ PUSH2 0x6F6 JUMPI PUSH1 0x0 DUP1 REVERT JUMPDEST DUP1 PUSH4 0x55F804B3 EQ PUSH2 0x612 JUMPI DUP1 PUSH4 0x5894BD51 EQ PUSH2 0x632 JUMPI DUP1 PUSH4 0x6352211E EQ PUSH2 0x680 JUMPI PUSH1 0x0 DUP1 REVERT JUMPDEST DUP1 PUSH4 0x42842E0E GT PUSH2 0x27A JUMPI DUP1 PUSH4 0x42842E0E EQ PUSH2 0x5A8 JUMPI DUP1 PUSH4 0x4A4E3BD5 EQ PUSH2 0x5C8 JUMPI DUP1 PUSH4 0x4F6CCCE7 EQ PUSH2 0x5DD JUMPI DUP1 PUSH4 0x51858E27 EQ PUSH2 0x5FD JUMPI PUSH1 0x0 DUP1 REVERT JUMPDEST DUP1 PUSH4 0x3A602B4D EQ PUSH2 0x551 JUMPI DUP1 PUSH4 0x3CCFD60B EQ PUSH2 0x57E JUMPI DUP1 PUSH4 0x4047638D EQ PUSH2 0x593 JUMPI PUSH1 0x0 DUP1 REVERT JUMPDEST DUP1 PUSH4 0x95EA7B3 GT PUSH2 0x30D JUMPI DUP1 PUSH4 0x1D64B7C1 GT PUSH2 0x2E7 JUMPI DUP1 PUSH4 0x1D64B7C1 EQ PUSH2 0x4B2 JUMPI DUP1 PUSH4 0x23B872DD EQ PUSH2 0x4D2 JUMPI DUP1 PUSH4 0x2A55205A EQ PUSH2 0x4F2 JUMPI DUP1 PUSH4 0x2F745C59 EQ PUSH2 0x531 JUMPI PUSH1 0x0 DUP1 REVERT JUMPDEST DUP1 PUSH4 0x95EA7B3 EQ PUSH2 0x45E JUMPI DUP1 PUSH4 0xF4161AA EQ PUSH2 0x47E JUMPI DUP1 PUSH4 0x18160DDD EQ PUSH2 0x49D JUMPI PUSH1 0x0 DUP1 REVERT JUMPDEST DUP1 PUSH3 0x75A317 EQ PUSH2 0x35F JUMPI DUP1 PUSH4 0x1FFC9A7 EQ PUSH2 0x392 JUMPI DUP1 PUSH4 0x2FA7C47 EQ PUSH2 0x3C2 JUMPI DUP1 PUSH4 0x562B9F7 EQ PUSH2 0x3E4 JUMPI DUP1 PUSH4 0x6FDDE03 EQ PUSH2 0x404 JUMPI DUP1 PUSH4 0x81812FC EQ PUSH2 0x426 JUMPI PUSH1 0x0 DUP1 REVERT JUMPDEST CALLDATASIZE PUSH2 0x35A JUMPI STOP JUMPDEST PUSH1 0x0 DUP1 REVERT JUMPDEST CALLVALUE DUP1 ISZERO PUSH2 0x36B JUMPI PUSH1 0x0 DUP1 REVERT JUMPDEST POP PUSH2 0x37F PUSH2 0x37A CALLDATASIZE PUSH1 0x4 PUSH2 0x2ADE JUMP JUMPDEST PUSH2 0xA8F JUMP JUMPDEST PUSH1 0x40 MLOAD SWAP1 DUP2 MSTORE PUSH1 0x20 ADD JUMPDEST PUSH1 0x40 MLOAD DUP1 SWAP2 SUB SWAP1 RETURN JUMPDEST CALLVALUE DUP1 ISZERO PUSH2 0x39E JUMPI PUSH1 0x0 DUP1 REVERT JUMPDEST POP PUSH2 0x3B2 PUSH2 0x3AD CALLDATASIZE PUSH1 0x4 PUSH2 0x2B42 JUMP JUMPDEST PUSH2 0xAD8 JUMP JUMPDEST PUSH1 0x40 MLOAD SWAP1 ISZERO ISZERO DUP2 MSTORE PUSH1 0x20 ADD PUSH2 0x389 JUMP JUMPDEST CALLVALUE DUP1 ISZERO PUSH2 0x3CE JUMPI PUSH1 0x0 DUP1 REVERT JUMPDEST POP PUSH2 0x3E2 PUSH2 0x3DD CALLDATASIZE PUSH1 0x4 PUSH2 0x2B5F JUMP JUMPDEST PUSH2 0xAE3 JUMP JUMPDEST STOP JUMPDEST CALLVALUE DUP1 ISZERO PUSH2 0x3F0 JUMPI PUSH1 0x0 DUP1 REVERT JUMPDEST POP PUSH2 0x3E2 PUSH2 0x3FF CALLDATASIZE PUSH1 0x4 PUSH2 0x2BA2 JUMP JUMPDEST PUSH2 0xB5D JUMP JUMPDEST CALLVALUE DUP1 ISZERO PUSH2 0x410 JUMPI PUSH1 0x0 DUP1 REVERT JUMPDEST POP PUSH2 0x419 PUSH2 0xCB8 JUMP JUMPDEST PUSH1 0x40 MLOAD PUSH2 0x389 SWAP2 SWAP1 PUSH2 0x2C0B JUMP JUMPDEST CALLVALUE DUP1 ISZERO PUSH2 0x432 JUMPI PUSH1 0x0 DUP1 REVERT JUMPDEST POP PUSH2 0x446 PUSH2 0x441 CALLDATASIZE PUSH1 0x4 PUSH2 0x2BA2 JUMP JUMPDEST PUSH2 0xD4A JUMP JUMPDEST PUSH1 0x40 MLOAD PUSH1 0x1 PUSH1 0x1 PUSH1 0xA0 SHL SUB SWAP1 SWAP2 AND DUP2 MSTORE PUSH1 0x20 ADD PUSH2 0x389 JUMP JUMPDEST CALLVALUE DUP1 ISZERO PUSH2 0x46A JUMPI PUSH1 0x0 DUP1 REVERT JUMPDEST POP PUSH2 0x3E2 PUSH2 0x479 CALLDATASIZE PUSH1 0x4 PUSH2 0x2C1E JUMP JUMPDEST PUSH2 0xD73 JUMP JUMPDEST CALLVALUE DUP1 ISZERO PUSH2 0x48A JUMPI PUSH1 0x0 DUP1 REVERT JUMPDEST POP PUSH1 0x13 SLOAD PUSH2 0x3B2 SWAP1 PUSH2 0x100 SWAP1 DIV PUSH1 0xFF AND DUP2 JUMP JUMPDEST CALLVALUE DUP1 ISZERO PUSH2 0x4A9 JUMPI PUSH1 0x0 DUP1 REVERT JUMPDEST POP PUSH1 0xD SLOAD PUSH2 0x37F JUMP JUMPDEST CALLVALUE DUP1 ISZERO PUSH2 0x4BE JUMPI PUSH1 0x0 DUP1 REVERT JUMPDEST POP PUSH2 0x37F PUSH2 0x4CD CALLDATASIZE PUSH1 0x4 PUSH2 0x2C48 JUMP JUMPDEST PUSH2 0xD82 JUMP JUMPDEST CALLVALUE DUP1 ISZERO PUSH2 0x4DE JUMPI PUSH1 0x0 DUP1 REVERT JUMPDEST POP PUSH2 0x3E2 PUSH2 0x4ED CALLDATASIZE PUSH1 0x4 PUSH2 0x2C7D JUMP JUMPDEST PUSH2 0xE9D JUMP JUMPDEST CALLVALUE DUP1 ISZERO PUSH2 0x4FE JUMPI PUSH1 0x0 DUP1 REVERT JUMPDEST POP PUSH2 0x512 PUSH2 0x50D CALLDATASIZE PUSH1 0x4 PUSH2 0x2CB9 JUMP JUMPDEST PUSH2 0xF28 JUMP JUMPDEST PUSH1 0x40 DUP1 MLOAD PUSH1 0x1 PUSH1 0x1 PUSH1 0xA0 SHL SUB SWAP1 SWAP4 AND DUP4 MSTORE PUSH1 0x20 DUP4 ADD SWAP2 SWAP1 SWAP2 MSTORE ADD PUSH2 0x389 JUMP JUMPDEST CALLVALUE DUP1 ISZERO PUSH2 0x53D JUMPI PUSH1 0x0 DUP1 REVERT JUMPDEST POP PUSH2 0x37F PUSH2 0x54C CALLDATASIZE PUSH1 0x4 PUSH2 0x2C1E JUMP JUMPDEST PUSH2 0xF6A JUMP JUMPDEST CALLVALUE DUP1 ISZERO PUSH2 0x55D JUMPI PUSH1 0x0 DUP1 REVERT JUMPDEST POP PUSH2 0x37F PUSH2 0x56C CALLDATASIZE PUSH1 0x4 PUSH2 0x2CDB JUMP JUMPDEST PUSH1 0x15 PUSH1 0x20 MSTORE PUSH1 0x0 SWAP1 DUP2 MSTORE PUSH1 0x40 SWAP1 KECCAK256 SLOAD DUP2 JUMP JUMPDEST CALLVALUE DUP1 ISZERO PUSH2 0x58A JUMPI PUSH1 0x0 DUP1 REVERT JUMPDEST POP PUSH2 0x3E2 PUSH2 0xFCF JUMP JUMPDEST CALLVALUE DUP1 ISZERO PUSH2 0x59F JUMPI PUSH1 0x0 DUP1 REVERT JUMPDEST POP PUSH2 0x3E2 PUSH2 0x1128 JUMP JUMPDEST CALLVALUE DUP1 ISZERO PUSH2 0x5B4 JUMPI PUSH1 0x0 DUP1 REVERT JUMPDEST POP PUSH2 0x3E2 PUSH2 0x5C3 CALLDATASIZE PUSH1 0x4 PUSH2 0x2C7D JUMP JUMPDEST PUSH2 0x1192 JUMP JUMPDEST CALLVALUE DUP1 ISZERO PUSH2 0x5D4 JUMPI PUSH1 0x0 DUP1 REVERT JUMPDEST POP PUSH2 0x3E2 PUSH2 0x11B2 JUMP JUMPDEST CALLVALUE DUP1 ISZERO PUSH2 0x5E9 JUMPI PUSH1 0x0 DUP1 REVERT JUMPDEST POP PUSH2 0x37F PUSH2 0x5F8 CALLDATASIZE PUSH1 0x4 PUSH2 0x2BA2 JUMP JUMPDEST PUSH2 0x11CB JUMP JUMPDEST CALLVALUE DUP1 ISZERO PUSH2 0x609 JUMPI PUSH1 0x0 DUP1 REVERT JUMPDEST POP PUSH2 0x3E2 PUSH2 0x1224 JUMP JUMPDEST CALLVALUE DUP1 ISZERO PUSH2 0x61E JUMPI PUSH1 0x0 DUP1 REVERT JUMPDEST POP PUSH2 0x3E2 PUSH2 0x62D CALLDATASIZE PUSH1 0x4 PUSH2 0x2C48 JUMP JUMPDEST PUSH2 0x1239 JUMP JUMPDEST CALLVALUE DUP1 ISZERO PUSH2 0x63E JUMPI PUSH1 0x0 DUP1 REVERT JUMPDEST POP PUSH1 0xD SLOAD PUSH1 0x11 SLOAD PUSH1 0x10 SLOAD PUSH1 0x13 SLOAD PUSH1 0x40 DUP1 MLOAD SWAP5 DUP6 MSTORE PUSH1 0x20 DUP6 ADD SWAP4 SWAP1 SWAP4 MSTORE SWAP2 DUP4 ADD MSTORE PUSH1 0xFF DUP1 DUP3 AND ISZERO ISZERO PUSH1 0x60 DUP5 ADD MSTORE PUSH2 0x100 SWAP1 SWAP2 DIV AND ISZERO ISZERO PUSH1 0x80 DUP3 ADD MSTORE PUSH1 0xA0 ADD PUSH2 0x389 JUMP JUMPDEST CALLVALUE DUP1 ISZERO PUSH2 0x68C JUMPI PUSH1 0x0 DUP1 REVERT JUMPDEST POP PUSH2 0x446 PUSH2 0x69B CALLDATASIZE PUSH1 0x4 PUSH2 0x2BA2 JUMP JUMPDEST PUSH2 0x1288 JUMP JUMPDEST CALLVALUE DUP1 ISZERO PUSH2 0x6AC JUMPI PUSH1 0x0 DUP1 REVERT JUMPDEST POP PUSH2 0x37F PUSH1 0x10 SLOAD DUP2 JUMP JUMPDEST CALLVALUE DUP1 ISZERO PUSH2 0x6C2 JUMPI PUSH1 0x0 DUP1 REVERT JUMPDEST POP PUSH2 0x3E2 PUSH2 0x6D1 CALLDATASIZE PUSH1 0x4 PUSH2 0x2BA2 JUMP JUMPDEST PUSH2 0x1293 JUMP JUMPDEST CALLVALUE DUP1 ISZERO PUSH2 0x6E2 JUMPI PUSH1 0x0 DUP1 REVERT JUMPDEST POP PUSH2 0x37F PUSH2 0x6F1 CALLDATASIZE PUSH1 0x4 PUSH2 0x2CDB JUMP JUMPDEST PUSH2 0x12F2 JUMP JUMPDEST CALLVALUE DUP1 ISZERO PUSH2 0x702 JUMPI PUSH1 0x0 DUP1 REVERT JUMPDEST POP PUSH2 0x3E2 PUSH2 0x133A JUMP JUMPDEST CALLVALUE DUP1 ISZERO PUSH2 0x717 JUMPI PUSH1 0x0 DUP1 REVERT JUMPDEST POP PUSH2 0x3E2 PUSH2 0x134C JUMP JUMPDEST CALLVALUE DUP1 ISZERO PUSH2 0x72C JUMPI PUSH1 0x0 DUP1 REVERT JUMPDEST POP PUSH1 0x16 SLOAD PUSH2 0x747 SWAP1 PUSH1 0x1 PUSH1 0xA0 SHL SWAP1 DIV PUSH1 0x1 PUSH1 0x1 PUSH1 0x60 SHL SUB AND DUP2 JUMP JUMPDEST PUSH1 0x40 MLOAD PUSH1 0x1 PUSH1 0x1 PUSH1 0x60 SHL SUB SWAP1 SWAP2 AND DUP2 MSTORE PUSH1 0x20 ADD PUSH2 0x389 JUMP JUMPDEST CALLVALUE DUP1 ISZERO PUSH2 0x76B JUMPI PUSH1 0x0 DUP1 REVERT JUMPDEST POP PUSH2 0x77F PUSH2 0x77A CALLDATASIZE PUSH1 0x4 PUSH2 0x2CDB JUMP JUMPDEST PUSH2 0x139C JUMP JUMPDEST PUSH1 0x40 DUP1 MLOAD SWAP5 DUP6 MSTORE PUSH1 0x20 DUP6 ADD SWAP4 SWAP1 SWAP4 MSTORE SWAP1 ISZERO ISZERO SWAP2 DUP4 ADD SWAP2 SWAP1 SWAP2 MSTORE PUSH1 0x60 DUP3 ADD MSTORE PUSH1 0x80 ADD PUSH2 0x389 JUMP JUMPDEST CALLVALUE DUP1 ISZERO PUSH2 0x7B1 JUMPI PUSH1 0x0 DUP1 REVERT JUMPDEST POP PUSH2 0x7C5 PUSH2 0x7C0 CALLDATASIZE PUSH1 0x4 PUSH2 0x2CDB JUMP JUMPDEST PUSH2 0x13F6 JUMP JUMPDEST PUSH1 0x40 MLOAD PUSH2 0x389 SWAP2 SWAP1 PUSH2 0x2CF6 JUMP JUMPDEST CALLVALUE DUP1 ISZERO PUSH2 0x7DE JUMPI PUSH1 0x0 DUP1 REVERT JUMPDEST POP PUSH2 0x3E2 PUSH2 0x7ED CALLDATASIZE PUSH1 0x4 PUSH2 0x2CDB JUMP JUMPDEST PUSH2 0x1498 JUMP JUMPDEST CALLVALUE DUP1 ISZERO PUSH2 0x7FE JUMPI PUSH1 0x0 DUP1 REVERT JUMPDEST POP PUSH2 0x812 PUSH2 0x80D CALLDATASIZE PUSH1 0x4 PUSH2 0x2BA2 JUMP JUMPDEST PUSH2 0x14F6 JUMP JUMPDEST PUSH1 0x40 MLOAD PUSH2 0x389 SWAP4 SWAP3 SWAP2 SWAP1 PUSH2 0x2D3A JUMP JUMPDEST CALLVALUE DUP1 ISZERO PUSH2 0x82D JUMPI PUSH1 0x0 DUP1 REVERT JUMPDEST POP PUSH1 0xB SLOAD PUSH1 0x1 PUSH1 0x1 PUSH1 0xA0 SHL SUB AND PUSH2 0x446 JUMP JUMPDEST CALLVALUE DUP1 ISZERO PUSH2 0x84B JUMPI PUSH1 0x0 DUP1 REVERT JUMPDEST POP PUSH2 0x3E2 PUSH2 0x85A CALLDATASIZE PUSH1 0x4 PUSH2 0x2C48 JUMP JUMPDEST PUSH2 0x154B JUMP JUMPDEST CALLVALUE DUP1 ISZERO PUSH2 0x86B JUMPI PUSH1 0x0 DUP1 REVERT JUMPDEST POP PUSH2 0x419 PUSH2 0x155F JUMP JUMPDEST CALLVALUE DUP1 ISZERO PUSH2 0x880 JUMPI PUSH1 0x0 DUP1 REVERT JUMPDEST POP PUSH2 0x3B2 PUSH2 0x88F CALLDATASIZE PUSH1 0x4 PUSH2 0x2CDB JUMP JUMPDEST PUSH1 0x14 PUSH1 0x20 MSTORE PUSH1 0x0 SWAP1 DUP2 MSTORE PUSH1 0x40 SWAP1 KECCAK256 SLOAD PUSH1 0xFF AND DUP2 JUMP JUMPDEST CALLVALUE DUP1 ISZERO PUSH2 0x8B0 JUMPI PUSH1 0x0 DUP1 REVERT JUMPDEST POP PUSH1 0x16 SLOAD PUSH2 0x446 SWAP1 PUSH1 0x1 PUSH1 0x1 PUSH1 0xA0 SHL SUB AND DUP2 JUMP JUMPDEST CALLVALUE DUP1 ISZERO PUSH2 0x8D0 JUMPI PUSH1 0x0 DUP1 REVERT JUMPDEST POP PUSH1 0x13 SLOAD PUSH2 0x3B2 SWAP1 PUSH1 0xFF AND DUP2 JUMP JUMPDEST CALLVALUE DUP1 ISZERO PUSH2 0x8EA JUMPI PUSH1 0x0 DUP1 REVERT JUMPDEST POP PUSH2 0x3E2 PUSH2 0x8F9 CALLDATASIZE PUSH1 0x4 PUSH2 0x2D70 JUMP JUMPDEST PUSH2 0x156E JUMP JUMPDEST CALLVALUE DUP1 ISZERO PUSH2 0x90A JUMPI PUSH1 0x0 DUP1 REVERT JUMPDEST POP PUSH2 0x3E2 PUSH2 0x919 CALLDATASIZE PUSH1 0x4 PUSH2 0x2DA1 JUMP JUMPDEST PUSH2 0x1579 JUMP JUMPDEST CALLVALUE DUP1 ISZERO PUSH2 0x92A JUMPI PUSH1 0x0 DUP1 REVERT JUMPDEST POP PUSH2 0x3E2 PUSH2 0x939 CALLDATASIZE PUSH1 0x4 PUSH2 0x2BA2 JUMP JUMPDEST PUSH2 0x165F JUMP JUMPDEST CALLVALUE DUP1 ISZERO PUSH2 0x94A JUMPI PUSH1 0x0 DUP1 REVERT JUMPDEST POP PUSH2 0x37F PUSH1 0x12 SLOAD DUP2 JUMP JUMPDEST CALLVALUE DUP1 ISZERO PUSH2 0x960 JUMPI PUSH1 0x0 DUP1 REVERT JUMPDEST POP PUSH2 0x3E2 PUSH2 0x96F CALLDATASIZE PUSH1 0x4 PUSH2 0x2E16 JUMP JUMPDEST PUSH2 0x166C JUMP JUMPDEST CALLVALUE DUP1 ISZERO PUSH2 0x980 JUMPI PUSH1 0x0 DUP1 REVERT JUMPDEST POP PUSH2 0x419 PUSH2 0x98F CALLDATASIZE PUSH1 0x4 PUSH2 0x2BA2 JUMP JUMPDEST PUSH2 0x1683 JUMP JUMPDEST CALLVALUE DUP1 ISZERO PUSH2 0x9A0 JUMPI PUSH1 0x0 DUP1 REVERT JUMPDEST POP PUSH2 0x419 PUSH2 0x168E JUMP JUMPDEST CALLVALUE DUP1 ISZERO PUSH2 0x9B5 JUMPI PUSH1 0x0 DUP1 REVERT JUMPDEST POP PUSH2 0x37F PUSH1 0x11 SLOAD DUP2 JUMP JUMPDEST PUSH2 0x37F PUSH2 0x9CD CALLDATASIZE PUSH1 0x4 PUSH2 0x2C48 JUMP JUMPDEST PUSH2 0x171C JUMP JUMPDEST CALLVALUE DUP1 ISZERO PUSH2 0x9DE JUMPI PUSH1 0x0 DUP1 REVERT JUMPDEST POP PUSH2 0x419 PUSH2 0x18D0 JUMP JUMPDEST CALLVALUE DUP1 ISZERO PUSH2 0x9F3 JUMPI PUSH1 0x0 DUP1 REVERT JUMPDEST POP PUSH2 0x3E2 PUSH2 0xA02 CALLDATASIZE PUSH1 0x4 PUSH2 0x2CDB JUMP JUMPDEST PUSH2 0x18DD JUMP JUMPDEST CALLVALUE DUP1 ISZERO PUSH2 0xA13 JUMPI PUSH1 0x0 DUP1 REVERT JUMPDEST POP PUSH2 0x419 PUSH2 0x193C JUMP JUMPDEST CALLVALUE DUP1 ISZERO PUSH2 0xA28 JUMPI PUSH1 0x0 DUP1 REVERT JUMPDEST POP PUSH2 0x3B2 PUSH2 0xA37 CALLDATASIZE PUSH1 0x4 PUSH2 0x2E92 JUMP JUMPDEST PUSH2 0x1964 JUMP JUMPDEST PUSH2 0x7C5 PUSH2 0xA4A CALLDATASIZE PUSH1 0x4 PUSH2 0x2EBC JUMP JUMPDEST PUSH2 0x1992 JUMP JUMPDEST CALLVALUE DUP1 ISZERO PUSH2 0xA5B JUMPI PUSH1 0x0 DUP1 REVERT JUMPDEST POP PUSH2 0x3E2 PUSH2 0xA6A CALLDATASIZE PUSH1 0x4 PUSH2 0x2CDB JUMP JUMPDEST PUSH2 0x1C98 JUMP JUMPDEST CALLVALUE DUP1 ISZERO PUSH2 0xA7B JUMPI PUSH1 0x0 DUP1 REVERT JUMPDEST POP PUSH2 0x3E2 PUSH2 0xA8A CALLDATASIZE PUSH1 0x4 PUSH2 0x2BA2 JUMP JUMPDEST PUSH2 0x1CD3 JUMP JUMPDEST PUSH1 0x0 PUSH2 0xA99 PUSH2 0x1D21 JUMP JUMPDEST PUSH1 0x11 SLOAD PUSH1 0xD SLOAD LT PUSH2 0xAC5 JUMPI PUSH1 0x40 MLOAD PUSH3 0x461BCD PUSH1 0xE5 SHL DUP2 MSTORE PUSH1 0x4 ADD PUSH2 0xABC SWAP1 PUSH2 0x2F7F JUMP JUMPDEST PUSH1 0x40 MLOAD DUP1 SWAP2 SUB SWAP1 REVERT JUMPDEST PUSH2 0xACF DUP4 DUP4 PUSH2 0x1D4E JUMP JUMPDEST SWAP1 POP JUMPDEST SWAP3 SWAP2 POP POP JUMP JUMPDEST PUSH1 0x0 PUSH2 0xAD2 DUP3 PUSH2 0x1DEF JUMP JUMPDEST PUSH2 0xAEB PUSH2 0x1D21 JUMP JUMPDEST PUSH2 0x3E8 DUP2 PUSH1 0x1 PUSH1 0x1 PUSH1 0x60 SHL SUB AND GT ISZERO PUSH2 0xB3D JUMPI PUSH1 0x40 MLOAD PUSH3 0x461BCD PUSH1 0xE5 SHL DUP2 MSTORE PUSH1 0x20 PUSH1 0x4 DUP3 ADD MSTORE PUSH1 0x14 PUSH1 0x24 DUP3 ADD MSTORE PUSH20 0xA4DEF2C2D8E8F240CCCACA40E8DEDE40D0D2CED PUSH1 0x63 SHL PUSH1 0x44 DUP3 ADD MSTORE PUSH1 0x64 ADD PUSH2 0xABC JUMP JUMPDEST PUSH1 0x1 PUSH1 0x1 PUSH1 0x60 SHL SUB AND PUSH1 0x1 PUSH1 0xA0 SHL MUL PUSH1 0x1 PUSH1 0x1 PUSH1 0xA0 SHL SUB SWAP1 SWAP2 AND OR PUSH1 0x16 SSTORE JUMP JUMPDEST PUSH2 0xB65 PUSH2 0x1D21 JUMP JUMPDEST PUSH2 0xB6D PUSH2 0x1E14 JUMP JUMPDEST SELFBALANCE DUP2 GT ISZERO PUSH2 0xBB4 JUMPI PUSH1 0x40 MLOAD PUSH3 0x461BCD PUSH1 0xE5 SHL DUP2 MSTORE PUSH1 0x20 PUSH1 0x4 DUP3 ADD MSTORE PUSH1 0x14 PUSH1 0x24 DUP3 ADD MSTORE PUSH20 0x496E73756666696369656E742062616C616E6365 PUSH1 0x60 SHL PUSH1 0x44 DUP3 ADD MSTORE PUSH1 0x64 ADD PUSH2 0xABC JUMP JUMPDEST PUSH1 0x0 PUSH2 0xBC8 PUSH1 0xB SLOAD PUSH1 0x1 PUSH1 0x1 PUSH1 0xA0 SHL SUB AND SWAP1 JUMP JUMPDEST PUSH1 0x1 PUSH1 0x1 PUSH1 0xA0 SHL SUB AND DUP3 PUSH1 0x40 MLOAD PUSH1 0x0 PUSH1 0x40 MLOAD DUP1 DUP4 SUB DUP2 DUP6 DUP8 GAS CALL SWAP3 POP POP POP RETURNDATASIZE DUP1 PUSH1 0x0 DUP2 EQ PUSH2 0xC12 JUMPI PUSH1 0x40 MLOAD SWAP2 POP PUSH1 0x1F NOT PUSH1 0x3F RETURNDATASIZE ADD AND DUP3 ADD PUSH1 0x40 MSTORE RETURNDATASIZE DUP3 MSTORE RETURNDATASIZE PUSH1 0x0 PUSH1 0x20 DUP5 ADD RETURNDATACOPY PUSH2 0xC17 JUMP JUMPDEST PUSH1 0x60 SWAP2 POP JUMPDEST POP POP SWAP1 POP DUP1 PUSH2 0xC5C JUMPI PUSH1 0x40 MLOAD PUSH3 0x461BCD PUSH1 0xE5 SHL DUP2 MSTORE PUSH1 0x20 PUSH1 0x4 DUP3 ADD MSTORE PUSH1 0x11 PUSH1 0x24 DUP3 ADD MSTORE PUSH17 0x15DA5D1A191C985DD85B0819985A5B1959 PUSH1 0x7A SHL PUSH1 0x44 DUP3 ADD MSTORE PUSH1 0x64 ADD PUSH2 0xABC JUMP JUMPDEST PUSH1 0xB SLOAD PUSH1 0x1 PUSH1 0x1 PUSH1 0xA0 SHL SUB AND PUSH1 0x1 PUSH1 0x1 PUSH1 0xA0 SHL SUB AND PUSH32 0x7084F5476618D8E60B11EF0D7D3F06914655ADB8793E28FF7F018D4C76D505D5 DUP4 PUSH1 0x40 MLOAD PUSH2 0xCA2 SWAP2 DUP2 MSTORE PUSH1 0x20 ADD SWAP1 JUMP JUMPDEST PUSH1 0x40 MLOAD DUP1 SWAP2 SUB SWAP1 LOG2 POP PUSH2 0xCB5 PUSH1 0x1 PUSH1 0xC SSTORE JUMP JUMPDEST POP JUMP JUMPDEST PUSH1 0x60 PUSH1 0x0 DUP1 SLOAD PUSH2 0xCC7 SWAP1 PUSH2 0x2FAB JUMP JUMPDEST DUP1 PUSH1 0x1F ADD PUSH1 0x20 DUP1 SWAP2 DIV MUL PUSH1 0x20 ADD PUSH1 0x40 MLOAD SWAP1 DUP2 ADD PUSH1 0x40 MSTORE DUP1 SWAP3 SWAP2 SWAP1 DUP2 DUP2 MSTORE PUSH1 0x20 ADD DUP3 DUP1 SLOAD PUSH2 0xCF3 SWAP1 PUSH2 0x2FAB JUMP JUMPDEST DUP1 ISZERO PUSH2 0xD40 JUMPI DUP1 PUSH1 0x1F LT PUSH2 0xD15 JUMPI PUSH2 0x100 DUP1 DUP4 SLOAD DIV MUL DUP4 MSTORE SWAP2 PUSH1 0x20 ADD SWAP2 PUSH2 0xD40 JUMP JUMPDEST DUP3 ADD SWAP2 SWAP1 PUSH1 0x0 MSTORE PUSH1 0x20 PUSH1 0x0 KECCAK256 SWAP1 JUMPDEST DUP2 SLOAD DUP2 MSTORE SWAP1 PUSH1 0x1 ADD SWAP1 PUSH1 0x20 ADD DUP1 DUP4 GT PUSH2 0xD23 JUMPI DUP3 SWAP1 SUB PUSH1 0x1F AND DUP3 ADD SWAP2 JUMPDEST POP POP POP POP POP SWAP1 POP SWAP1 JUMP JUMPDEST PUSH1 0x0 PUSH2 0xD55 DUP3 PUSH2 0x1E3E JUMP JUMPDEST POP PUSH1 0x0 DUP3 DUP2 MSTORE PUSH1 0x4 PUSH1 0x20 MSTORE PUSH1 0x40 SWAP1 KECCAK256 SLOAD PUSH1 0x1 PUSH1 0x1 PUSH1 0xA0 SHL SUB AND PUSH2 0xAD2 JUMP JUMPDEST PUSH2 0xD7E DUP3 DUP3 CALLER PUSH2 0x1E77 JUMP JUMPDEST POP POP JUMP JUMPDEST PUSH1 0x0 PUSH2 0xD8C PUSH2 0x1E14 JUMP JUMPDEST PUSH1 0x13 SLOAD PUSH1 0xFF AND PUSH2 0xDAE JUMPI PUSH1 0x40 MLOAD PUSH3 0x461BCD PUSH1 0xE5 SHL DUP2 MSTORE PUSH1 0x4 ADD PUSH2 0xABC SWAP1 PUSH2 0x2FE5 JUMP JUMPDEST CALLER PUSH1 0x0 SWAP1 DUP2 MSTORE PUSH1 0x14 PUSH1 0x20 MSTORE PUSH1 0x40 SWAP1 KECCAK256 SLOAD PUSH1 0xFF AND PUSH2 0xDFF JUMPI PUSH1 0x40 MLOAD PUSH3 0x461BCD PUSH1 0xE5 SHL DUP2 MSTORE PUSH1 0x20 PUSH1 0x4 DUP3 ADD MSTORE PUSH1 0xF PUSH1 0x24 DUP3 ADD MSTORE PUSH15 0x139BDD081DDA1A5D195B1A5CDD1959 PUSH1 0x8A SHL PUSH1 0x44 DUP3 ADD MSTORE PUSH1 0x64 ADD PUSH2 0xABC JUMP JUMPDEST PUSH1 0x11 SLOAD PUSH1 0xD SLOAD LT PUSH2 0xE22 JUMPI PUSH1 0x40 MLOAD PUSH3 0x461BCD PUSH1 0xE5 SHL DUP2 MSTORE PUSH1 0x4 ADD PUSH2 0xABC SWAP1 PUSH2 0x2F7F JUMP JUMPDEST PUSH1 0x12 SLOAD CALLER PUSH1 0x0 SWAP1 DUP2 MSTORE PUSH1 0x15 PUSH1 0x20 MSTORE PUSH1 0x40 SWAP1 KECCAK256 SLOAD LT PUSH2 0xE82 JUMPI PUSH1 0x40 MLOAD PUSH3 0x461BCD PUSH1 0xE5 SHL DUP2 MSTORE PUSH1 0x20 PUSH1 0x4 DUP3 ADD MSTORE PUSH1 0x1C PUSH1 0x24 DUP3 ADD MSTORE PUSH32 0x4578636565646564206D6178206D696E74207065722077616C6C657400000000 PUSH1 0x44 DUP3 ADD MSTORE PUSH1 0x64 ADD PUSH2 0xABC JUMP JUMPDEST PUSH2 0xE8C CALLER DUP4 PUSH2 0x1D4E JUMP JUMPDEST SWAP1 POP PUSH2 0xE98 PUSH1 0x1 PUSH1 0xC SSTORE JUMP JUMPDEST SWAP2 SWAP1 POP JUMP JUMPDEST PUSH1 0x1 PUSH1 0x1 PUSH1 0xA0 SHL SUB DUP3 AND PUSH2 0xEC7 JUMPI PUSH1 0x40 MLOAD PUSH4 0x32505749 PUSH1 0xE1 SHL DUP2 MSTORE PUSH1 0x0 PUSH1 0x4 DUP3 ADD MSTORE PUSH1 0x24 ADD PUSH2 0xABC JUMP JUMPDEST PUSH1 0x0 PUSH2 0xED4 DUP4 DUP4 CALLER PUSH2 0x1E84 JUMP JUMPDEST SWAP1 POP DUP4 PUSH1 0x1 PUSH1 0x1 PUSH1 0xA0 SHL SUB AND DUP2 PUSH1 0x1 PUSH1 0x1 PUSH1 0xA0 SHL SUB AND EQ PUSH2 0xF22 JUMPI PUSH1 0x40 MLOAD PUSH4 0x64283D7B PUSH1 0xE0 SHL DUP2 MSTORE PUSH1 0x1 PUSH1 0x1 PUSH1 0xA0 SHL SUB DUP1 DUP7 AND PUSH1 0x4 DUP4 ADD MSTORE PUSH1 0x24 DUP3 ADD DUP5 SWAP1 MSTORE DUP3 AND PUSH1 0x44 DUP3 ADD MSTORE PUSH1 0x64 ADD PUSH2 0xABC JUMP JUMPDEST POP POP POP POP JUMP JUMPDEST PUSH1 0x16 SLOAD PUSH1 0x1 PUSH1 0x1 PUSH1 0xA0 SHL SUB DUP2 AND SWAP1 PUSH1 0x0 SWAP1 PUSH2 0x2710 SWAP1 PUSH2 0xF57 SWAP1 PUSH1 0x1 PUSH1 0xA0 SHL SWAP1 DIV PUSH1 0x1 PUSH1 0x1 PUSH1 0x60 SHL SUB AND DUP6 PUSH2 0x3028 JUMP JUMPDEST PUSH2 0xF61 SWAP2 SWAP1 PUSH2 0x303F JUMP JUMPDEST SWAP1 POP SWAP3 POP SWAP3 SWAP1 POP JUMP JUMPDEST PUSH1 0x0 PUSH2 0xF75 DUP4 PUSH2 0x12F2 JUMP JUMPDEST DUP3 LT PUSH2 0xFA6 JUMPI PUSH1 0x40 MLOAD PUSH4 0x295F44F7 PUSH1 0xE2 SHL DUP2 MSTORE PUSH1 0x1 PUSH1 0x1 PUSH1 0xA0 SHL SUB DUP5 AND PUSH1 0x4 DUP3 ADD MSTORE PUSH1 0x24 DUP2 ADD DUP4 SWAP1 MSTORE PUSH1 0x44 ADD PUSH2 0xABC JUMP JUMPDEST POP PUSH1 0x1 PUSH1 0x1 PUSH1 0xA0 SHL SUB SWAP2 SWAP1 SWAP2 AND PUSH1 0x0 SWAP1 DUP2 MSTORE PUSH1 0x7 PUSH1 0x20 SWAP1 DUP2 MSTORE PUSH1 0x40 DUP1 DUP4 KECCAK256 SWAP4 DUP4 MSTORE SWAP3 SWAP1 MSTORE KECCAK256 SLOAD SWAP1 JUMP JUMPDEST PUSH2 0xFD7 PUSH2 0x1D21 JUMP JUMPDEST PUSH2 0xFDF PUSH2 0x1E14 JUMP JUMPDEST SELFBALANCE DUP1 PUSH2 0x1024 JUMPI PUSH1 0x40 MLOAD PUSH3 0x461BCD PUSH1 0xE5 SHL DUP2 MSTORE PUSH1 0x20 PUSH1 0x4 DUP3 ADD MSTORE PUSH1 0x14 PUSH1 0x24 DUP3 ADD MSTORE PUSH20 0x4E6F2066756E647320746F207769746864726177 PUSH1 0x60 SHL PUSH1 0x44 DUP3 ADD MSTORE PUSH1 0x64 ADD PUSH2 0xABC JUMP JUMPDEST PUSH1 0x0 PUSH2 0x1038 PUSH1 0xB SLOAD PUSH1 0x1 PUSH1 0x1 PUSH1 0xA0 SHL SUB AND SWAP1 JUMP JUMPDEST PUSH1 0x1 PUSH1 0x1 PUSH1 0xA0 SHL SUB AND DUP3 PUSH1 0x40 MLOAD PUSH1 0x0 PUSH1 0x40 MLOAD DUP1 DUP4 SUB DUP2 DUP6 DUP8 GAS CALL SWAP3 POP POP POP RETURNDATASIZE DUP1 PUSH1 0x0 DUP2 EQ PUSH2 0x1082 JUMPI PUSH1 0x40 MLOAD SWAP2 POP PUSH1 0x1F NOT PUSH1 0x3F RETURNDATASIZE ADD AND DUP3 ADD PUSH1 0x40 MSTORE RETURNDATASIZE DUP3 MSTORE RETURNDATASIZE PUSH1 0x0 PUSH1 0x20 DUP5 ADD RETURNDATACOPY PUSH2 0x1087 JUMP JUMPDEST PUSH1 0x60 SWAP2 POP JUMPDEST POP POP SWAP1 POP DUP1 PUSH2 0x10CC JUMPI PUSH1 0x40 MLOAD PUSH3 0x461BCD PUSH1 0xE5 SHL DUP2 MSTORE PUSH1 0x20 PUSH1 0x4 DUP3 ADD MSTORE PUSH1 0x11 PUSH1 0x24 DUP3 ADD MSTORE PUSH17 0x15DA5D1A191C985DD85B0819985A5B1959 PUSH1 0x7A SHL PUSH1 0x44 DUP3 ADD MSTORE PUSH1 0x64 ADD PUSH2 0xABC JUMP JUMPDEST PUSH1 0xB SLOAD PUSH1 0x1 PUSH1 0x1 PUSH1 0xA0 SHL SUB AND PUSH1 0x1 PUSH1 0x1 PUSH1 0xA0 SHL SUB AND PUSH32 0x7084F5476618D8E60B11EF0D7D3F06914655ADB8793E28FF7F018D4C76D505D5 DUP4 PUSH1 0x40 MLOAD PUSH2 0x1112 SWAP2 DUP2 MSTORE PUSH1 0x20 ADD SWAP1 JUMP JUMPDEST PUSH1 0x40 MLOAD DUP1 SWAP2 SUB SWAP1 LOG2 POP POP PUSH2 0x1126 PUSH1 0x1 PUSH1 0xC SSTORE JUMP JUMPDEST JUMP JUMPDEST PUSH2 0x1130 PUSH2 0x1D21 JUMP JUMPDEST PUSH1 0x13 DUP1 SLOAD PUSH1 0xFF PUSH2 0x100 DUP1 DUP4 DIV DUP3 AND ISZERO DUP2 MUL PUSH2 0xFF00 NOT SWAP1 SWAP4 AND SWAP3 SWAP1 SWAP3 OR SWAP3 DUP4 SWAP1 SSTORE PUSH1 0x40 MLOAD PUSH32 0xA81E445DAC2343503DC87E4663774817434721DB7D985310A6959766E6D4480E SWAP4 PUSH2 0x1188 SWAP4 SWAP1 DIV SWAP1 SWAP2 AND ISZERO ISZERO DUP2 MSTORE PUSH1 0x20 ADD SWAP1 JUMP JUMPDEST PUSH1 0x40 MLOAD DUP1 SWAP2 SUB SWAP1 LOG1 JUMP JUMPDEST PUSH2 0x11AD DUP4 DUP4 DUP4 PUSH1 0x40 MLOAD DUP1 PUSH1 0x20 ADD PUSH1 0x40 MSTORE DUP1 PUSH1 0x0 DUP2 MSTORE POP PUSH2 0x166C JUMP JUMPDEST POP POP POP JUMP JUMPDEST PUSH2 0x11BA PUSH2 0x1D21 JUMP JUMPDEST PUSH1 0x13 DUP1 SLOAD PUSH2 0xFFFF NOT AND PUSH2 0x101 OR SWAP1 SSTORE JUMP JUMPDEST PUSH1 0x0 PUSH2 0x11D6 PUSH1 0xD SLOAD SWAP1 JUMP JUMPDEST DUP3 LT PUSH2 0x11FF JUMPI PUSH1 0x40 MLOAD PUSH4 0x295F44F7 PUSH1 0xE2 SHL DUP2 MSTORE PUSH1 0x0 PUSH1 0x4 DUP3 ADD MSTORE PUSH1 0x24 DUP2 ADD DUP4 SWAP1 MSTORE PUSH1 0x44 ADD PUSH2 0xABC JUMP JUMPDEST PUSH1 0x9 DUP3 DUP2 SLOAD DUP2 LT PUSH2 0x1212 JUMPI PUSH2 0x1212 PUSH2 0x3061 JUMP JUMPDEST SWAP1 PUSH1 0x0 MSTORE PUSH1 0x20 PUSH1 0x0 KECCAK256 ADD SLOAD SWAP1 POP SWAP2 SWAP1 POP JUMP JUMPDEST PUSH2 0x122C PUSH2 0x1D21 JUMP JUMPDEST PUSH1 0x13 DUP1 SLOAD PUSH2 0xFFFF NOT AND SWAP1 SSTORE JUMP JUMPDEST PUSH2 0x1241 PUSH2 0x1D21 JUMP JUMPDEST PUSH1 0xE PUSH2 0x124D DUP3 DUP3 PUSH2 0x30C5 JUMP JUMPDEST POP PUSH32 0x6741B2FC379FAD678116FE3D4D4B9A1A184AB53BA36B86AD0FA66340B1AB41AD DUP2 PUSH1 0x40 MLOAD PUSH2 0x127D SWAP2 SWAP1 PUSH2 0x2C0B JUMP JUMPDEST PUSH1 0x40 MLOAD DUP1 SWAP2 SUB SWAP1 LOG1 POP JUMP JUMPDEST PUSH1 0x0 PUSH2 0xAD2 DUP3 PUSH2 0x1E3E JUMP JUMPDEST PUSH2 0x129B PUSH2 0x1D21 JUMP JUMPDEST PUSH1 0xD SLOAD DUP2 LT ISZERO PUSH2 0x12ED JUMPI PUSH1 0x40 MLOAD PUSH3 0x461BCD PUSH1 0xE5 SHL DUP2 MSTORE PUSH1 0x20 PUSH1 0x4 DUP3 ADD MSTORE PUSH1 0x1F PUSH1 0x24 DUP3 ADD MSTORE PUSH32 0x43616E6E6F74207365742062656C6F772063757272656E7420737570706C7900 PUSH1 0x44 DUP3 ADD MSTORE PUSH1 0x64 ADD PUSH2 0xABC JUMP JUMPDEST PUSH1 0x11 SSTORE JUMP JUMPDEST PUSH1 0x0 PUSH1 0x1 PUSH1 0x1 PUSH1 0xA0 SHL SUB DUP3 AND PUSH2 0x131E JUMPI PUSH1 0x40 MLOAD PUSH4 0x22718AD9 PUSH1 0xE2 SHL DUP2 MSTORE PUSH1 0x0 PUSH1 0x4 DUP3 ADD MSTORE PUSH1 0x24 ADD PUSH2 0xABC JUMP JUMPDEST POP PUSH1 0x1 PUSH1 0x1 PUSH1 0xA0 SHL SUB AND PUSH1 0x0 SWAP1 DUP2 MSTORE PUSH1 0x3 PUSH1 0x20 MSTORE PUSH1 0x40 SWAP1 KECCAK256 SLOAD SWAP1 JUMP JUMPDEST PUSH2 0x1342 PUSH2 0x1D21 JUMP JUMPDEST PUSH2 0x1126 PUSH1 0x0 PUSH2 0x1E99 JUMP JUMPDEST PUSH2 0x1354 PUSH2 0x1D21 JUMP JUMPDEST PUSH1 0x13 DUP1 SLOAD PUSH1 0xFF DUP1 DUP3 AND ISZERO PUSH1 0xFF NOT SWAP1 SWAP3 AND DUP3 OR SWAP1 SWAP3 SSTORE PUSH1 0x40 MLOAD SWAP2 AND ISZERO ISZERO DUP2 MSTORE PUSH32 0x6BDFE227D5DB299C59AA56D5F846F40DBD73B271AAA78E18ED74FC3E00B8AA6B SWAP1 PUSH1 0x20 ADD PUSH2 0x1188 JUMP JUMPDEST PUSH1 0x1 PUSH1 0x1 PUSH1 0xA0 SHL SUB DUP2 AND PUSH1 0x0 SWAP1 DUP2 MSTORE PUSH1 0x15 PUSH1 0x20 MSTORE PUSH1 0x40 DUP2 KECCAK256 SLOAD PUSH1 0x12 SLOAD SWAP1 SWAP2 SWAP1 DUP2 SWAP1 DUP2 SWAP1 PUSH2 0x13CA SWAP1 DUP6 SWAP1 PUSH2 0x3185 JUMP JUMPDEST PUSH1 0x1 PUSH1 0x1 PUSH1 0xA0 SHL SUB SWAP1 SWAP6 AND PUSH1 0x0 SWAP1 DUP2 MSTORE PUSH1 0x14 PUSH1 0x20 MSTORE PUSH1 0x40 SWAP1 KECCAK256 SLOAD PUSH1 0x10 SLOAD SWAP5 SWAP7 PUSH1 0xFF SWAP1 SWAP2 AND SWAP5 SWAP4 POP SWAP2 POP POP JUMP JUMPDEST PUSH1 0x60 PUSH1 0x0 PUSH2 0x1403 DUP4 PUSH2 0x12F2 JUMP JUMPDEST SWAP1 POP PUSH1 0x0 DUP2 PUSH8 0xFFFFFFFFFFFFFFFF DUP2 GT ISZERO PUSH2 0x1420 JUMPI PUSH2 0x1420 PUSH2 0x2A1F JUMP JUMPDEST PUSH1 0x40 MLOAD SWAP1 DUP1 DUP3 MSTORE DUP1 PUSH1 0x20 MUL PUSH1 0x20 ADD DUP3 ADD PUSH1 0x40 MSTORE DUP1 ISZERO PUSH2 0x1449 JUMPI DUP2 PUSH1 0x20 ADD PUSH1 0x20 DUP3 MUL DUP1 CALLDATASIZE DUP4 CALLDATACOPY ADD SWAP1 POP JUMPDEST POP SWAP1 POP PUSH1 0x0 JUMPDEST DUP3 DUP2 LT ISZERO PUSH2 0x1490 JUMPI PUSH2 0x1461 DUP6 DUP3 PUSH2 0xF6A JUMP JUMPDEST DUP3 DUP3 DUP2 MLOAD DUP2 LT PUSH2 0x1473 JUMPI PUSH2 0x1473 PUSH2 0x3061 JUMP JUMPDEST PUSH1 0x20 SWAP1 DUP2 MUL SWAP2 SWAP1 SWAP2 ADD ADD MSTORE DUP1 PUSH2 0x1488 DUP2 PUSH2 0x3198 JUMP JUMPDEST SWAP2 POP POP PUSH2 0x144F JUMP JUMPDEST POP SWAP4 SWAP3 POP POP POP JUMP JUMPDEST PUSH2 0x14A0 PUSH2 0x1D21 JUMP JUMPDEST PUSH1 0x1 PUSH1 0x1 PUSH1 0xA0 SHL SUB DUP2 AND PUSH1 0x0 DUP2 DUP2 MSTORE PUSH1 0x14 PUSH1 0x20 SWAP1 DUP2 MSTORE PUSH1 0x40 DUP1 DUP4 KECCAK256 DUP1 SLOAD PUSH1 0xFF NOT AND SWAP1 SSTORE MLOAD SWAP2 DUP3 MSTORE PUSH32 0xF93F9A76C1BF3444D22400A00CB9FE990E6ABE9DBB333FDA48859CFEE864543D SWAP2 ADD JUMPDEST PUSH1 0x40 MLOAD DUP1 SWAP2 SUB SWAP1 LOG2 POP JUMP JUMPDEST PUSH1 0x0 PUSH1 0x60 DUP2 DUP1 PUSH2 0x151B DUP6 PUSH1 0x0 SWAP1 DUP2 MSTORE PUSH1 0x2 PUSH1 0x20 MSTORE PUSH1 0x40 SWAP1 KECCAK256 SLOAD PUSH1 0x1 PUSH1 0x1 PUSH1 0xA0 SHL SUB AND SWAP1 JUMP JUMPDEST PUSH1 0x1 PUSH1 0x1 PUSH1 0xA0 SHL SUB AND EQ DUP1 ISZERO SWAP2 POP PUSH2 0x1544 JUMPI PUSH2 0x1536 DUP5 PUSH2 0x1288 JUMP JUMPDEST SWAP3 POP PUSH2 0x1541 DUP5 PUSH2 0x1683 JUMP JUMPDEST SWAP2 POP JUMPDEST SWAP2 SWAP4 SWAP1 SWAP3 POP JUMP JUMPDEST PUSH2 0x1553 PUSH2 0x1D21 JUMP JUMPDEST PUSH1 0xF PUSH2 0xD7E DUP3 DUP3 PUSH2 0x30C5 JUMP JUMPDEST PUSH1 0x60 PUSH1 0x1 DUP1 SLOAD PUSH2 0xCC7 SWAP1 PUSH2 0x2FAB JUMP JUMPDEST PUSH2 0xD7E CALLER DUP4 DUP4 PUSH2 0x1EEB JUMP JUMPDEST PUSH2 0x1581 PUSH2 0x1D21 JUMP JUMPDEST PUSH1 0x0 JUMPDEST DUP2 DUP2 LT ISZERO PUSH2 0x11AD JUMPI PUSH1 0x1 PUSH1 0x14 PUSH1 0x0 DUP6 DUP6 DUP6 DUP2 DUP2 LT PUSH2 0x15A4 JUMPI PUSH2 0x15A4 PUSH2 0x3061 JUMP JUMPDEST SWAP1 POP PUSH1 0x20 MUL ADD PUSH1 0x20 DUP2 ADD SWAP1 PUSH2 0x15B9 SWAP2 SWAP1 PUSH2 0x2CDB JUMP JUMPDEST PUSH1 0x1 PUSH1 0x1 PUSH1 0xA0 SHL SUB AND DUP2 MSTORE PUSH1 0x20 DUP2 ADD SWAP2 SWAP1 SWAP2 MSTORE PUSH1 0x40 ADD PUSH1 0x0 KECCAK256 DUP1 SLOAD PUSH1 0xFF NOT AND SWAP2 ISZERO ISZERO SWAP2 SWAP1 SWAP2 OR SWAP1 SSTORE DUP3 DUP3 DUP3 DUP2 DUP2 LT PUSH2 0x15F3 JUMPI PUSH2 0x15F3 PUSH2 0x3061 JUMP JUMPDEST SWAP1 POP PUSH1 0x20 MUL ADD PUSH1 0x20 DUP2 ADD SWAP1 PUSH2 0x1608 SWAP2 SWAP1 PUSH2 0x2CDB JUMP JUMPDEST PUSH1 0x1 PUSH1 0x1 PUSH1 0xA0 SHL SUB AND PUSH32 0xF93F9A76C1BF3444D22400A00CB9FE990E6ABE9DBB333FDA48859CFEE864543D PUSH1 0x1 PUSH1 0x40 MLOAD PUSH2 0x1645 SWAP2 ISZERO ISZERO DUP2 MSTORE PUSH1 0x20 ADD SWAP1 JUMP JUMPDEST PUSH1 0x40 MLOAD DUP1 SWAP2 SUB SWAP1 LOG2 DUP1 PUSH2 0x1657 DUP2 PUSH2 0x3198 JUMP JUMPDEST SWAP2 POP POP PUSH2 0x1584 JUMP JUMPDEST PUSH2 0x1667 PUSH2 0x1D21 JUMP JUMPDEST PUSH1 0x12 SSTORE JUMP JUMPDEST PUSH2 0x1677 DUP5 DUP5 DUP5 PUSH2 0xE9D JUMP JUMPDEST PUSH2 0xF22 DUP5 DUP5 DUP5 DUP5 PUSH2 0x1F8A JUMP JUMPDEST PUSH1 0x60 PUSH2 0xAD2 DUP3 PUSH2 0x20B3 JUMP JUMPDEST PUSH1 0xE DUP1 SLOAD PUSH2 0x169B SWAP1 PUSH2 0x2FAB JUMP JUMPDEST DUP1 PUSH1 0x1F ADD PUSH1 0x20 DUP1 SWAP2 DIV MUL PUSH1 0x20 ADD PUSH1 0x40 MLOAD SWAP1 DUP2 ADD PUSH1 0x40 MSTORE DUP1 SWAP3 SWAP2 SWAP1 DUP2 DUP2 MSTORE PUSH1 0x20 ADD DUP3 DUP1 SLOAD PUSH2 0x16C7 SWAP1 PUSH2 0x2FAB JUMP JUMPDEST DUP1 ISZERO PUSH2 0x1714 JUMPI DUP1 PUSH1 0x1F LT PUSH2 0x16E9 JUMPI PUSH2 0x100 DUP1 DUP4 SLOAD DIV MUL DUP4 MSTORE SWAP2 PUSH1 0x20 ADD SWAP2 PUSH2 0x1714 JUMP JUMPDEST DUP3 ADD SWAP2 SWAP1 PUSH1 0x0 MSTORE PUSH1 0x20 PUSH1 0x0 KECCAK256 SWAP1 JUMPDEST DUP2 SLOAD DUP2 MSTORE SWAP1 PUSH1 0x1 ADD SWAP1 PUSH1 0x20 ADD DUP1 DUP4 GT PUSH2 0x16F7 JUMPI DUP3 SWAP1 SUB PUSH1 0x1F AND DUP3 ADD SWAP2 JUMPDEST POP POP POP POP POP DUP2 JUMP JUMPDEST PUSH1 0x0 PUSH2 0x1726 PUSH2 0x1E14 JUMP JUMPDEST PUSH1 0x13 SLOAD PUSH1 0xFF AND PUSH2 0x1748 JUMPI PUSH1 0x40 MLOAD PUSH3 0x461BCD PUSH1 0xE5 SHL DUP2 MSTORE PUSH1 0x4 ADD PUSH2 0xABC SWAP1 PUSH2 0x2FE5 JUMP JUMPDEST PUSH1 0x13 SLOAD PUSH2 0x100 SWAP1 DIV PUSH1 0xFF AND DUP1 PUSH2 0x176D JUMPI POP CALLER PUSH1 0x0 SWAP1 DUP2 MSTORE PUSH1 0x14 PUSH1 0x20 MSTORE PUSH1 0x40 SWAP1 KECCAK256 SLOAD PUSH1 0xFF AND JUMPDEST PUSH2 0x17B3 JUMPI PUSH1 0x40 MLOAD PUSH3 0x461BCD PUSH1 0xE5 SHL DUP2 MSTORE PUSH1 0x20 PUSH1 0x4 DUP3 ADD MSTORE PUSH1 0x17 PUSH1 0x24 DUP3 ADD MSTORE PUSH23 0x141D589B1A58C81B5A5B9D081B9BDD08195B98589B1959 PUSH1 0x4A SHL PUSH1 0x44 DUP3 ADD MSTORE PUSH1 0x64 ADD PUSH2 0xABC JUMP JUMPDEST PUSH1 0x11 SLOAD PUSH1 0xD SLOAD LT PUSH2 0x17D6 JUMPI PUSH1 0x40 MLOAD PUSH3 0x461BCD PUSH1 0xE5 SHL DUP2 MSTORE PUSH1 0x4 ADD PUSH2 0xABC SWAP1 PUSH2 0x2F7F JUMP JUMPDEST PUSH1 0x10 SLOAD CALLVALUE LT ISZERO PUSH2 0x181F JUMPI PUSH1 0x40 MLOAD PUSH3 0x461BCD PUSH1 0xE5 SHL DUP2 MSTORE PUSH1 0x20 PUSH1 0x4 DUP3 ADD MSTORE PUSH1 0x14 PUSH1 0x24 DUP3 ADD MSTORE PUSH20 0x125B9CDD59999A58DA595B9D081C185E5B595B9D PUSH1 0x62 SHL PUSH1 0x44 DUP3 ADD MSTORE PUSH1 0x64 ADD PUSH2 0xABC JUMP JUMPDEST PUSH1 0x12 SLOAD CALLER PUSH1 0x0 SWAP1 DUP2 MSTORE PUSH1 0x15 PUSH1 0x20 MSTORE PUSH1 0x40 SWAP1 KECCAK256 SLOAD LT PUSH2 0x187F JUMPI PUSH1 0x40 MLOAD PUSH3 0x461BCD PUSH1 0xE5 SHL DUP2 MSTORE PUSH1 0x20 PUSH1 0x4 DUP3 ADD MSTORE PUSH1 0x1C PUSH1 0x24 DUP3 ADD MSTORE PUSH32 0x4578636565646564206D6178206D696E74207065722077616C6C657400000000 PUSH1 0x44 DUP3 ADD MSTORE PUSH1 0x64 ADD PUSH2 0xABC JUMP JUMPDEST PUSH1 0x0 DUP3 MLOAD GT PUSH2 0xE82 JUMPI PUSH1 0x40 MLOAD PUSH3 0x461BCD PUSH1 0xE5 SHL DUP2 MSTORE PUSH1 0x20 PUSH1 0x4 DUP3 ADD MSTORE PUSH1 0x19 PUSH1 0x24 DUP3 ADD MSTORE PUSH32 0x546F6B656E205552492063616E6E6F7420626520656D70747900000000000000 PUSH1 0x44 DUP3 ADD MSTORE PUSH1 0x64 ADD PUSH2 0xABC JUMP JUMPDEST PUSH1 0xF DUP1 SLOAD PUSH2 0x169B SWAP1 PUSH2 0x2FAB JUMP JUMPDEST PUSH2 0x18E5 PUSH2 0x1D21 JUMP JUMPDEST PUSH1 0x1 PUSH1 0x1 PUSH1 0xA0 SHL SUB DUP2 AND PUSH1 0x0 DUP2 DUP2 MSTORE PUSH1 0x14 PUSH1 0x20 SWAP1 DUP2 MSTORE PUSH1 0x40 SWAP2 DUP3 SWAP1 KECCAK256 DUP1 SLOAD PUSH1 0xFF NOT AND PUSH1 0x1 SWAP1 DUP2 OR SWAP1 SWAP2 SSTORE SWAP2 MLOAD SWAP2 DUP3 MSTORE PUSH32 0xF93F9A76C1BF3444D22400A00CB9FE990E6ABE9DBB333FDA48859CFEE864543D SWAP2 ADD PUSH2 0x14EB JUMP JUMPDEST PUSH1 0x60 PUSH1 0xE PUSH1 0x40 MLOAD PUSH1 0x20 ADD PUSH2 0x1950 SWAP2 SWAP1 PUSH2 0x31B1 JUMP JUMPDEST PUSH1 0x40 MLOAD PUSH1 0x20 DUP2 DUP4 SUB SUB DUP2 MSTORE SWAP1 PUSH1 0x40 MSTORE SWAP1 POP SWAP1 JUMP JUMPDEST PUSH1 0x1 PUSH1 0x1 PUSH1 0xA0 SHL SUB SWAP2 DUP3 AND PUSH1 0x0 SWAP1 DUP2 MSTORE PUSH1 0x5 PUSH1 0x20 SWAP1 DUP2 MSTORE PUSH1 0x40 DUP1 DUP4 KECCAK256 SWAP4 SWAP1 SWAP5 AND DUP3 MSTORE SWAP2 SWAP1 SWAP2 MSTORE KECCAK256 SLOAD PUSH1 0xFF AND SWAP1 JUMP JUMPDEST PUSH1 0x60 PUSH2 0x199C PUSH2 0x1E14 JUMP JUMPDEST PUSH1 0x13 SLOAD PUSH1 0xFF AND PUSH2 0x19BE JUMPI PUSH1 0x40 MLOAD PUSH3 0x461BCD PUSH1 0xE5 SHL DUP2 MSTORE PUSH1 0x4 ADD PUSH2 0xABC SWAP1 PUSH2 0x2FE5 JUMP JUMPDEST PUSH1 0x13 SLOAD PUSH2 0x100 SWAP1 DIV PUSH1 0xFF AND DUP1 PUSH2 0x19E3 JUMPI POP CALLER PUSH1 0x0 SWAP1 DUP2 MSTORE PUSH1 0x14 PUSH1 0x20 MSTORE PUSH1 0x40 SWAP1 KECCAK256 SLOAD PUSH1 0xFF AND JUMPDEST PUSH2 0x1A29 JUMPI PUSH1 0x40 MLOAD PUSH3 0x461BCD PUSH1 0xE5 SHL DUP2 MSTORE PUSH1 0x20 PUSH1 0x4 DUP3 ADD MSTORE PUSH1 0x17 PUSH1 0x24 DUP3 ADD MSTORE PUSH23 0x141D589B1A58C81B5A5B9D081B9BDD08195B98589B1959 PUSH1 0x4A SHL PUSH1 0x44 DUP3 ADD MSTORE PUSH1 0x64 ADD PUSH2 0xABC JUMP JUMPDEST PUSH1 0x0 DUP3 MLOAD GT PUSH2 0x1A71 JUMPI PUSH1 0x40 MLOAD PUSH3 0x461BCD PUSH1 0xE5 SHL DUP2 MSTORE PUSH1 0x20 PUSH1 0x4 DUP3 ADD MSTORE PUSH1 0x14 PUSH1 0x24 DUP3 ADD MSTORE PUSH20 0x4D757374206D696E74206174206C656173742031 PUSH1 0x60 SHL PUSH1 0x44 DUP3 ADD MSTORE PUSH1 0x64 ADD PUSH2 0xABC JUMP JUMPDEST PUSH1 0x14 DUP3 MLOAD GT ISZERO PUSH2 0x1AC3 JUMPI PUSH1 0x40 MLOAD PUSH3 0x461BCD PUSH1 0xE5 SHL DUP2 MSTORE PUSH1 0x20 PUSH1 0x4 DUP3 ADD MSTORE PUSH1 0x1A PUSH1 0x24 DUP3 ADD MSTORE PUSH32 0x4D6178696D756D20323020706572207472616E73616374696F6E000000000000 PUSH1 0x44 DUP3 ADD MSTORE PUSH1 0x64 ADD PUSH2 0xABC JUMP JUMPDEST PUSH1 0x11 SLOAD DUP3 MLOAD PUSH1 0xD SLOAD PUSH2 0x1AD5 SWAP2 SWAP1 PUSH2 0x323E JUMP JUMPDEST GT ISZERO PUSH2 0x1B23 JUMPI PUSH1 0x40 MLOAD PUSH3 0x461BCD PUSH1 0xE5 SHL DUP2 MSTORE PUSH1 0x20 PUSH1 0x4 DUP3 ADD MSTORE PUSH1 0x17 PUSH1 0x24 DUP3 ADD MSTORE PUSH32 0x576F756C6420657863656564206D617820737570706C79000000000000000000 PUSH1 0x44 DUP3 ADD MSTORE PUSH1 0x64 ADD PUSH2 0xABC JUMP JUMPDEST DUP2 MLOAD PUSH1 0x10 SLOAD PUSH2 0x1B32 SWAP2 SWAP1 PUSH2 0x3028 JUMP JUMPDEST CALLVALUE LT ISZERO PUSH2 0x1B78 JUMPI PUSH1 0x40 MLOAD PUSH3 0x461BCD PUSH1 0xE5 SHL DUP2 MSTORE PUSH1 0x20 PUSH1 0x4 DUP3 ADD MSTORE PUSH1 0x14 PUSH1 0x24 DUP3 ADD MSTORE PUSH20 0x125B9CDD59999A58DA595B9D081C185E5B595B9D PUSH1 0x62 SHL PUSH1 0x44 DUP3 ADD MSTORE PUSH1 0x64 ADD PUSH2 0xABC JUMP JUMPDEST PUSH1 0x12 SLOAD DUP3 MLOAD CALLER PUSH1 0x0 SWAP1 DUP2 MSTORE PUSH1 0x15 PUSH1 0x20 MSTORE PUSH1 0x40 SWAP1 KECCAK256 SLOAD PUSH2 0x1B97 SWAP2 SWAP1 PUSH2 0x323E JUMP JUMPDEST GT ISZERO PUSH2 0x1BE5 JUMPI PUSH1 0x40 MLOAD PUSH3 0x461BCD PUSH1 0xE5 SHL DUP2 MSTORE PUSH1 0x20 PUSH1 0x4 DUP3 ADD DUP2 SWAP1 MSTORE PUSH1 0x24 DUP3 ADD MSTORE PUSH32 0x576F756C6420657863656564206D6178206D696E74207065722077616C6C6574 PUSH1 0x44 DUP3 ADD MSTORE PUSH1 0x64 ADD PUSH2 0xABC JUMP JUMPDEST PUSH1 0x0 DUP3 MLOAD PUSH8 0xFFFFFFFFFFFFFFFF DUP2 GT ISZERO PUSH2 0x1C01 JUMPI PUSH2 0x1C01 PUSH2 0x2A1F JUMP JUMPDEST PUSH1 0x40 MLOAD SWAP1 DUP1 DUP3 MSTORE DUP1 PUSH1 0x20 MUL PUSH1 0x20 ADD DUP3 ADD PUSH1 0x40 MSTORE DUP1 ISZERO PUSH2 0x1C2A JUMPI DUP2 PUSH1 0x20 ADD PUSH1 0x20 DUP3 MUL DUP1 CALLDATASIZE DUP4 CALLDATACOPY ADD SWAP1 POP JUMPDEST POP SWAP1 POP PUSH1 0x0 JUMPDEST DUP4 MLOAD DUP2 LT ISZERO PUSH2 0x1C8B JUMPI PUSH2 0x1C5C CALLER DUP6 DUP4 DUP2 MLOAD DUP2 LT PUSH2 0x1C4F JUMPI PUSH2 0x1C4F PUSH2 0x3061 JUMP JUMPDEST PUSH1 0x20 MUL PUSH1 0x20 ADD ADD MLOAD PUSH2 0x1D4E JUMP JUMPDEST DUP3 DUP3 DUP2 MLOAD DUP2 LT PUSH2 0x1C6E JUMPI PUSH2 0x1C6E PUSH2 0x3061 JUMP JUMPDEST PUSH1 0x20 SWAP1 DUP2 MUL SWAP2 SWAP1 SWAP2 ADD ADD MSTORE DUP1 PUSH2 0x1C83 DUP2 PUSH2 0x3198 JUMP JUMPDEST SWAP2 POP POP PUSH2 0x1C30 JUMP JUMPDEST POP SWAP1 POP PUSH2 0xE98 PUSH1 0x1 PUSH1 0xC SSTORE JUMP JUMPDEST PUSH2 0x1CA0 PUSH2 0x1D21 JUMP JUMPDEST PUSH1 0x1 PUSH1 0x1 PUSH1 0xA0 SHL SUB DUP2 AND PUSH2 0x1CCA JUMPI PUSH1 0x40 MLOAD PUSH4 0x1E4FBDF7 PUSH1 0xE0 SHL DUP2 MSTORE PUSH1 0x0 PUSH1 0x4 DUP3 ADD MSTORE PUSH1 0x24 ADD PUSH2 0xABC JUMP JUMPDEST PUSH2 0xCB5 DUP2 PUSH2 0x1E99 JUMP JUMPDEST PUSH2 0x1CDB PUSH2 0x1D21 JUMP JUMPDEST PUSH1 0x10 DUP1 SLOAD SWAP1 DUP3 SWAP1 SSTORE PUSH1 0x40 DUP1 MLOAD DUP3 DUP2 MSTORE PUSH1 0x20 DUP2 ADD DUP5 SWAP1 MSTORE PUSH32 0x2E1C9E000C6E8DDA4D03536ADB13B7CB6034CCFF90D17F01DE381E4D5097B525 SWAP2 ADD JUMPDEST PUSH1 0x40 MLOAD DUP1 SWAP2 SUB SWAP1 LOG1 POP POP JUMP JUMPDEST PUSH1 0xB SLOAD PUSH1 0x1 PUSH1 0x1 PUSH1 0xA0 SHL SUB AND CALLER EQ PUSH2 0x1126 JUMPI PUSH1 0x40 MLOAD PUSH4 0x118CDAA7 PUSH1 0xE0 SHL DUP2 MSTORE CALLER PUSH1 0x4 DUP3 ADD MSTORE PUSH1 0x24 ADD PUSH2 0xABC JUMP JUMPDEST PUSH1 0xD DUP1 SLOAD PUSH1 0x0 SWAP2 DUP3 PUSH2 0x1D5F DUP4 PUSH2 0x3198 JUMP JUMPDEST SWAP1 SWAP2 SSTORE POP POP PUSH1 0xD SLOAD PUSH2 0x1D71 DUP5 DUP3 PUSH2 0x21AF JUMP JUMPDEST PUSH2 0x1D7B DUP2 DUP5 PUSH2 0x21C9 JUMP JUMPDEST PUSH1 0x1 PUSH1 0x1 PUSH1 0xA0 SHL SUB DUP5 AND PUSH1 0x0 SWAP1 DUP2 MSTORE PUSH1 0x15 PUSH1 0x20 MSTORE PUSH1 0x40 DUP2 KECCAK256 DUP1 SLOAD SWAP2 PUSH2 0x1D9F DUP4 PUSH2 0x3198 JUMP JUMPDEST SWAP2 SWAP1 POP SSTORE POP DUP1 DUP5 PUSH1 0x1 PUSH1 0x1 PUSH1 0xA0 SHL SUB AND PUSH32 0x7F9DD5D8FA69E733DB2277A568B65A9651A3042DA18FB2B5EA1966D3891CBFDA DUP6 CALLVALUE PUSH1 0x40 MLOAD PUSH2 0x1DE0 SWAP3 SWAP2 SWAP1 PUSH2 0x3251 JUMP JUMPDEST PUSH1 0x40 MLOAD DUP1 SWAP2 SUB SWAP1 LOG3 SWAP4 SWAP3 POP POP POP JUMP JUMPDEST PUSH1 0x0 PUSH1 0x1 PUSH1 0x1 PUSH1 0xE0 SHL SUB NOT DUP3 AND PUSH4 0x780E9D63 PUSH1 0xE0 SHL EQ DUP1 PUSH2 0xAD2 JUMPI POP PUSH2 0xAD2 DUP3 PUSH2 0x2212 JUMP JUMPDEST PUSH1 0x2 PUSH1 0xC SLOAD SUB PUSH2 0x1E37 JUMPI PUSH1 0x40 MLOAD PUSH4 0x3EE5AEB5 PUSH1 0xE0 SHL DUP2 MSTORE PUSH1 0x4 ADD PUSH1 0x40 MLOAD DUP1 SWAP2 SUB SWAP1 REVERT JUMPDEST PUSH1 0x2 PUSH1 0xC SSTORE JUMP JUMPDEST PUSH1 0x0 DUP2 DUP2 MSTORE PUSH1 0x2 PUSH1 0x20 MSTORE PUSH1 0x40 DUP2 KECCAK256 SLOAD PUSH1 0x1 PUSH1 0x1 PUSH1 0xA0 SHL SUB AND DUP1 PUSH2 0xAD2 JUMPI PUSH1 0x40 MLOAD PUSH4 0x7E273289 PUSH1 0xE0 SHL DUP2 MSTORE PUSH1 0x4 DUP2 ADD DUP5 SWAP1 MSTORE PUSH1 0x24 ADD PUSH2 0xABC JUMP JUMPDEST PUSH2 0x11AD DUP4 DUP4 DUP4 PUSH1 0x1 PUSH2 0x2237 JUMP JUMPDEST PUSH1 0x0 PUSH2 0x1E91 DUP5 DUP5 DUP5 PUSH2 0x233D JUMP JUMPDEST SWAP5 SWAP4 POP POP POP POP JUMP JUMPDEST PUSH1 0xB DUP1 SLOAD PUSH1 0x1 PUSH1 0x1 PUSH1 0xA0 SHL SUB DUP4 DUP2 AND PUSH1 0x1 PUSH1 0x1 PUSH1 0xA0 SHL SUB NOT DUP4 AND DUP2 OR SWAP1 SWAP4 SSTORE PUSH1 0x40 MLOAD SWAP2 AND SWAP2 SWAP1 DUP3 SWAP1 PUSH32 0x8BE0079C531659141344CD1FD0A4F28419497F9722A3DAAFE3B4186F6B6457E0 SWAP1 PUSH1 0x0 SWAP1 LOG3 POP POP JUMP JUMPDEST PUSH1 0x1 PUSH1 0x1 PUSH1 0xA0 SHL SUB DUP3 AND PUSH2 0x1F1D JUMPI PUSH1 0x40 MLOAD PUSH4 0xB611743 PUSH1 0xE3 SHL DUP2 MSTORE PUSH1 0x1 PUSH1 0x1 PUSH1 0xA0 SHL SUB DUP4 AND PUSH1 0x4 DUP3 ADD MSTORE PUSH1 0x24 ADD PUSH2 0xABC JUMP JUMPDEST PUSH1 0x1 PUSH1 0x1 PUSH1 0xA0 SHL SUB DUP4 DUP2 AND PUSH1 0x0 DUP2 DUP2 MSTORE PUSH1 0x5 PUSH1 0x20 SWAP1 DUP2 MSTORE PUSH1 0x40 DUP1 DUP4 KECCAK256 SWAP5 DUP8 AND DUP1 DUP5 MSTORE SWAP5 DUP3 MSTORE SWAP2 DUP3 SWAP1 KECCAK256 DUP1 SLOAD PUSH1 0xFF NOT AND DUP7 ISZERO ISZERO SWAP1 DUP2 OR SWAP1 SWAP2 SSTORE SWAP2 MLOAD SWAP2 DUP3 MSTORE PUSH32 0x17307EAB39AB6107E8899845AD3D59BD9653F200F220920489CA2B5937696C31 SWAP2 ADD PUSH1 0x40 MLOAD DUP1 SWAP2 SUB SWAP1 LOG3 POP POP POP JUMP JUMPDEST PUSH1 0x1 PUSH1 0x1 PUSH1 0xA0 SHL SUB DUP4 AND EXTCODESIZE ISZERO PUSH2 0xF22 JUMPI PUSH1 0x40 MLOAD PUSH4 0xA85BD01 PUSH1 0xE1 SHL DUP2 MSTORE PUSH1 0x1 PUSH1 0x1 PUSH1 0xA0 SHL SUB DUP5 AND SWAP1 PUSH4 0x150B7A02 SWAP1 PUSH2 0x1FCC SWAP1 CALLER SWAP1 DUP9 SWAP1 DUP8 SWAP1 DUP8 SWAP1 PUSH1 0x4 ADD PUSH2 0x3273 JUMP JUMPDEST PUSH1 0x20 PUSH1 0x40 MLOAD DUP1 DUP4 SUB DUP2 PUSH1 0x0 DUP8 GAS CALL SWAP3 POP POP POP DUP1 ISZERO PUSH2 0x2007 JUMPI POP PUSH1 0x40 DUP1 MLOAD PUSH1 0x1F RETURNDATASIZE SWAP1 DUP2 ADD PUSH1 0x1F NOT AND DUP3 ADD SWAP1 SWAP3 MSTORE PUSH2 0x2004 SWAP2 DUP2 ADD SWAP1 PUSH2 0x32B0 JUMP JUMPDEST PUSH1 0x1 JUMPDEST PUSH2 0x2070 JUMPI RETURNDATASIZE DUP1 DUP1 ISZERO PUSH2 0x2035 JUMPI PUSH1 0x40 MLOAD SWAP2 POP PUSH1 0x1F NOT PUSH1 0x3F RETURNDATASIZE ADD AND DUP3 ADD PUSH1 0x40 MSTORE RETURNDATASIZE DUP3 MSTORE RETURNDATASIZE PUSH1 0x0 PUSH1 0x20 DUP5 ADD RETURNDATACOPY PUSH2 0x203A JUMP JUMPDEST PUSH1 0x60 SWAP2 POP JUMPDEST POP DUP1 MLOAD PUSH1 0x0 SUB PUSH2 0x2068 JUMPI PUSH1 0x40 MLOAD PUSH4 0x32505749 PUSH1 0xE1 SHL DUP2 MSTORE PUSH1 0x1 PUSH1 0x1 PUSH1 0xA0 SHL SUB DUP6 AND PUSH1 0x4 DUP3 ADD MSTORE PUSH1 0x24 ADD PUSH2 0xABC JUMP JUMPDEST DUP1 MLOAD DUP2 PUSH1 0x20 ADD REVERT JUMPDEST PUSH1 0x1 PUSH1 0x1 PUSH1 0xE0 SHL SUB NOT DUP2 AND PUSH4 0xA85BD01 PUSH1 0xE1 SHL EQ PUSH2 0x20AC JUMPI PUSH1 0x40 MLOAD PUSH4 0x32505749 PUSH1 0xE1 SHL DUP2 MSTORE PUSH1 0x1 PUSH1 0x1 PUSH1 0xA0 SHL SUB DUP6 AND PUSH1 0x4 DUP3 ADD MSTORE PUSH1 0x24 ADD PUSH2 0xABC JUMP JUMPDEST POP POP POP POP POP JUMP JUMPDEST PUSH1 0x60 PUSH2 0x20BE DUP3 PUSH2 0x1E3E JUMP JUMPDEST POP PUSH1 0x0 DUP3 DUP2 MSTORE PUSH1 0x6 PUSH1 0x20 MSTORE PUSH1 0x40 DUP2 KECCAK256 DUP1 SLOAD PUSH2 0x20D8 SWAP1 PUSH2 0x2FAB JUMP JUMPDEST DUP1 PUSH1 0x1F ADD PUSH1 0x20 DUP1 SWAP2 DIV MUL PUSH1 0x20 ADD PUSH1 0x40 MLOAD SWAP1 DUP2 ADD PUSH1 0x40 MSTORE DUP1 SWAP3 SWAP2 SWAP1 DUP2 DUP2 MSTORE PUSH1 0x20 ADD DUP3 DUP1 SLOAD PUSH2 0x2104 SWAP1 PUSH2 0x2FAB JUMP JUMPDEST DUP1 ISZERO PUSH2 0x2151 JUMPI DUP1 PUSH1 0x1F LT PUSH2 0x2126 JUMPI PUSH2 0x100 DUP1 DUP4 SLOAD DIV MUL DUP4 MSTORE SWAP2 PUSH1 0x20 ADD SWAP2 PUSH2 0x2151 JUMP JUMPDEST DUP3 ADD SWAP2 SWAP1 PUSH1 0x0 MSTORE PUSH1 0x20 PUSH1 0x0 KECCAK256 SWAP1 JUMPDEST DUP2 SLOAD DUP2 MSTORE SWAP1 PUSH1 0x1 ADD SWAP1 PUSH1 0x20 ADD DUP1 DUP4 GT PUSH2 0x2134 JUMPI DUP3 SWAP1 SUB PUSH1 0x1F AND DUP3 ADD SWAP2 JUMPDEST POP POP POP POP POP SWAP1 POP PUSH1 0x0 PUSH2 0x2162 PUSH2 0x240A JUMP JUMPDEST SWAP1 POP DUP1 MLOAD PUSH1 0x0 SUB PUSH2 0x2174 JUMPI POP SWAP3 SWAP2 POP POP JUMP JUMPDEST DUP2 MLOAD ISZERO PUSH2 0x21A6 JUMPI DUP1 DUP3 PUSH1 0x40 MLOAD PUSH1 0x20 ADD PUSH2 0x218E SWAP3 SWAP2 SWAP1 PUSH2 0x32CD JUMP JUMPDEST PUSH1 0x40 MLOAD PUSH1 0x20 DUP2 DUP4 SUB SUB DUP2 MSTORE SWAP1 PUSH1 0x40 MSTORE SWAP3 POP POP POP SWAP2 SWAP1 POP JUMP JUMPDEST PUSH2 0x1E91 DUP5 PUSH2 0x2419 JUMP JUMPDEST PUSH2 0xD7E DUP3 DUP3 PUSH1 0x40 MLOAD DUP1 PUSH1 0x20 ADD PUSH1 0x40 MSTORE DUP1 PUSH1 0x0 DUP2 MSTORE POP PUSH2 0x2481 JUMP JUMPDEST PUSH1 0x0 DUP3 DUP2 MSTORE PUSH1 0x6 PUSH1 0x20 MSTORE PUSH1 0x40 SWAP1 KECCAK256 PUSH2 0x21E1 DUP3 DUP3 PUSH2 0x30C5 JUMP JUMPDEST POP PUSH1 0x40 MLOAD DUP3 DUP2 MSTORE PUSH32 0xF8E1A15ABA9398E019F0B49DF1A4FDE98EE17AE345CB5F6B5E2C27F5033E8CE7 SWAP1 PUSH1 0x20 ADD PUSH2 0x1D15 JUMP JUMPDEST PUSH1 0x0 PUSH1 0x1 PUSH1 0x1 PUSH1 0xE0 SHL SUB NOT DUP3 AND PUSH4 0x24832483 PUSH1 0xE1 SHL EQ DUP1 PUSH2 0xAD2 JUMPI POP PUSH2 0xAD2 DUP3 PUSH2 0x2498 JUMP JUMPDEST DUP1 DUP1 PUSH2 0x224B JUMPI POP PUSH1 0x1 PUSH1 0x1 PUSH1 0xA0 SHL SUB DUP3 AND ISZERO ISZERO JUMPDEST ISZERO PUSH2 0x230D JUMPI PUSH1 0x0 PUSH2 0x225B DUP5 PUSH2 0x1E3E JUMP JUMPDEST SWAP1 POP PUSH1 0x1 PUSH1 0x1 PUSH1 0xA0 SHL SUB DUP4 AND ISZERO DUP1 ISZERO SWAP1 PUSH2 0x2287 JUMPI POP DUP3 PUSH1 0x1 PUSH1 0x1 PUSH1 0xA0 SHL SUB AND DUP2 PUSH1 0x1 PUSH1 0x1 PUSH1 0xA0 SHL SUB AND EQ ISZERO JUMPDEST DUP1 ISZERO PUSH2 0x229A JUMPI POP PUSH2 0x2298 DUP2 DUP5 PUSH2 0x1964 JUMP JUMPDEST ISZERO JUMPDEST ISZERO PUSH2 0x22C3 JUMPI PUSH1 0x40 MLOAD PUSH4 0xA9FBF51F PUSH1 0xE0 SHL DUP2 MSTORE PUSH1 0x1 PUSH1 0x1 PUSH1 0xA0 SHL SUB DUP5 AND PUSH1 0x4 DUP3 ADD MSTORE PUSH1 0x24 ADD PUSH2 0xABC JUMP JUMPDEST DUP2 ISZERO PUSH2 0x230B JUMPI DUP4 DUP6 PUSH1 0x1 PUSH1 0x1 PUSH1 0xA0 SHL SUB AND DUP3 PUSH1 0x1 PUSH1 0x1 PUSH1 0xA0 SHL SUB AND PUSH32 0x8C5BE1E5EBEC7D5BD14F71427D1E84F3DD0314C0F7B2291E5B200AC8C7C3B925 PUSH1 0x40 MLOAD PUSH1 0x40 MLOAD DUP1 SWAP2 SUB SWAP1 LOG4 JUMPDEST POP JUMPDEST POP POP PUSH1 0x0 SWAP1 DUP2 MSTORE PUSH1 0x4 PUSH1 0x20 MSTORE PUSH1 0x40 SWAP1 KECCAK256 DUP1 SLOAD PUSH1 0x1 PUSH1 0x1 PUSH1 0xA0 SHL SUB NOT AND PUSH1 0x1 PUSH1 0x1 PUSH1 0xA0 SHL SUB SWAP3 SWAP1 SWAP3 AND SWAP2 SWAP1 SWAP2 OR SWAP1 SSTORE JUMP JUMPDEST PUSH1 0x0 DUP1 PUSH2 0x234B DUP6 DUP6 DUP6 PUSH2 0x24E8 JUMP JUMPDEST SWAP1 POP PUSH1 0x1 PUSH1 0x1 PUSH1 0xA0 SHL SUB DUP2 AND PUSH2 0x23A8 JUMPI PUSH2 0x23A3 DUP5 PUSH1 0x9 DUP1 SLOAD PUSH1 0x0 DUP4 DUP2 MSTORE PUSH1 0xA PUSH1 0x20 MSTORE PUSH1 0x40 DUP2 KECCAK256 DUP3 SWAP1 SSTORE PUSH1 0x1 DUP3 ADD DUP4 SSTORE SWAP2 SWAP1 SWAP2 MSTORE PUSH32 0x6E1540171B6C0C960B71A7020D9F60077F6AF931A8BBF590DA0223DACF75C7AF ADD SSTORE JUMP JUMPDEST PUSH2 0x23CB JUMP JUMPDEST DUP5 PUSH1 0x1 PUSH1 0x1 PUSH1 0xA0 SHL SUB AND DUP2 PUSH1 0x1 PUSH1 0x1 PUSH1 0xA0 SHL SUB AND EQ PUSH2 0x23CB JUMPI PUSH2 0x23CB DUP2 DUP6 PUSH2 0x25E1 JUMP JUMPDEST PUSH1 0x1 PUSH1 0x1 PUSH1 0xA0 SHL SUB DUP6 AND PUSH2 0x23E7 JUMPI PUSH2 0x23E2 DUP5 PUSH2 0x2672 JUMP JUMPDEST PUSH2 0x1E91 JUMP JUMPDEST DUP5 PUSH1 0x1 PUSH1 0x1 PUSH1 0xA0 SHL SUB AND DUP2 PUSH1 0x1 PUSH1 0x1 PUSH1 0xA0 SHL SUB AND EQ PUSH2 0x1E91 JUMPI PUSH2 0x1E91 DUP6 DUP6 PUSH2 0x2721 JUMP JUMPDEST PUSH1 0x60 PUSH1 0xE DUP1 SLOAD PUSH2 0xCC7 SWAP1 PUSH2 0x2FAB JUMP JUMPDEST PUSH1 0x60 PUSH2 0x2424 DUP3 PUSH2 0x1E3E JUMP JUMPDEST POP PUSH1 0x0 PUSH2 0x242F PUSH2 0x240A JUMP JUMPDEST SWAP1 POP PUSH1 0x0 DUP2 MLOAD GT PUSH2 0x244F JUMPI PUSH1 0x40 MLOAD DUP1 PUSH1 0x20 ADD PUSH1 0x40 MSTORE DUP1 PUSH1 0x0 DUP2 MSTORE POP PUSH2 0x247A JUMP JUMPDEST DUP1 PUSH2 0x2459 DUP5 PUSH2 0x2771 JUMP JUMPDEST PUSH1 0x40 MLOAD PUSH1 0x20 ADD PUSH2 0x246A SWAP3 SWAP2 SWAP1 PUSH2 0x32CD JUMP JUMPDEST PUSH1 0x40 MLOAD PUSH1 0x20 DUP2 DUP4 SUB SUB DUP2 MSTORE SWAP1 PUSH1 0x40 MSTORE JUMPDEST SWAP4 SWAP3 POP POP POP JUMP JUMPDEST PUSH2 0x248B DUP4 DUP4 PUSH2 0x2804 JUMP JUMPDEST PUSH2 0x11AD PUSH1 0x0 DUP5 DUP5 DUP5 PUSH2 0x1F8A JUMP JUMPDEST PUSH1 0x0 PUSH1 0x1 PUSH1 0x1 PUSH1 0xE0 SHL SUB NOT DUP3 AND PUSH4 0x80AC58CD PUSH1 0xE0 SHL EQ DUP1 PUSH2 0x24C9 JUMPI POP PUSH1 0x1 PUSH1 0x1 PUSH1 0xE0 SHL SUB NOT DUP3 AND PUSH4 0x5B5E139F PUSH1 0xE0 SHL EQ JUMPDEST DUP1 PUSH2 0xAD2 JUMPI POP PUSH4 0x1FFC9A7 PUSH1 0xE0 SHL PUSH1 0x1 PUSH1 0x1 PUSH1 0xE0 SHL SUB NOT DUP4 AND EQ PUSH2 0xAD2 JUMP JUMPDEST PUSH1 0x0 DUP3 DUP2 MSTORE PUSH1 0x2 PUSH1 0x20 MSTORE PUSH1 0x40 DUP2 KECCAK256 SLOAD PUSH1 0x1 PUSH1 0x1 PUSH1 0xA0 SHL SUB SWAP1 DUP2 AND SWAP1 DUP4 AND ISZERO PUSH2 0x2515 JUMPI PUSH2 0x2515 DUP2 DUP5 DUP7 PUSH2 0x2869 JUMP JUMPDEST PUSH1 0x1 PUSH1 0x1 PUSH1 0xA0 SHL SUB DUP2 AND ISZERO PUSH2 0x2553 JUMPI PUSH2 0x2532 PUSH1 0x0 DUP6 PUSH1 0x0 DUP1 PUSH2 0x2237 JUMP JUMPDEST PUSH1 0x1 PUSH1 0x1 PUSH1 0xA0 SHL SUB DUP2 AND PUSH1 0x0 SWAP1 DUP2 MSTORE PUSH1 0x3 PUSH1 0x20 MSTORE PUSH1 0x40 SWAP1 KECCAK256 DUP1 SLOAD PUSH1 0x0 NOT ADD SWAP1 SSTORE JUMPDEST PUSH1 0x1 PUSH1 0x1 PUSH1 0xA0 SHL SUB DUP6 AND ISZERO PUSH2 0x2582 JUMPI PUSH1 0x1 PUSH1 0x1 PUSH1 0xA0 SHL SUB DUP6 AND PUSH1 0x0 SWAP1 DUP2 MSTORE PUSH1 0x3 PUSH1 0x20 MSTORE PUSH1 0x40 SWAP1 KECCAK256 DUP1 SLOAD PUSH1 0x1 ADD SWAP1 SSTORE JUMPDEST PUSH1 0x0 DUP5 DUP2 MSTORE PUSH1 0x2 PUSH1 0x20 MSTORE PUSH1 0x40 DUP1 DUP3 KECCAK256 DUP1 SLOAD PUSH1 0x1 PUSH1 0x1 PUSH1 0xA0 SHL SUB NOT AND PUSH1 0x1 PUSH1 0x1 PUSH1 0xA0 SHL SUB DUP10 DUP2 AND SWAP2 DUP3 OR SWAP1 SWAP3 SSTORE SWAP2 MLOAD DUP8 SWAP4 SWAP2 DUP6 AND SWAP2 PUSH32 0xDDF252AD1BE2C89B69C2B068FC378DAA952BA7F163C4A11628F55A4DF523B3EF SWAP2 LOG4 SWAP5 SWAP4 POP POP POP POP JUMP JUMPDEST PUSH1 0x0 PUSH2 0x25EC DUP4 PUSH2 0x12F2 JUMP JUMPDEST PUSH1 0x0 DUP4 DUP2 MSTORE PUSH1 0x8 PUSH1 0x20 MSTORE PUSH1 0x40 SWAP1 KECCAK256 SLOAD SWAP1 SWAP2 POP DUP1 DUP3 EQ PUSH2 0x263F JUMPI PUSH1 0x1 PUSH1 0x1 PUSH1 0xA0 SHL SUB DUP5 AND PUSH1 0x0 SWAP1 DUP2 MSTORE PUSH1 0x7 PUSH1 0x20 SWAP1 DUP2 MSTORE PUSH1 0x40 DUP1 DUP4 KECCAK256 DUP6 DUP5 MSTORE DUP3 MSTORE DUP1 DUP4 KECCAK256 SLOAD DUP5 DUP5 MSTORE DUP2 DUP5 KECCAK256 DUP2 SWAP1 SSTORE DUP4 MSTORE PUSH1 0x8 SWAP1 SWAP2 MSTORE SWAP1 KECCAK256 DUP2 SWAP1 SSTORE JUMPDEST POP PUSH1 0x0 SWAP2 DUP3 MSTORE PUSH1 0x8 PUSH1 0x20 SWAP1 DUP2 MSTORE PUSH1 0x40 DUP1 DUP5 KECCAK256 DUP5 SWAP1 SSTORE PUSH1 0x1 PUSH1 0x1 PUSH1 0xA0 SHL SUB SWAP1 SWAP5 AND DUP4 MSTORE PUSH1 0x7 DUP2 MSTORE DUP4 DUP4 KECCAK256 SWAP2 DUP4 MSTORE MSTORE SWAP1 DUP2 KECCAK256 SSTORE JUMP JUMPDEST PUSH1 0x9 SLOAD PUSH1 0x0 SWAP1 PUSH2 0x2684 SWAP1 PUSH1 0x1 SWAP1 PUSH2 0x3185 JUMP JUMPDEST PUSH1 0x0 DUP4 DUP2 MSTORE PUSH1 0xA PUSH1 0x20 MSTORE PUSH1 0x40 DUP2 KECCAK256 SLOAD PUSH1 0x9 DUP1 SLOAD SWAP4 SWAP5 POP SWAP1 SWAP3 DUP5 SWAP1 DUP2 LT PUSH2 0x26AC JUMPI PUSH2 0x26AC PUSH2 0x3061 JUMP JUMPDEST SWAP1 PUSH1 0x0 MSTORE PUSH1 0x20 PUSH1 0x0 KECCAK256 ADD SLOAD SWAP1 POP DUP1 PUSH1 0x9 DUP4 DUP2 SLOAD DUP2 LT PUSH2 0x26CD JUMPI PUSH2 0x26CD PUSH2 0x3061 JUMP JUMPDEST PUSH1 0x0 SWAP2 DUP3 MSTORE PUSH1 0x20 DUP1 DUP4 KECCAK256 SWAP1 SWAP2 ADD SWAP3 SWAP1 SWAP3 SSTORE DUP3 DUP2 MSTORE PUSH1 0xA SWAP1 SWAP2 MSTORE PUSH1 0x40 DUP1 DUP3 KECCAK256 DUP5 SWAP1 SSTORE DUP6 DUP3 MSTORE DUP2 KECCAK256 SSTORE PUSH1 0x9 DUP1 SLOAD DUP1 PUSH2 0x2705 JUMPI PUSH2 0x2705 PUSH2 0x32FC JUMP JUMPDEST PUSH1 0x1 SWAP1 SUB DUP2 DUP2 SWAP1 PUSH1 0x0 MSTORE PUSH1 0x20 PUSH1 0x0 KECCAK256 ADD PUSH1 0x0 SWAP1 SSTORE SWAP1 SSTORE POP POP POP POP JUMP JUMPDEST PUSH1 0x0 PUSH1 0x1 PUSH2 0x272E DUP5 PUSH2 0x12F2 JUMP JUMPDEST PUSH2 0x2738 SWAP2 SWAP1 PUSH2 0x3185 JUMP JUMPDEST PUSH1 0x1 PUSH1 0x1 PUSH1 0xA0 SHL SUB SWAP1 SWAP4 AND PUSH1 0x0 SWAP1 DUP2 MSTORE PUSH1 0x7 PUSH1 0x20 SWAP1 DUP2 MSTORE PUSH1 0x40 DUP1 DUP4 KECCAK256 DUP7 DUP5 MSTORE DUP3 MSTORE DUP1 DUP4 KECCAK256 DUP6 SWAP1 SSTORE SWAP4 DUP3 MSTORE PUSH1 0x8 SWAP1 MSTORE SWAP2 SWAP1 SWAP2 KECCAK256 SWAP2 SWAP1 SWAP2 SSTORE POP JUMP JUMPDEST PUSH1 0x60 PUSH1 0x0 PUSH2 0x277E DUP4 PUSH2 0x28CD JUMP JUMPDEST PUSH1 0x1 ADD SWAP1 POP PUSH1 0x0 DUP2 PUSH8 0xFFFFFFFFFFFFFFFF DUP2 GT ISZERO PUSH2 0x279E JUMPI PUSH2 0x279E PUSH2 0x2A1F JUMP JUMPDEST PUSH1 0x40 MLOAD SWAP1 DUP1 DUP3 MSTORE DUP1 PUSH1 0x1F ADD PUSH1 0x1F NOT AND PUSH1 0x20 ADD DUP3 ADD PUSH1 0x40 MSTORE DUP1 ISZERO PUSH2 0x27C8 JUMPI PUSH1 0x20 DUP3 ADD DUP2 DUP1 CALLDATASIZE DUP4 CALLDATACOPY ADD SWAP1 POP JUMPDEST POP SWAP1 POP DUP2 DUP2 ADD PUSH1 0x20 ADD JUMPDEST PUSH1 0x0 NOT ADD PUSH16 0x181899199A1A9B1B9C1CB0B131B232B3 PUSH1 0x81 SHL PUSH1 0xA DUP7 MOD BYTE DUP2 MSTORE8 PUSH1 0xA DUP6 DIV SWAP5 POP DUP5 PUSH2 0x27D2 JUMPI POP SWAP4 SWAP3 POP POP POP JUMP JUMPDEST PUSH1 0x1 PUSH1 0x1 PUSH1 0xA0 SHL SUB DUP3 AND PUSH2 0x282E JUMPI PUSH1 0x40 MLOAD PUSH4 0x32505749 PUSH1 0xE1 SHL DUP2 MSTORE PUSH1 0x0 PUSH1 0x4 DUP3 ADD MSTORE PUSH1 0x24 ADD PUSH2 0xABC JUMP JUMPDEST PUSH1 0x0 PUSH2 0x283C DUP4 DUP4 PUSH1 0x0 PUSH2 0x1E84 JUMP JUMPDEST SWAP1 POP PUSH1 0x1 PUSH1 0x1 PUSH1 0xA0 SHL SUB DUP2 AND ISZERO PUSH2 0x11AD JUMPI PUSH1 0x40 MLOAD PUSH4 0x39E35637 PUSH1 0xE1 SHL DUP2 MSTORE PUSH1 0x0 PUSH1 0x4 DUP3 ADD MSTORE PUSH1 0x24 ADD PUSH2 0xABC JUMP JUMPDEST PUSH2 0x2874 DUP4 DUP4 DUP4 PUSH2 0x29A5 JUMP JUMPDEST PUSH2 0x11AD JUMPI PUSH1 0x1 PUSH1 0x1 PUSH1 0xA0 SHL SUB DUP4 AND PUSH2 0x28A2 JUMPI PUSH1 0x40 MLOAD PUSH4 0x7E273289 PUSH1 0xE0 SHL DUP2 MSTORE PUSH1 0x4 DUP2 ADD DUP3 SWAP1 MSTORE PUSH1 0x24 ADD PUSH2 0xABC JUMP JUMPDEST PUSH1 0x40 MLOAD PUSH4 0x177E802F PUSH1 0xE0 SHL DUP2 MSTORE PUSH1 0x1 PUSH1 0x1 PUSH1 0xA0 SHL SUB DUP4 AND PUSH1 0x4 DUP3 ADD MSTORE PUSH1 0x24 DUP2 ADD DUP3 SWAP1 MSTORE PUSH1 0x44 ADD PUSH2 0xABC JUMP JUMPDEST PUSH1 0x0 DUP1 PUSH19 0x184F03E93FF9F4DAA797ED6E38ED64BF6A1F01 PUSH1 0x40 SHL DUP4 LT PUSH2 0x290C JUMPI PUSH19 0x184F03E93FF9F4DAA797ED6E38ED64BF6A1F01 PUSH1 0x40 SHL DUP4 DIV SWAP3 POP PUSH1 0x40 ADD JUMPDEST PUSH14 0x4EE2D6D415B85ACEF8100000000 DUP4 LT PUSH2 0x2938 JUMPI PUSH14 0x4EE2D6D415B85ACEF8100000000 DUP4 DIV SWAP3 POP PUSH1 0x20 ADD JUMPDEST PUSH7 0x2386F26FC10000 DUP4 LT PUSH2 0x2956 JUMPI PUSH7 0x2386F26FC10000 DUP4 DIV SWAP3 POP PUSH1 0x10 ADD JUMPDEST PUSH4 0x5F5E100 DUP4 LT PUSH2 0x296E JUMPI PUSH4 0x5F5E100 DUP4 DIV SWAP3 POP PUSH1 0x8 ADD JUMPDEST PUSH2 0x2710 DUP4 LT PUSH2 0x2982 JUMPI PUSH2 0x2710 DUP4 DIV SWAP3 POP PUSH1 0x4 ADD JUMPDEST PUSH1 0x64 DUP4 LT PUSH2 0x2994 JUMPI PUSH1 0x64 DUP4 DIV SWAP3 POP PUSH1 0x2 ADD JUMPDEST PUSH1 0xA DUP4 LT PUSH2 0xAD2 JUMPI PUSH1 0x1 ADD SWAP3 SWAP2 POP POP JUMP JUMPDEST PUSH1 0x0 PUSH1 0x1 PUSH1 0x1 PUSH1 0xA0 SHL SUB DUP4 AND ISZERO DUP1 ISZERO SWAP1 PUSH2 0x1E91 JUMPI POP DUP3 PUSH1 0x1 PUSH1 0x1 PUSH1 0xA0 SHL SUB AND DUP5 PUSH1 0x1 PUSH1 0x1 PUSH1 0xA0 SHL SUB AND EQ DUP1 PUSH2 0x29DF JUMPI POP PUSH2 0x29DF DUP5 DUP5 PUSH2 0x1964 JUMP JUMPDEST DUP1 PUSH2 0x1E91 JUMPI POP POP PUSH1 0x0 SWAP1 DUP2 MSTORE PUSH1 0x4 PUSH1 0x20 MSTORE PUSH1 0x40 SWAP1 KECCAK256 SLOAD PUSH1 0x1 PUSH1 0x1 PUSH1 0xA0 SHL SUB SWAP1 DUP2 AND SWAP2 AND EQ SWAP2 SWAP1 POP JUMP JUMPDEST DUP1 CALLDATALOAD PUSH1 0x1 PUSH1 0x1 PUSH1 0xA0 SHL SUB DUP2 AND DUP2 EQ PUSH2 0xE98 JUMPI PUSH1 0x0 DUP1 REVERT JUMPDEST PUSH4 0x4E487B71 PUSH1 0xE0 SHL PUSH1 0x0 MSTORE PUSH1 0x41 PUSH1 0x4 MSTORE PUSH1 0x24 PUSH1 0x0 REVERT JUMPDEST PUSH1 0x40 MLOAD PUSH1 0x1F DUP3 ADD PUSH1 0x1F NOT AND DUP2 ADD PUSH8 0xFFFFFFFFFFFFFFFF DUP2 GT DUP3 DUP3 LT OR ISZERO PUSH2 0x2A5E JUMPI PUSH2 0x2A5E PUSH2 0x2A1F JUMP JUMPDEST PUSH1 0x40 MSTORE SWAP2 SWAP1 POP JUMP JUMPDEST PUSH1 0x0 PUSH8 0xFFFFFFFFFFFFFFFF DUP4 GT ISZERO PUSH2 0x2A80 JUMPI PUSH2 0x2A80 PUSH2 0x2A1F JUMP JUMPDEST PUSH2 0x2A93 PUSH1 0x1F DUP5 ADD PUSH1 0x1F NOT AND PUSH1 0x20 ADD PUSH2 0x2A35 JUMP JUMPDEST SWAP1 POP DUP3 DUP2 MSTORE DUP4 DUP4 DUP4 ADD GT ISZERO PUSH2 0x2AA7 JUMPI PUSH1 0x0 DUP1 REVERT JUMPDEST DUP3 DUP3 PUSH1 0x20 DUP4 ADD CALLDATACOPY PUSH1 0x0 PUSH1 0x20 DUP5 DUP4 ADD ADD MSTORE SWAP4 SWAP3 POP POP POP JUMP JUMPDEST PUSH1 0x0 DUP3 PUSH1 0x1F DUP4 ADD SLT PUSH2 0x2ACF JUMPI PUSH1 0x0 DUP1 REVERT JUMPDEST PUSH2 0xACF DUP4 DUP4 CALLDATALOAD PUSH1 0x20 DUP6 ADD PUSH2 0x2A66 JUMP JUMPDEST PUSH1 0x0 DUP1 PUSH1 0x40 DUP4 DUP6 SUB SLT ISZERO PUSH2 0x2AF1 JUMPI PUSH1 0x0 DUP1 REVERT JUMPDEST PUSH2 0x2AFA DUP4 PUSH2 0x2A08 JUMP JUMPDEST SWAP2 POP PUSH1 0x20 DUP4 ADD CALLDATALOAD PUSH8 0xFFFFFFFFFFFFFFFF DUP2 GT ISZERO PUSH2 0x2B16 JUMPI PUSH1 0x0 DUP1 REVERT JUMPDEST PUSH2 0x2B22 DUP6 DUP3 DUP7 ADD PUSH2 0x2ABE JUMP JUMPDEST SWAP2 POP POP SWAP3 POP SWAP3 SWAP1 POP JUMP JUMPDEST PUSH1 0x1 PUSH1 0x1 PUSH1 0xE0 SHL SUB NOT DUP2 AND DUP2 EQ PUSH2 0xCB5 JUMPI PUSH1 0x0 DUP1 REVERT JUMPDEST PUSH1 0x0 PUSH1 0x20 DUP3 DUP5 SUB SLT ISZERO PUSH2 0x2B54 JUMPI PUSH1 0x0 DUP1 REVERT JUMPDEST DUP2 CALLDATALOAD PUSH2 0x247A DUP2 PUSH2 0x2B2C JUMP JUMPDEST PUSH1 0x0 DUP1 PUSH1 0x40 DUP4 DUP6 SUB SLT ISZERO PUSH2 0x2B72 JUMPI PUSH1 0x0 DUP1 REVERT JUMPDEST PUSH2 0x2B7B DUP4 PUSH2 0x2A08 JUMP JUMPDEST SWAP2 POP PUSH1 0x20 DUP4 ADD CALLDATALOAD PUSH1 0x1 PUSH1 0x1 PUSH1 0x60 SHL SUB DUP2 AND DUP2 EQ PUSH2 0x2B97 JUMPI PUSH1 0x0 DUP1 REVERT JUMPDEST DUP1 SWAP2 POP POP SWAP3 POP SWAP3 SWAP1 POP JUMP JUMPDEST PUSH1 0x0 PUSH1 0x20 DUP3 DUP5 SUB SLT ISZERO PUSH2 0x2BB4 JUMPI PUSH1 0x0 DUP1 REVERT JUMPDEST POP CALLDATALOAD SWAP2 SWAP1 POP JUMP JUMPDEST PUSH1 0x0 JUMPDEST DUP4 DUP2 LT ISZERO PUSH2 0x2BD6 JUMPI DUP2 DUP2 ADD MLOAD DUP4 DUP3 ADD MSTORE PUSH1 0x20 ADD PUSH2 0x2BBE JUMP JUMPDEST POP POP PUSH1 0x0 SWAP2 ADD MSTORE JUMP JUMPDEST PUSH1 0x0 DUP2 MLOAD DUP1 DUP5 MSTORE PUSH2 0x2BF7 DUP2 PUSH1 0x20 DUP7 ADD PUSH1 0x20 DUP7 ADD PUSH2 0x2BBB JUMP JUMPDEST PUSH1 0x1F ADD PUSH1 0x1F NOT AND SWAP3 SWAP1 SWAP3 ADD PUSH1 0x20 ADD SWAP3 SWAP2 POP POP JUMP JUMPDEST PUSH1 0x20 DUP2 MSTORE PUSH1 0x0 PUSH2 0xACF PUSH1 0x20 DUP4 ADD DUP5 PUSH2 0x2BDF JUMP JUMPDEST PUSH1 0x0 DUP1 PUSH1 0x40 DUP4 DUP6 SUB SLT ISZERO PUSH2 0x2C31 JUMPI PUSH1 0x0 DUP1 REVERT JUMPDEST PUSH2 0x2C3A DUP4 PUSH2 0x2A08 JUMP JUMPDEST SWAP5 PUSH1 0x20 SWAP4 SWAP1 SWAP4 ADD CALLDATALOAD SWAP4 POP POP POP JUMP JUMPDEST PUSH1 0x0 PUSH1 0x20 DUP3 DUP5 SUB SLT ISZERO PUSH2 0x2C5A JUMPI PUSH1 0x0 DUP1 REVERT JUMPDEST DUP2 CALLDATALOAD PUSH8 0xFFFFFFFFFFFFFFFF DUP2 GT ISZERO PUSH2 0x2C71 JUMPI PUSH1 0x0 DUP1 REVERT JUMPDEST PUSH2 0x1E91 DUP5 DUP3 DUP6 ADD PUSH2 0x2ABE JUMP JUMPDEST PUSH1 0x0 DUP1 PUSH1 0x0 PUSH1 0x60 DUP5 DUP7 SUB SLT ISZERO PUSH2 0x2C92 JUMPI PUSH1 0x0 DUP1 REVERT JUMPDEST PUSH2 0x2C9B DUP5 PUSH2 0x2A08 JUMP JUMPDEST SWAP3 POP PUSH2 0x2CA9 PUSH1 0x20 DUP6 ADD PUSH2 0x2A08 JUMP JUMPDEST SWAP2 POP PUSH1 0x40 DUP5 ADD CALLDATALOAD SWAP1 POP SWAP3 POP SWAP3 POP SWAP3 JUMP JUMPDEST PUSH1 0x0 DUP1 PUSH1 0x40 DUP4 DUP6 SUB SLT ISZERO PUSH2 0x2CCC JUMPI PUSH1 0x0 DUP1 REVERT JUMPDEST POP POP DUP1 CALLDATALOAD SWAP3 PUSH1 0x20 SWAP1 SWAP2 ADD CALLDATALOAD SWAP2 POP JUMP JUMPDEST PUSH1 0x0 PUSH1 0x20 DUP3 DUP5 SUB SLT ISZERO PUSH2 0x2CED JUMPI PUSH1 0x0 DUP1 REVERT JUMPDEST PUSH2 0xACF DUP3 PUSH2 0x2A08 JUMP JUMPDEST PUSH1 0x20 DUP1 DUP3 MSTORE DUP3 MLOAD DUP3 DUP3 ADD DUP2 SWAP1 MSTORE PUSH1 0x0 SWAP2 SWAP1 DUP5 DUP3 ADD SWAP1 PUSH1 0x40 DUP6 ADD SWAP1 DUP5 JUMPDEST DUP2 DUP2 LT ISZERO PUSH2 0x2D2E JUMPI DUP4 MLOAD DUP4 MSTORE SWAP3 DUP5 ADD SWAP3 SWAP2 DUP5 ADD SWAP2 PUSH1 0x1 ADD PUSH2 0x2D12 JUMP JUMPDEST POP SWAP1 SWAP7 SWAP6 POP POP POP POP POP POP JUMP JUMPDEST PUSH1 0x1 PUSH1 0x1 PUSH1 0xA0 SHL SUB DUP5 AND DUP2 MSTORE PUSH1 0x60 PUSH1 0x20 DUP3 ADD DUP2 SWAP1 MSTORE PUSH1 0x0 SWAP1 PUSH2 0x2D5E SWAP1 DUP4 ADD DUP6 PUSH2 0x2BDF JUMP JUMPDEST SWAP1 POP DUP3 ISZERO ISZERO PUSH1 0x40 DUP4 ADD MSTORE SWAP5 SWAP4 POP POP POP POP JUMP JUMPDEST PUSH1 0x0 DUP1 PUSH1 0x40 DUP4 DUP6 SUB SLT ISZERO PUSH2 0x2D83 JUMPI PUSH1 0x0 DUP1 REVERT JUMPDEST PUSH2 0x2D8C DUP4 PUSH2 0x2A08 JUMP JUMPDEST SWAP2 POP PUSH1 0x20 DUP4 ADD CALLDATALOAD DUP1 ISZERO ISZERO DUP2 EQ PUSH2 0x2B97 JUMPI PUSH1 0x0 DUP1 REVERT JUMPDEST PUSH1 0x0 DUP1 PUSH1 0x20 DUP4 DUP6 SUB SLT ISZERO PUSH2 0x2DB4 JUMPI PUSH1 0x0 DUP1 REVERT JUMPDEST DUP3 CALLDATALOAD PUSH8 0xFFFFFFFFFFFFFFFF DUP1 DUP3 GT ISZERO PUSH2 0x2DCC JUMPI PUSH1 0x0 DUP1 REVERT JUMPDEST DUP2 DUP6 ADD SWAP2 POP DUP6 PUSH1 0x1F DUP4 ADD SLT PUSH2 0x2DE0 JUMPI PUSH1 0x0 DUP1 REVERT JUMPDEST DUP2 CALLDATALOAD DUP2 DUP2 GT ISZERO PUSH2 0x2DEF JUMPI PUSH1 0x0 DUP1 REVERT JUMPDEST DUP7 PUSH1 0x20 DUP3 PUSH1 0x5 SHL DUP6 ADD ADD GT ISZERO PUSH2 0x2E04 JUMPI PUSH1 0x0 DUP1 REVERT JUMPDEST PUSH1 0x20 SWAP3 SWAP1 SWAP3 ADD SWAP7 SWAP2 SWAP6 POP SWAP1 SWAP4 POP POP POP POP JUMP JUMPDEST PUSH1 0x0 DUP1 PUSH1 0x0 DUP1 PUSH1 0x80 DUP6 DUP8 SUB SLT ISZERO PUSH2 0x2E2C JUMPI PUSH1 0x0 DUP1 REVERT JUMPDEST PUSH2 0x2E35 DUP6 PUSH2 0x2A08 JUMP JUMPDEST SWAP4 POP PUSH2 0x2E43 PUSH1 0x20 DUP7 ADD PUSH2 0x2A08 JUMP JUMPDEST SWAP3 POP PUSH1 0x40 DUP6 ADD CALLDATALOAD SWAP2 POP PUSH1 0x60 DUP6 ADD CALLDATALOAD PUSH8 0xFFFFFFFFFFFFFFFF DUP2 GT ISZERO PUSH2 0x2E66 JUMPI PUSH1 0x0 DUP1 REVERT JUMPDEST DUP6 ADD PUSH1 0x1F DUP2 ADD DUP8 SGT PUSH2 0x2E77 JUMPI PUSH1 0x0 DUP1 REVERT JUMPDEST PUSH2 0x2E86 DUP8 DUP3 CALLDATALOAD PUSH1 0x20 DUP5 ADD PUSH2 0x2A66 JUMP JUMPDEST SWAP2 POP POP SWAP3 SWAP6 SWAP2 SWAP5 POP SWAP3 POP JUMP JUMPDEST PUSH1 0x0 DUP1 PUSH1 0x40 DUP4 DUP6 SUB SLT ISZERO PUSH2 0x2EA5 JUMPI PUSH1 0x0 DUP1 REVERT JUMPDEST PUSH2 0x2EAE DUP4 PUSH2 0x2A08 JUMP JUMPDEST SWAP2 POP PUSH2 0xF61 PUSH1 0x20 DUP5 ADD PUSH2 0x2A08 JUMP JUMPDEST PUSH1 0x0 PUSH1 0x20 DUP1 DUP4 DUP6 SUB SLT ISZERO PUSH2 0x2ECF JUMPI PUSH1 0x0 DUP1 REVERT JUMPDEST DUP3 CALLDATALOAD PUSH8 0xFFFFFFFFFFFFFFFF DUP1 DUP3 GT ISZERO PUSH2 0x2EE7 JUMPI PUSH1 0x0 DUP1 REVERT JUMPDEST DUP2 DUP6 ADD SWAP2 POP DUP6 PUSH1 0x1F DUP4 ADD SLT PUSH2 0x2EFB JUMPI PUSH1 0x0 DUP1 REVERT JUMPDEST DUP2 CALLDATALOAD DUP2 DUP2 GT ISZERO PUSH2 0x2F0D JUMPI PUSH2 0x2F0D PUSH2 0x2A1F JUMP JUMPDEST DUP1 PUSH1 0x5 SHL PUSH2 0x2F1C DUP6 DUP3 ADD PUSH2 0x2A35 JUMP JUMPDEST SWAP2 DUP3 MSTORE DUP4 DUP2 ADD DUP6 ADD SWAP2 DUP6 DUP2 ADD SWAP1 DUP10 DUP5 GT ISZERO PUSH2 0x2F36 JUMPI PUSH1 0x0 DUP1 REVERT JUMPDEST DUP7 DUP7 ADD SWAP3 POP JUMPDEST DUP4 DUP4 LT ISZERO PUSH2 0x2F72 JUMPI DUP3 CALLDATALOAD DUP6 DUP2 GT ISZERO PUSH2 0x2F54 JUMPI PUSH1 0x0 DUP1 DUP2 REVERT JUMPDEST PUSH2 0x2F62 DUP12 DUP10 DUP4 DUP11 ADD ADD PUSH2 0x2ABE JUMP JUMPDEST DUP4 MSTORE POP SWAP2 DUP7 ADD SWAP2 SWAP1 DUP7 ADD SWAP1 PUSH2 0x2F3C JUMP JUMPDEST SWAP10 SWAP9 POP POP POP POP POP POP POP POP POP JUMP JUMPDEST PUSH1 0x20 DUP1 DUP3 MSTORE PUSH1 0x12 SWAP1 DUP3 ADD MSTORE PUSH18 0x13585E081CDD5C1C1B1E481C995858DA1959 PUSH1 0x72 SHL PUSH1 0x40 DUP3 ADD MSTORE PUSH1 0x60 ADD SWAP1 JUMP JUMPDEST PUSH1 0x1 DUP2 DUP2 SHR SWAP1 DUP3 AND DUP1 PUSH2 0x2FBF JUMPI PUSH1 0x7F DUP3 AND SWAP2 POP JUMPDEST PUSH1 0x20 DUP3 LT DUP2 SUB PUSH2 0x2FDF JUMPI PUSH4 0x4E487B71 PUSH1 0xE0 SHL PUSH1 0x0 MSTORE PUSH1 0x22 PUSH1 0x4 MSTORE PUSH1 0x24 PUSH1 0x0 REVERT JUMPDEST POP SWAP2 SWAP1 POP JUMP JUMPDEST PUSH1 0x20 DUP1 DUP3 MSTORE PUSH1 0x13 SWAP1 DUP3 ADD MSTORE PUSH19 0x135A5B9D1A5B99C81A5CC8191A5CD8589B1959 PUSH1 0x6A SHL PUSH1 0x40 DUP3 ADD MSTORE PUSH1 0x60 ADD SWAP1 JUMP JUMPDEST PUSH4 0x4E487B71 PUSH1 0xE0 SHL PUSH1 0x0 MSTORE PUSH1 0x11 PUSH1 0x4 MSTORE PUSH1 0x24 PUSH1 0x0 REVERT JUMPDEST DUP1 DUP3 MUL DUP2 ISZERO DUP3 DUP3 DIV DUP5 EQ OR PUSH2 0xAD2 JUMPI PUSH2 0xAD2 PUSH2 0x3012 JUMP JUMPDEST PUSH1 0x0 DUP3 PUSH2 0x305C JUMPI PUSH4 0x4E487B71 PUSH1 0xE0 SHL PUSH1 0x0 MSTORE PUSH1 0x12 PUSH1 0x4 MSTORE PUSH1 0x24 PUSH1 0x0 REVERT JUMPDEST POP DIV SWAP1 JUMP JUMPDEST PUSH4 0x4E487B71 PUSH1 0xE0 SHL PUSH1 0x0 MSTORE PUSH1 0x32 PUSH1 0x4 MSTORE PUSH1 0x24 PUSH1 0x0 REVERT JUMPDEST PUSH1 0x1F DUP3 GT ISZERO PUSH2 0x11AD JUMPI PUSH1 0x0 DUP2 DUP2 MSTORE PUSH1 0x20 DUP2 KECCAK256 PUSH1 0x1F DUP6 ADD PUSH1 0x5 SHR DUP2 ADD PUSH1 0x20 DUP7 LT ISZERO PUSH2 0x309E JUMPI POP DUP1 JUMPDEST PUSH1 0x1F DUP6 ADD PUSH1 0x5 SHR DUP3 ADD SWAP2 POP JUMPDEST DUP2 DUP2 LT ISZERO PUSH2 0x30BD JUMPI DUP3 DUP2 SSTORE PUSH1 0x1 ADD PUSH2 0x30AA JUMP JUMPDEST POP POP POP POP POP POP JUMP JUMPDEST DUP2 MLOAD PUSH8 0xFFFFFFFFFFFFFFFF DUP2 GT ISZERO PUSH2 0x30DF JUMPI PUSH2 0x30DF PUSH2 0x2A1F JUMP JUMPDEST PUSH2 0x30F3 DUP2 PUSH2 0x30ED DUP5 SLOAD PUSH2 0x2FAB JUMP JUMPDEST DUP5 PUSH2 0x3077 JUMP JUMPDEST PUSH1 0x20 DUP1 PUSH1 0x1F DUP4 GT PUSH1 0x1 DUP2 EQ PUSH2 0x3128 JUMPI PUSH1 0x0 DUP5 ISZERO PUSH2 0x3110 JUMPI POP DUP6 DUP4 ADD MLOAD JUMPDEST PUSH1 0x0 NOT PUSH1 0x3 DUP7 SWAP1 SHL SHR NOT AND PUSH1 0x1 DUP6 SWAP1 SHL OR DUP6 SSTORE PUSH2 0x30BD JUMP JUMPDEST PUSH1 0x0 DUP6 DUP2 MSTORE PUSH1 0x20 DUP2 KECCAK256 PUSH1 0x1F NOT DUP7 AND SWAP2 JUMPDEST DUP3 DUP2 LT ISZERO PUSH2 0x3157 JUMPI DUP9 DUP7 ADD MLOAD DUP3 SSTORE SWAP5 DUP5 ADD SWAP5 PUSH1 0x1 SWAP1 SWAP2 ADD SWAP1 DUP5 ADD PUSH2 0x3138 JUMP JUMPDEST POP DUP6 DUP3 LT ISZERO PUSH2 0x3175 JUMPI DUP8 DUP6 ADD MLOAD PUSH1 0x0 NOT PUSH1 0x3 DUP9 SWAP1 SHL PUSH1 0xF8 AND SHR NOT AND DUP2 SSTORE JUMPDEST POP POP POP POP POP PUSH1 0x1 SWAP1 DUP2 SHL ADD SWAP1 SSTORE POP JUMP JUMPDEST DUP2 DUP2 SUB DUP2 DUP2 GT ISZERO PUSH2 0xAD2 JUMPI PUSH2 0xAD2 PUSH2 0x3012 JUMP JUMPDEST PUSH1 0x0 PUSH1 0x1 DUP3 ADD PUSH2 0x31AA JUMPI PUSH2 0x31AA PUSH2 0x3012 JUMP JUMPDEST POP PUSH1 0x1 ADD SWAP1 JUMP JUMPDEST PUSH1 0x0 DUP1 DUP4 SLOAD PUSH2 0x31BF DUP2 PUSH2 0x2FAB JUMP JUMPDEST PUSH1 0x1 DUP3 DUP2 AND DUP1 ISZERO PUSH2 0x31D7 JUMPI PUSH1 0x1 DUP2 EQ PUSH2 0x31EC JUMPI PUSH2 0x321B JUMP JUMPDEST PUSH1 0xFF NOT DUP5 AND DUP8 MSTORE DUP3 ISZERO ISZERO DUP4 MUL DUP8 ADD SWAP5 POP PUSH2 0x321B JUMP JUMPDEST DUP8 PUSH1 0x0 MSTORE PUSH1 0x20 DUP1 PUSH1 0x0 KECCAK256 PUSH1 0x0 JUMPDEST DUP6 DUP2 LT ISZERO PUSH2 0x3212 JUMPI DUP2 SLOAD DUP11 DUP3 ADD MSTORE SWAP1 DUP5 ADD SWAP1 DUP3 ADD PUSH2 0x31F9 JUMP JUMPDEST POP POP POP DUP3 DUP8 ADD SWAP5 POP JUMPDEST POP POP PUSH15 0x31B7B63632B1BA34B7B7173539B7B7 PUSH1 0x89 SHL DUP4 MSTORE POP POP PUSH1 0xF ADD SWAP4 SWAP3 POP POP POP JUMP JUMPDEST DUP1 DUP3 ADD DUP1 DUP3 GT ISZERO PUSH2 0xAD2 JUMPI PUSH2 0xAD2 PUSH2 0x3012 JUMP JUMPDEST PUSH1 0x40 DUP2 MSTORE PUSH1 0x0 PUSH2 0x3264 PUSH1 0x40 DUP4 ADD DUP6 PUSH2 0x2BDF JUMP JUMPDEST SWAP1 POP DUP3 PUSH1 0x20 DUP4 ADD MSTORE SWAP4 SWAP3 POP POP POP JUMP JUMPDEST PUSH1 0x1 PUSH1 0x1 PUSH1 0xA0 SHL SUB DUP6 DUP2 AND DUP3 MSTORE DUP5 AND PUSH1 0x20 DUP3 ADD MSTORE PUSH1 0x40 DUP2 ADD DUP4 SWAP1 MSTORE PUSH1 0x80 PUSH1 0x60 DUP3 ADD DUP2 SWAP1 MSTORE PUSH1 0x0 SWAP1 PUSH2 0x32A6 SWAP1 DUP4 ADD DUP5 PUSH2 0x2BDF JUMP JUMPDEST SWAP7 SWAP6 POP POP POP POP POP POP JUMP JUMPDEST PUSH1 0x0 PUSH1 0x20 DUP3 DUP5 SUB SLT ISZERO PUSH2 0x32C2 JUMPI PUSH1 0x0 DUP1 REVERT JUMPDEST DUP2 MLOAD PUSH2 0x247A DUP2 PUSH2 0x2B2C JUMP JUMPDEST PUSH1 0x0 DUP4 MLOAD PUSH2 0x32DF DUP2 DUP5 PUSH1 0x20 DUP9 ADD PUSH2 0x2BBB JUMP JUMPDEST DUP4 MLOAD SWAP1 DUP4 ADD SWAP1 PUSH2 0x32F3 DUP2 DUP4 PUSH1 0x20 DUP9 ADD PUSH2 0x2BBB JUMP JUMPDEST ADD SWAP5 SWAP4 POP POP POP POP JUMP JUMPDEST PUSH4 0x4E487B71 PUSH1 0xE0 SHL PUSH1 0x0 MSTORE PUSH1 0x31 PUSH1 0x4 MSTORE PUSH1 0x24 PUSH1 0x0 REVERT INVALID LOG2 PUSH5 0x6970667358 0x22 SLT KECCAK256 DUP8 JUMP SLOAD SWAP11 0xC2 0xD0 0x27 STOP DUP14 SWAP1 0xAB 0x4F 0xA7 0x25 DUP5 MUL 0xCB BALANCE 0xBF SMOD PUSH28 0x9EF02B9FBC7BCFBEF16AE264736F6C6343000814003357616C6C6574 NUMBER PUSH16 0x6E6E656374204E465420436F6C6C6563 PUSH21 0x696F6E202D204D696E7420796F757220756E697175 PUSH6 0x206469676974 PUSH2 0x6C20 PUSH2 0x7373 PUSH6 0x742100000000 "},"gasEstimates":{"creation":{"codeDepositCost":"2625600","executionCost":"infinite","totalCost":"infinite"},"external":{"addToWhitelist(address)":"28334","addToWhitelistBatch(address[])":"infinite","approve(address,uint256)":"31516","balanceOf(address)":"2693","baseTokenURI()":"infinite","collectionDescription()":"infinite","contractURI()":"infinite","emergencyPause()":"26660","emergencyUnpause()":"26622","freeMint(string)":"infinite","getApproved(uint256)":"infinite","getCollectionStats()":"8792","getMintStats(address)":"infinite","getTokenInfo(uint256)":"infinite","isApprovedForAll(address,address)":"infinite","maxMintPerWallet()":"2374","maxSupply()":"2395","mint(string)":"infinite","mintBatch(string[])":"infinite","mintPrice()":"2351","mintTo(address,string)":"infinite","mintedPerWallet(address)":"2581","mintingEnabled()":"2399","name()":"infinite","owner()":"2465","ownerOf(uint256)":"infinite","publicMintEnabled()":"2412","removeFromWhitelist(address)":"28303","renounceOwnership()":"infinite","royaltyFeeNumerator()":"2445","royaltyInfo(uint256,uint256)":"2801","royaltyReceiver()":"2404","safeTransferFrom(address,address,uint256)":"infinite","safeTransferFrom(address,address,uint256,bytes)":"infinite","setApprovalForAll(address,bool)":"26770","setBaseURI(string)":"infinite","setCollectionDescription(string)":"infinite","setMaxMintPerWallet(uint256)":"24556","setMaxSupply(uint256)":"26703","setMintPrice(uint256)":"28071","setRoyaltyInfo(address,uint96)":"24835","supportsInterface(bytes4)":"infinite","symbol()":"infinite","toggleMinting()":"27703","togglePublicMint()":"27792","tokenByIndex(uint256)":"6816","tokenOfOwnerByIndex(address,uint256)":"5053","tokenURI(uint256)":"infinite","tokensOfOwner(address)":"infinite","totalSupply()":"2394","transferFrom(address,address,uint256)":"infinite","transferOwnership(address)":"28450","whitelist(address)":"2647","withdraw()":"infinite","withdrawAmount(uint256)":"infinite"},"internal":{"_baseURI()":"infinite","_increaseBalance(address,uint128)":"infinite","_mintNFT(address,string memory)":"infinite","_update(address,uint256,address)":"infinite"}},"methodIdentifiers":{"addToWhitelist(address)":"e43252d7","addToWhitelistBatch(address[])":"a6177139","approve(address,uint256)":"095ea7b3","balanceOf(address)":"70a08231","baseTokenURI()":"d547cfb7","collectionDescription()":"e2c6875c","contractURI()":"e8a3d485","emergencyPause()":"51858e27","emergencyUnpause()":"4a4e3bd5","freeMint(string)":"1d64b7c1","getApproved(uint256)":"081812fc","getCollectionStats()":"5894bd51","getMintStats(address)":"840e15d4","getTokenInfo(uint256)":"8c7a63ae","isApprovedForAll(address,address)":"e985e9c5","maxMintPerWallet()":"b228d925","maxSupply()":"d5abeb01","mint(string)":"d85d3d27","mintBatch(string[])":"f09dfbe9","mintPrice()":"6817c76c","mintTo(address,string)":"0075a317","mintedPerWallet(address)":"3a602b4d","mintingEnabled()":"9fd6db12","name()":"06fdde03","owner()":"8da5cb5b","ownerOf(uint256)":"6352211e","publicMintEnabled()":"0f4161aa","removeFromWhitelist(address)":"8ab1d681","renounceOwnership()":"715018a6","royaltyFeeNumerator()":"81ddcc1f","royaltyInfo(uint256,uint256)":"2a55205a","royaltyReceiver()":"9fbc8713","safeTransferFrom(address,address,uint256)":"42842e0e","safeTransferFrom(address,address,uint256,bytes)":"b88d4fde","setApprovalForAll(address,bool)":"a22cb465","setBaseURI(string)":"55f804b3","setCollectionDescription(string)":"9471302e","setMaxMintPerWallet(uint256)":"afdf6134","setMaxSupply(uint256)":"6f8b44b0","setMintPrice(uint256)":"f4a0a528","setRoyaltyInfo(address,uint96)":"02fa7c47","supportsInterface(bytes4)":"01ffc9a7","symbol()":"95d89b41","toggleMinting()":"7d55094d","togglePublicMint()":"4047638d","tokenByIndex(uint256)":"4f6ccce7","tokenOfOwnerByIndex(address,uint256)":"2f745c59","tokenURI(uint256)":"c87b56dd","tokensOfOwner(address)":"8462151c","totalSupply()":"18160ddd","transferFrom(address,address,uint256)":"23b872dd","transferOwnership(address)":"f2fde38b","whitelist(address)":"9b19251a","withdraw()":"3ccfd60b","withdrawAmount(uint256)":"0562b9f7"}},"storageLayout":{"storage":[{"astId":349,"contract":"contracts/NFT.sol:WalletConnectNFT","label":"_name","offset":0,"slot":"0","type":"t_string_storage"},{"astId":351,"contract":"contracts/NFT.sol:WalletConnectNFT","label":"_symbol","offset":0,"slot":"1","type":"t_string_storage"},{"astId":355,"contract":"contracts/NFT.sol:WalletConnectNFT","label":"_owners","offset":0,"slot":"2","type":"t_mapping(t_uint256,t_address)"},{"astId":359,"contract":"contracts/NFT.sol:WalletConnectNFT","label":"_balances","offset":0,"slot":"3","type":"t_mapping(t_address,t_uint256)"},{"astId":363,"contract":"contracts/NFT.sol:WalletConnectNFT","label":"_tokenApprovals","offset":0,"slot":"4","type":"t_mapping(t_uint256,t_address)"},{"astId":369,"contract":"contracts/NFT.sol:WalletConnectNFT","label":"_operatorApprovals","offset":0,"slot":"5","type":"t_mapping(t_address,t_mapping(t_address,t_bool))"},{"astId":1872,"contract":"contracts/NFT.sol:WalletConnectNFT","label":"_tokenURIs","offset":0,"slot":"6","type":"t_mapping(t_uint256,t_string_storage)"},{"astId":1479,"contract":"contracts/NFT.sol:WalletConnectNFT","label":"_ownedTokens","offset":0,"slot":"7","type":"t_mapping(t_address,t_mapping(t_uint256,t_uint256))"},{"astId":1483,"contract":"contracts/NFT.sol:WalletConnectNFT","label":"_ownedTokensIndex","offset":0,"slot":"8","type":"t_mapping(t_uint256,t_uint256)"},{"astId":1486,"contract":"contracts/NFT.sol:WalletConnectNFT","label":"_allTokens","offset":0,"slot":"9","type":"t_array(t_uint256)dyn_storage"},{"astId":1490,"contract":"contracts/NFT.sol:WalletConnectNFT","label":"_allTokensIndex","offset":0,"slot":"10","type":"t_mapping(t_uint256,t_uint256)"},{"astId":8,"contract":"contracts/NFT.sol:WalletConnectNFT","label":"_owner","offset":0,"slot":"11","type":"t_address"},{"astId":2071,"contract":"contracts/NFT.sol:WalletConnectNFT","label":"_status","offset":0,"slot":"12","type":"t_uint256"},{"astId":3600,"contract":"contracts/NFT.sol:WalletConnectNFT","label":"_tokenIds","offset":0,"slot":"13","type":"t_uint256"},{"astId":3602,"contract":"contracts/NFT.sol:WalletConnectNFT","label":"baseTokenURI","offset":0,"slot":"14","type":"t_string_storage"},{"astId":3605,"contract":"contracts/NFT.sol:WalletConnectNFT","label":"collectionDescription","offset":0,"slot":"15","type":"t_string_storage"},{"astId":3608,"contract":"contracts/NFT.sol:WalletConnectNFT","label":"mintPrice","offset":0,"slot":"16","type":"t_uint256"},{"astId":3611,"contract":"contracts/NFT.sol:WalletConnectNFT","label":"maxSupply","offset":0,"slot":"17","type":"t_uint256"},{"astId":3614,"contract":"contracts/NFT.sol:WalletConnectNFT","label":"maxMintPerWallet","offset":0,"slot":"18","type":"t_uint256"},{"astId":3617,"contract":"contracts/NFT.sol:WalletConnectNFT","label":"mintingEnabled","offset":0,"slot":"19","type":"t_bool"},{"astId":3620,"contract":"contracts/NFT.sol:WalletConnectNFT","label":"publicMintEnabled","offset":1,"slot":"19","type":"t_bool"},{"astId":3624,"contract":"contracts/NFT.sol:WalletConnectNFT","label":"whitelist","offset":0,"slot":"20","type":"t_mapping(t_address,t_bool)"},{"astId":3628,"contract":"contracts/NFT.sol:WalletConnectNFT","label":"mintedPerWallet","offset":0,"slot":"21","type":"t_mapping(t_address,t_uint256)"},{"astId":3630,"contract":"contracts/NFT.sol:WalletConnectNFT","label":"royaltyReceiver","offset":0,"slot":"22","type":"t_address"},{"astId":3633,"contract":"contracts/NFT.sol:WalletConnectNFT","label":"royaltyFeeNumerator","offset":20,"slot":"22","type":"t_uint96"}],"types":{"t_address":{"encoding":"inplace","label":"address","numberOfBytes":"20"},"t_array(t_uint256)dyn_storage":{"base":"t_uint256","encoding":"dynamic_array","label":"uint256[]","numberOfBytes":"32"},"t_bool":{"encoding":"inplace","label":"bool","numberOfBytes":"1"},"t_mapping(t_address,t_bool)":{"encoding":"mapping","key":"t_address","label":"mapping(address => bool)","numberOfBytes":"32","value":"t_bool"},"t_mapping(t_address,t_mapping(t_address,t_bool))":{"encoding":"mapping","key":"t_address","label":"mapping(address => mapping(address => bool))","numberOfBytes":"32","value":"t_mapping(t_address,t_bool)"},"t_mapping(t_address,t_mapping(t_uint256,t_uint256))":{"encoding":"mapping","key":"t_address","label":"mapping(address => mapping(uint256 => uint256))","numberOfBytes":"32","value":"t_mapping(t_uint256,t_uint256)"},"t_mapping(t_address,t_uint256)":{"encoding":"mapping","key":"t_address","label":"mapping(address => uint256)","numberOfBytes":"32","value":"t_uint256"},"t_mapping(t_uint256,t_address)":{"encoding":"mapping","key":"t_uint256","label":"mapping(uint256 => address)","numberOfBytes":"32","value":"t_address"},"t_mapping(t_uint256,t_string_storage)":{"encoding":"mapping","key":"t_uint256","label":"mapping(uint256 => string)","numberOfBytes":"32","value":"t_string_storage"},"t_mapping(t_uint256,t_uint256)":{"encoding":"mapping","key":"t_uint256","label":"mapping(uint256 => uint256)","numberOfBytes":"32","value":"t_uint256"},"t_string_storage":{"encoding":"bytes","label":"string","numberOfBytes":"32"},"t_uint256":{"encoding":"inplace","label":"uint256","numberOfBytes":"32"},"t_uint96":{"encoding":"inplace","label":"uint96","numberOfBytes":"12"}}},"userdoc":{"kind":"user","methods":{},"notice":"This contract is designed for easy integration with WalletConnect","version":1}}}}