{
  "_format": "hh-sol-artifact-1",
  "contractName": "WalletConnectNFT",
  "sourceName": "contracts/NFT.sol",
  "abi": [
    {
      "inputs": [
        {
          "internalType": "string",
          "name": "_name",
          "type": "string"
        },
        {
          "internalType": "string",
          "name": "_symbol",
          "type": "string"
        },
        {
          "internalType": "string",
          "name": "_baseTokenURI",
          "type": "string"
        }
      ],
      "stateMutability": "nonpayable",
      "type": "constructor"
    },
    {
      "inputs": [],
      "name": "ERC721EnumerableForbiddenBatchMint",
      "type": "error"
    },
    {
      "inputs": [
        {
          "internalType": "address",
          "name": "sender",
          "type": "address"
        },
        {
          "internalType": "uint256",
          "name": "tokenId",
          "type": "uint256"
        },
        {
          "internalType": "address",
          "name": "owner",
          "type": "address"
        }
      ],
      "name": "ERC721IncorrectOwner",
      "type": "error"
    },
    {
      "inputs": [
        {
          "internalType": "address",
          "name": "operator",
          "type": "address"
        },
        {
          "internalType": "uint256",
          "name": "tokenId",
          "type": "uint256"
        }
      ],
      "name": "ERC721InsufficientApproval",
      "type": "error"
    },
    {
      "inputs": [
        {
          "internalType": "address",
          "name": "approver",
          "type": "address"
        }
      ],
      "name": "ERC721InvalidApprover",
      "type": "error"
    },
    {
      "inputs": [
        {
          "internalType": "address",
          "name": "operator",
          "type": "address"
        }
      ],
      "name": "ERC721InvalidOperator",
      "type": "error"
    },
    {
      "inputs": [
        {
          "internalType": "address",
          "name": "owner",
          "type": "address"
        }
      ],
      "name": "ERC721InvalidOwner",
      "type": "error"
    },
    {
      "inputs": [
        {
          "internalType": "address",
          "name": "receiver",
          "type": "address"
        }
      ],
      "name": "ERC721InvalidReceiver",
      "type": "error"
    },
    {
      "inputs": [
        {
          "internalType": "address",
          "name": "sender",
          "type": "address"
        }
      ],
      "name": "ERC721InvalidSender",
      "type": "error"
    },
    {
      "inputs": [
        {
          "internalType": "uint256",
          "name": "tokenId",
          "type": "uint256"
        }
      ],
      "name": "ERC721NonexistentToken",
      "type": "error"
    },
    {
      "inputs": [
        {
          "internalType": "address",
          "name": "owner",
          "type": "address"
        },
        {
          "internalType": "uint256",
          "name": "index",
          "type": "uint256"
        }
      ],
      "name": "ERC721OutOfBoundsIndex",
      "type": "error"
    },
    {
      "inputs": [
        {
          "internalType": "address",
          "name": "owner",
          "type": "address"
        }
      ],
      "name": "OwnableInvalidOwner",
      "type": "error"
    },
    {
      "inputs": [
        {
          "internalType": "address",
          "name": "account",
          "type": "address"
        }
      ],
      "name": "OwnableUnauthorizedAccount",
      "type": "error"
    },
    {
      "inputs": [],
      "name": "ReentrancyGuardReentrantCall",
      "type": "error"
    },
    {
      "anonymous": false,
      "inputs": [
        {
          "indexed": true,
          "internalType": "address",
          "name": "owner",
          "type": "address"
        },
        {
          "indexed": true,
          "internalType": "address",
          "name": "approved",
          "type": "address"
        },
        {
          "indexed": true,
          "internalType": "uint256",
          "name": "tokenId",
          "type": "uint256"
        }
      ],
      "name": "Approval",
      "type": "event"
    },
    {
      "anonymous": false,
      "inputs": [
        {
          "indexed": true,
          "internalType": "address",
          "name": "owner",
          "type": "address"
        },
        {
          "indexed": true,
          "internalType": "address",
          "name": "operator",
          "type": "address"
        },
        {
          "indexed": false,
          "internalType": "bool",
          "name": "approved",
          "type": "bool"
        }
      ],
      "name": "ApprovalForAll",
      "type": "event"
    },
    {
      "anonymous": false,
      "inputs": [
        {
          "indexed": false,
          "internalType": "string",
          "name": "newBaseURI",
          "type": "string"
        }
      ],
      "name": "BaseURIUpdated",
      "type": "event"
    },
    {
      "anonymous": false,
      "inputs": [
        {
          "indexed": false,
          "internalType": "uint256",
          "name": "_fromTokenId",
          "type": "uint256"
        },
        {
          "indexed": false,
          "internalType": "uint256",
          "name": "_toTokenId",
          "type": "uint256"
        }
      ],
      "name": "BatchMetadataUpdate",
      "type": "event"
    },
    {
      "anonymous": false,
      "inputs": [
        {
          "indexed": false,
          "internalType": "uint256",
          "name": "_tokenId",
          "type": "uint256"
        }
      ],
      "name": "MetadataUpdate",
      "type": "event"
    },
    {
      "anonymous": false,
      "inputs": [
        {
          "indexed": false,
          "internalType": "uint256",
          "name": "oldPrice",
          "type": "uint256"
        },
        {
          "indexed": false,
          "internalType": "uint256",
          "name": "newPrice",
          "type": "uint256"
        }
      ],
      "name": "MintPriceUpdated",
      "type": "event"
    },
    {
      "anonymous": false,
      "inputs": [
        {
          "indexed": false,
          "internalType": "bool",
          "name": "enabled",
          "type": "bool"
        }
      ],
      "name": "MintingToggled",
      "type": "event"
    },
    {
      "anonymous": false,
      "inputs": [
        {
          "indexed": true,
          "internalType": "address",
          "name": "minter",
          "type": "address"
        },
        {
          "indexed": true,
          "internalType": "uint256",
          "name": "tokenId",
          "type": "uint256"
        },
        {
          "indexed": false,
          "internalType": "string",
          "name": "tokenURI",
          "type": "string"
        },
        {
          "indexed": false,
          "internalType": "uint256",
          "name": "mintPrice",
          "type": "uint256"
        }
      ],
      "name": "NFTMinted",
      "type": "event"
    },
    {
      "anonymous": false,
      "inputs": [
        {
          "indexed": true,
          "internalType": "address",
          "name": "previousOwner",
          "type": "address"
        },
        {
          "indexed": true,
          "internalType": "address",
          "name": "newOwner",
          "type": "address"
        }
      ],
      "name": "OwnershipTransferred",
      "type": "event"
    },
    {
      "anonymous": false,
      "inputs": [
        {
          "indexed": false,
          "internalType": "bool",
          "name": "enabled",
          "type": "bool"
        }
      ],
      "name": "PublicMintToggled",
      "type": "event"
    },
    {
      "anonymous": false,
      "inputs": [
        {
          "indexed": true,
          "internalType": "address",
          "name": "from",
          "type": "address"
        },
        {
          "indexed": true,
          "internalType": "address",
          "name": "to",
          "type": "address"
        },
        {
          "indexed": true,
          "internalType": "uint256",
          "name": "tokenId",
          "type": "uint256"
        }
      ],
      "name": "Transfer",
      "type": "event"
    },
    {
      "anonymous": false,
      "inputs": [
        {
          "indexed": true,
          "internalType": "address",
          "name": "user",
          "type": "address"
        },
        {
          "indexed": false,
          "internalType": "bool",
          "name": "status",
          "type": "bool"
        }
      ],
      "name": "WhitelistUpdated",
      "type": "event"
    },
    {
      "anonymous": false,
      "inputs": [
        {
          "indexed": true,
          "internalType": "address",
          "name": "owner",
          "type": "address"
        },
        {
          "indexed": false,
          "internalType": "uint256",
          "name": "amount",
          "type": "uint256"
        }
      ],
      "name": "Withdrawn",
      "type": "event"
    },
    {
      "inputs": [
        {
          "internalType": "address",
          "name": "_user",
          "type": "address"
        }
      ],
      "name": "addToWhitelist",
      "outputs": [],
      "stateMutability": "nonpayable",
      "type": "function"
    },
    {
      "inputs": [
        {
          "internalType": "address[]",
          "name": "_users",
          "type": "address[]"
        }
      ],
      "name": "addToWhitelistBatch",
      "outputs": [],
      "stateMutability": "nonpayable",
      "type": "function"
    },
    {
      "inputs": [
        {
          "internalType": "address",
          "name": "to",
          "type": "address"
        },
        {
          "internalType": "uint256",
          "name": "tokenId",
          "type": "uint256"
        }
      ],
      "name": "approve",
      "outputs": [],
      "stateMutability": "nonpayable",
      "type": "function"
    },
    {
      "inputs": [
        {
          "internalType": "address",
          "name": "owner",
          "type": "address"
        }
      ],
      "name": "balanceOf",
      "outputs": [
        {
          "internalType": "uint256",
          "name": "",
          "type": "uint256"
        }
      ],
      "stateMutability": "view",
      "type": "function"
    },
    {
      "inputs": [],
      "name": "baseTokenURI",
      "outputs": [
        {
          "internalType": "string",
          "name": "",
          "type": "string"
        }
      ],
      "stateMutability": "view",
      "type": "function"
    },
    {
      "inputs": [],
      "name": "collectionDescription",
      "outputs": [
        {
          "internalType": "string",
          "name": "",
          "type": "string"
        }
      ],
      "stateMutability": "view",
      "type": "function"
    },
    {
      "inputs": [],
      "name": "contractURI",
      "outputs": [
        {
          "internalType": "string",
          "name": "",
          "type": "string"
        }
      ],
      "stateMutability": "view",
      "type": "function"
    },
    {
      "inputs": [],
      "name": "emergencyPause",
      "outputs": [],
      "stateMutability": "nonpayable",
      "type": "function"
    },
    {
      "inputs": [],
      "name": "emergencyUnpause",
      "outputs": [],
      "stateMutability": "nonpayable",
      "type": "function"
    },
    {
      "inputs": [
        {
          "internalType": "string",
          "name": "_tokenURI",
          "type": "string"
        }
      ],
      "name": "freeMint",
      "outputs": [
        {
          "internalType": "uint256",
          "name": "",
          "type": "uint256"
        }
      ],
      "stateMutability": "nonpayable",
      "type": "function"
    },
    {
      "inputs": [
        {
          "internalType": "uint256",
          "name": "tokenId",
          "type": "uint256"
        }
      ],
      "name": "getApproved",
      "outputs": [
        {
          "internalType": "address",
          "name": "",
          "type": "address"
        }
      ],
      "stateMutability": "view",
      "type": "function"
    },
    {
      "inputs": [],
      "name": "getCollectionStats",
      "outputs": [
        {
          "internalType": "uint256",
          "name": "currentSupply",
          "type": "uint256"
        },
        {
          "internalType": "uint256",
          "name": "maxSupply_",
          "type": "uint256"
        },
        {
          "internalType": "uint256",
          "name": "mintPrice_",
          "type": "uint256"
        },
        {
          "internalType": "bool",
          "name": "mintingEnabled_",
          "type": "bool"
        },
        {
          "internalType": "bool",
          "name": "publicMintEnabled_",
          "type": "bool"
        }
      ],
      "stateMutability": "view",
      "type": "function"
    },
    {
      "inputs": [
        {
          "internalType": "address",
          "name": "_user",
          "type": "address"
        }
      ],
      "name": "getMintStats",
      "outputs": [
        {
          "internalType": "uint256",
          "name": "minted",
          "type": "uint256"
        },
        {
          "internalType": "uint256",
          "name": "remaining",
          "type": "uint256"
        },
        {
          "internalType": "bool",
          "name": "isWhitelisted",
          "type": "bool"
        },
        {
          "internalType": "uint256",
          "name": "price",
          "type": "uint256"
        }
      ],
      "stateMutability": "view",
      "type": "function"
    },
    {
      "inputs": [
        {
          "internalType": "uint256",
          "name": "_tokenId",
          "type": "uint256"
        }
      ],
      "name": "getTokenInfo",
      "outputs": [
        {
          "internalType": "address",
          "name": "owner",
          "type": "address"
        },
        {
          "internalType": "string",
          "name": "uri",
          "type": "string"
        },
        {
          "internalType": "bool",
          "name": "exists",
          "type": "bool"
        }
      ],
      "stateMutability": "view",
      "type": "function"
    },
    {
      "inputs": [
        {
          "internalType": "address",
          "name": "owner",
          "type": "address"
        },
        {
          "internalType": "address",
          "name": "operator",
          "type": "address"
        }
      ],
      "name": "isApprovedForAll",
      "outputs": [
        {
          "internalType": "bool",
          "name": "",
          "type": "bool"
        }
      ],
      "stateMutability": "view",
      "type": "function"
    },
    {
      "inputs": [],
      "name": "maxMintPerWallet",
      "outputs": [
        {
          "internalType": "uint256",
          "name": "",
          "type": "uint256"
        }
      ],
      "stateMutability": "view",
      "type": "function"
    },
    {
      "inputs": [],
      "name": "maxSupply",
      "outputs": [
        {
          "internalType": "uint256",
          "name": "",
          "type": "uint256"
        }
      ],
      "stateMutability": "view",
      "type": "function"
    },
    {
      "inputs": [
        {
          "internalType": "string",
          "name": "_tokenURI",
          "type": "string"
        }
      ],
      "name": "mint",
      "outputs": [
        {
          "internalType": "uint256",
          "name": "",
          "type": "uint256"
        }
      ],
      "stateMutability": "payable",
      "type": "function"
    },
    {
      "inputs": [
        {
          "internalType": "string[]",
          "name": "_tokenURIs",
          "type": "string[]"
        }
      ],
      "name": "mintBatch",
      "outputs": [
        {
          "internalType": "uint256[]",
          "name": "",
          "type": "uint256[]"
        }
      ],
      "stateMutability": "payable",
      "type": "function"
    },
    {
      "inputs": [],
      "name": "mintPrice",
      "outputs": [
        {
          "internalType": "uint256",
          "name": "",
          "type": "uint256"
        }
      ],
      "stateMutability": "view",
      "type": "function"
    },
    {
      "inputs": [
        {
          "internalType": "address",
          "name": "_to",
          "type": "address"
        },
        {
          "internalType": "string",
          "name": "_tokenURI",
          "type": "string"
        }
      ],
      "name": "mintTo",
      "outputs": [
        {
          "internalType": "uint256",
          "name": "",
          "type": "uint256"
        }
      ],
      "stateMutability": "nonpayable",
      "type": "function"
    },
    {
      "inputs": [
        {
          "internalType": "address",
          "name": "",
          "type": "address"
        }
      ],
      "name": "mintedPerWallet",
      "outputs": [
        {
          "internalType": "uint256",
          "name": "",
          "type": "uint256"
        }
      ],
      "stateMutability": "view",
      "type": "function"
    },
    {
      "inputs": [],
      "name": "mintingEnabled",
      "outputs": [
        {
          "internalType": "bool",
          "name": "",
          "type": "bool"
        }
      ],
      "stateMutability": "view",
      "type": "function"
    },
    {
      "inputs": [],
      "name": "name",
      "outputs": [
        {
          "internalType": "string",
          "name": "",
          "type": "string"
        }
      ],
      "stateMutability": "view",
      "type": "function"
    },
    {
      "inputs": [],
      "name": "owner",
      "outputs": [
        {
          "internalType": "address",
          "name": "",
          "type": "address"
        }
      ],
      "stateMutability": "view",
      "type": "function"
    },
    {
      "inputs": [
        {
          "internalType": "uint256",
          "name": "tokenId",
          "type": "uint256"
        }
      ],
      "name": "ownerOf",
      "outputs": [
        {
          "internalType": "address",
          "name": "",
          "type": "address"
        }
      ],
      "stateMutability": "view",
      "type": "function"
    },
    {
      "inputs": [],
      "name": "publicMintEnabled",
      "outputs": [
        {
          "internalType": "bool",
          "name": "",
          "type": "bool"
        }
      ],
      "stateMutability": "view",
      "type": "function"
    },
    {
      "inputs": [
        {
          "internalType": "address",
          "name": "_user",
          "type": "address"
        }
      ],
      "name": "removeFromWhitelist",
      "outputs": [],
      "stateMutability": "nonpayable",
      "type": "function"
    },
    {
      "inputs": [],
      "name": "renounceOwnership",
      "outputs": [],
      "stateMutability": "nonpayable",
      "type": "function"
    },
    {
      "inputs": [],
      "name": "royaltyFeeNumerator",
      "outputs": [
        {
          "internalType": "uint96",
          "name": "",
          "type": "uint96"
        }
      ],
      "stateMutability": "view",
      "type": "function"
    },
    {
      "inputs": [
        {
          "internalType": "uint256",
          "name": "_tokenId",
          "type": "uint256"
        },
        {
          "internalType": "uint256",
          "name": "_salePrice",
          "type": "uint256"
        }
      ],
      "name": "royaltyInfo",
      "outputs": [
        {
          "internalType": "address",
          "name": "receiver",
          "type": "address"
        },
        {
          "internalType": "uint256",
          "name": "royaltyAmount",
          "type": "uint256"
        }
      ],
      "stateMutability": "view",
      "type": "function"
    },
    {
      "inputs": [],
      "name": "royaltyReceiver",
      "outputs": [
        {
          "internalType": "address",
          "name": "",
          "type": "address"
        }
      ],
      "stateMutability": "view",
      "type": "function"
    },
    {
      "inputs": [
        {
          "internalType": "address",
          "name": "from",
          "type": "address"
        },
        {
          "internalType": "address",
          "name": "to",
          "type": "address"
        },
        {
          "internalType": "uint256",
          "name": "tokenId",
          "type": "uint256"
        }
      ],
      "name": "safeTransferFrom",
      "outputs": [],
      "stateMutability": "nonpayable",
      "type": "function"
    },
    {
      "inputs": [
        {
          "internalType": "address",
          "name": "from",
          "type": "address"
        },
        {
          "internalType": "address",
          "name": "to",
          "type": "address"
        },
        {
          "internalType": "uint256",
          "name": "tokenId",
          "type": "uint256"
        },
        {
          "internalType": "bytes",
          "name": "data",
          "type": "bytes"
        }
      ],
      "name": "safeTransferFrom",
      "outputs": [],
      "stateMutability": "nonpayable",
      "type": "function"
    },
    {
      "inputs": [
        {
          "internalType": "address",
          "name": "operator",
          "type": "address"
        },
        {
          "internalType": "bool",
          "name": "approved",
          "type": "bool"
        }
      ],
      "name": "setApprovalForAll",
      "outputs": [],
      "stateMutability": "nonpayable",
      "type": "function"
    },
    {
      "inputs": [
        {
          "internalType": "string",
          "name": "_newBaseURI",
          "type": "string"
        }
      ],
      "name": "setBaseURI",
      "outputs": [],
      "stateMutability": "nonpayable",
      "type": "function"
    },
    {
      "inputs": [
        {
          "internalType": "string",
          "name": "_description",
          "type": "string"
        }
      ],
      "name": "setCollectionDescription",
      "outputs": [],
      "stateMutability": "nonpayable",
      "type": "function"
    },
    {
      "inputs": [
        {
          "internalType": "uint256",
          "name": "_newMax",
          "type": "uint256"
        }
      ],
      "name": "setMaxMintPerWallet",
      "outputs": [],
      "stateMutability": "nonpayable",
      "type": "function"
    },
    {
      "inputs": [
        {
          "internalType": "uint256",
          "name": "_newMaxSupply",
          "type": "uint256"
        }
      ],
      "name": "setMaxSupply",
      "outputs": [],
      "stateMutability": "nonpayable",
      "type": "function"
    },
    {
      "inputs": [
        {
          "internalType": "uint256",
          "name": "_newPrice",
          "type": "uint256"
        }
      ],
      "name": "setMintPrice",
      "outputs": [],
      "stateMutability": "nonpayable",
      "type": "function"
    },
    {
      "inputs": [
        {
          "internalType": "address",
          "name": "_receiver",
          "type": "address"
        },
        {
          "internalType": "uint96",
          "name": "_feeNumerator",
          "type": "uint96"
        }
      ],
      "name": "setRoyaltyInfo",
      "outputs": [],
      "stateMutability": "nonpayable",
      "type": "function"
    },
    {
      "inputs": [
        {
          "internalType": "bytes4",
          "name": "interfaceId",
          "type": "bytes4"
        }
      ],
      "name": "supportsInterface",
      "outputs": [
        {
          "internalType": "bool",
          "name": "",
          "type": "bool"
        }
      ],
      "stateMutability": "view",
      "type": "function"
    },
    {
      "inputs": [],
      "name": "symbol",
      "outputs": [
        {
          "internalType": "string",
          "name": "",
          "type": "string"
        }
      ],
      "stateMutability": "view",
      "type": "function"
    },
    {
      "inputs": [],
      "name": "toggleMinting",
      "outputs": [],
      "stateMutability": "nonpayable",
      "type": "function"
    },
    {
      "inputs": [],
      "name": "togglePublicMint",
      "outputs": [],
      "stateMutability": "nonpayable",
      "type": "function"
    },
    {
      "inputs": [
        {
          "internalType": "uint256",
          "name": "index",
          "type": "uint256"
        }
      ],
      "name": "tokenByIndex",
      "outputs": [
        {
          "internalType": "uint256",
          "name": "",
          "type": "uint256"
        }
      ],
      "stateMutability": "view",
      "type": "function"
    },
    {
      "inputs": [
        {
          "internalType": "address",
          "name": "owner",
          "type": "address"
        },
        {
          "internalType": "uint256",
          "name": "index",
          "type": "uint256"
        }
      ],
      "name": "tokenOfOwnerByIndex",
      "outputs": [
        {
          "internalType": "uint256",
          "name": "",
          "type": "uint256"
        }
      ],
      "stateMutability": "view",
      "type": "function"
    },
    {
      "inputs": [
        {
          "internalType": "uint256",
          "name": "_tokenId",
          "type": "uint256"
        }
      ],
      "name": "tokenURI",
      "outputs": [
        {
          "internalType": "string",
          "name": "",
          "type": "string"
        }
      ],
      "stateMutability": "view",
      "type": "function"
    },
    {
      "inputs": [
        {
          "internalType": "address",
          "name": "_owner",
          "type": "address"
        }
      ],
      "name": "tokensOfOwner",
      "outputs": [
        {
          "internalType": "uint256[]",
          "name": "",
          "type": "uint256[]"
        }
      ],
      "stateMutability": "view",
      "type": "function"
    },
    {
      "inputs": [],
      "name": "totalSupply",
      "outputs": [
        {
          "internalType": "uint256",
          "name": "",
          "type": "uint256"
        }
      ],
      "stateMutability": "view",
      "type": "function"
    },
    {
      "inputs": [
        {
          "internalType": "address",
          "name": "from",
          "type": "address"
        },
        {
          "internalType": "address",
          "name": "to",
          "type": "address"
        },
        {
          "internalType": "uint256",
          "name": "tokenId",
          "type": "uint256"
        }
      ],
      "name": "transferFrom",
      "outputs": [],
      "stateMutability": "nonpayable",
      "type": "function"
    },
    {
      "inputs": [
        {
          "internalType": "address",
          "name": "newOwner",
          "type": "address"
        }
      ],
      "name": "transferOwnership",
      "outputs": [],
      "stateMutability": "nonpayable",
      "type": "function"
    },
    {
      "inputs": [
        {
          "internalType": "address",
          "name": "",
          "type": "address"
        }
      ],
      "name": "whitelist",
      "outputs": [
        {
          "internalType": "bool",
          "name": "",
          "type": "bool"
        }
      ],
      "stateMutability": "view",
      "type": "function"
    },
    {
      "inputs": [],
      "name": "withdraw",
      "outputs": [],
      "stateMutability": "nonpayable",
      "type": "function"
    },
    {
      "inputs": [
        {
          "internalType": "uint256",
          "name": "_amount",
          "type": "uint256"
        }
      ],
      "name": "withdrawAmount",
      "outputs": [],
      "stateMutability": "nonpayable",
      "type": "function"
    },
    {
      "stateMutability": "payable",
      "type": "receive"
    }
  ],
  "bytecode": "0x60e0604052603e6080818152906200377660a039600f9062000022908262000212565b5066038d7ea4c68000601055612710601155600a6012556013805461ffff1916610101179055601680546001600160a01b0316607d60a21b1790553480156200006a57600080fd5b50604051620037b4380380620037b48339810160408190526200008d916200038d565b33838360006200009e838262000212565b506001620000ad828262000212565b5050506001600160a01b038116620000df57604051631e4fbdf760e01b81526000600482015260240160405180910390fd5b620000ea816200011b565b506001600c55600e620000fe828262000212565b5050601680546001600160a01b03191633179055506200041e9050565b600b80546001600160a01b038381166001600160a01b0319831681179093556040519116919082907f8be0079c531659141344cd1fd0a4f28419497f9722a3daafe3b4186f6b6457e090600090a35050565b634e487b7160e01b600052604160045260246000fd5b600181811c908216806200019857607f821691505b602082108103620001b957634e487b7160e01b600052602260045260246000fd5b50919050565b601f8211156200020d57600081815260208120601f850160051c81016020861015620001e85750805b601f850160051c820191505b818110156200020957828155600101620001f4565b5050505b505050565b81516001600160401b038111156200022e576200022e6200016d565b62000246816200023f845462000183565b84620001bf565b602080601f8311600181146200027e5760008415620002655750858301515b600019600386901b1c1916600185901b17855562000209565b600085815260208120601f198616915b82811015620002af578886015182559484019460019091019084016200028e565b5085821015620002ce5787850151600019600388901b60f8161c191681555b5050505050600190811b01905550565b600082601f830112620002f057600080fd5b81516001600160401b03808211156200030d576200030d6200016d565b604051601f8301601f19908116603f011681019082821181831017156200033857620003386200016d565b816040528381526020925086838588010111156200035557600080fd5b600091505b838210156200037957858201830151818301840152908201906200035a565b600093810190920192909252949350505050565b600080600060608486031215620003a357600080fd5b83516001600160401b0380821115620003bb57600080fd5b620003c987838801620002de565b94506020860151915080821115620003e057600080fd5b620003ee87838801620002de565b935060408601519150808211156200040557600080fd5b506200041486828701620002de565b9150509250925092565b613348806200042e6000396000f3fe6080604052600436106103535760003560e01c80637d55094d116101c6578063afdf6134116100f7578063e2c6875c11610095578063e985e9c51161006f578063e985e9c514610a1c578063f09dfbe914610a3c578063f2fde38b14610a4f578063f4a0a52814610a6f57600080fd5b8063e2c6875c146109d2578063e43252d7146109e7578063e8a3d48514610a0757600080fd5b8063c87b56dd116100d1578063c87b56dd14610974578063d547cfb714610994578063d5abeb01146109a9578063d85d3d27146109bf57600080fd5b8063afdf61341461091e578063b228d9251461093e578063b88d4fde1461095457600080fd5b80639471302e116101645780639fbc87131161013e5780639fbc8713146108a45780639fd6db12146108c4578063a22cb465146108de578063a6177139146108fe57600080fd5b80639471302e1461083f57806395d89b411461085f5780639b19251a1461087457600080fd5b80638462151c116101a05780638462151c146107a55780638ab1d681146107d25780638c7a63ae146107f25780638da5cb5b1461082157600080fd5b80637d55094d1461070b57806381ddcc1f14610720578063840e15d41461075f57600080fd5b80633a602b4d116102a057806355f804b31161023e5780636817c76c116102185780636817c76c146106a05780636f8b44b0146106b657806370a08231146106d6578063715018a6146106f657600080fd5b806355f804b3146106125780635894bd51146106325780636352211e1461068057600080fd5b806342842e0e1161027a57806342842e0e146105a85780634a4e3bd5146105c85780634f6ccce7146105dd57806351858e27146105fd57600080fd5b80633a602b4d146105515780633ccfd60b1461057e5780634047638d1461059357600080fd5b8063095ea7b31161030d5780631d64b7c1116102e75780631d64b7c1146104b257806323b872dd146104d25780632a55205a146104f25780632f745c591461053157600080fd5b8063095ea7b31461045e5780630f4161aa1461047e57806318160ddd1461049d57600080fd5b806275a3171461035f57806301ffc9a71461039257806302fa7c47146103c25780630562b9f7146103e457806306fdde0314610404578063081812fc1461042657600080fd5b3661035a57005b600080fd5b34801561036b57600080fd5b5061037f61037a366004612ade565b610a8f565b6040519081526020015b60405180910390f35b34801561039e57600080fd5b506103b26103ad366004612b42565b610ad8565b6040519015158152602001610389565b3480156103ce57600080fd5b506103e26103dd366004612b5f565b610ae3565b005b3480156103f057600080fd5b506103e26103ff366004612ba2565b610b5d565b34801561041057600080fd5b50610419610cb8565b6040516103899190612c0b565b34801561043257600080fd5b50610446610441366004612ba2565b610d4a565b6040516001600160a01b039091168152602001610389565b34801561046a57600080fd5b506103e2610479366004612c1e565b610d73565b34801561048a57600080fd5b506013546103b290610100900460ff1681565b3480156104a957600080fd5b50600d5461037f565b3480156104be57600080fd5b5061037f6104cd366004612c48565b610d82565b3480156104de57600080fd5b506103e26104ed366004612c7d565b610e9d565b3480156104fe57600080fd5b5061051261050d366004612cb9565b610f28565b604080516001600160a01b039093168352602083019190915201610389565b34801561053d57600080fd5b5061037f61054c366004612c1e565b610f6a565b34801561055d57600080fd5b5061037f61056c366004612cdb565b60156020526000908152604090205481565b34801561058a57600080fd5b506103e2610fcf565b34801561059f57600080fd5b506103e2611128565b3480156105b457600080fd5b506103e26105c3366004612c7d565b611192565b3480156105d457600080fd5b506103e26111b2565b3480156105e957600080fd5b5061037f6105f8366004612ba2565b6111cb565b34801561060957600080fd5b506103e2611224565b34801561061e57600080fd5b506103e261062d366004612c48565b611239565b34801561063e57600080fd5b50600d546011546010546013546040805194855260208501939093529183015260ff80821615156060840152610100909104161515608082015260a001610389565b34801561068c57600080fd5b5061044661069b366004612ba2565b611288565b3480156106ac57600080fd5b5061037f60105481565b3480156106c257600080fd5b506103e26106d1366004612ba2565b611293565b3480156106e257600080fd5b5061037f6106f1366004612cdb565b6112f2565b34801561070257600080fd5b506103e261133a565b34801561071757600080fd5b506103e261134c565b34801561072c57600080fd5b5060165461074790600160a01b90046001600160601b031681565b6040516001600160601b039091168152602001610389565b34801561076b57600080fd5b5061077f61077a366004612cdb565b61139c565b604080519485526020850193909352901515918301919091526060820152608001610389565b3480156107b157600080fd5b506107c56107c0366004612cdb565b6113f6565b6040516103899190612cf6565b3480156107de57600080fd5b506103e26107ed366004612cdb565b611498565b3480156107fe57600080fd5b5061081261080d366004612ba2565b6114f6565b60405161038993929190612d3a565b34801561082d57600080fd5b50600b546001600160a01b0316610446565b34801561084b57600080fd5b506103e261085a366004612c48565b61154b565b34801561086b57600080fd5b5061041961155f565b34801561088057600080fd5b506103b261088f366004612cdb565b60146020526000908152604090205460ff1681565b3480156108b057600080fd5b50601654610446906001600160a01b031681565b3480156108d057600080fd5b506013546103b29060ff1681565b3480156108ea57600080fd5b506103e26108f9366004612d70565b61156e565b34801561090a57600080fd5b506103e2610919366004612da1565b611579565b34801561092a57600080fd5b506103e2610939366004612ba2565b61165f565b34801561094a57600080fd5b5061037f60125481565b34801561096057600080fd5b506103e261096f366004612e16565b61166c565b34801561098057600080fd5b5061041961098f366004612ba2565b611683565b3480156109a057600080fd5b5061041961168e565b3480156109b557600080fd5b5061037f60115481565b61037f6109cd366004612c48565b61171c565b3480156109de57600080fd5b506104196118d0565b3480156109f357600080fd5b506103e2610a02366004612cdb565b6118dd565b348015610a1357600080fd5b5061041961193c565b348015610a2857600080fd5b506103b2610a37366004612e92565b611964565b6107c5610a4a366004612ebc565b611992565b348015610a5b57600080fd5b506103e2610a6a366004612cdb565b611c98565b348015610a7b57600080fd5b506103e2610a8a366004612ba2565b611cd3565b6000610a99611d21565b601154600d5410610ac55760405162461bcd60e51b8152600401610abc90612f7f565b60405180910390fd5b610acf8383611d4e565b90505b92915050565b6000610ad282611def565b610aeb611d21565b6103e8816001600160601b03161115610b3d5760405162461bcd60e51b81526020600482015260146024820152730a4def2c2d8e8f240cccaca40e8dede40d0d2ced60631b6044820152606401610abc565b6001600160601b0316600160a01b026001600160a01b0390911617601655565b610b65611d21565b610b6d611e14565b47811115610bb45760405162461bcd60e51b8152602060048201526014602482015273496e73756666696369656e742062616c616e636560601b6044820152606401610abc565b6000610bc8600b546001600160a01b031690565b6001600160a01b03168260405160006040518083038185875af1925050503d8060008114610c12576040519150601f19603f3d011682016040523d82523d6000602084013e610c17565b606091505b5050905080610c5c5760405162461bcd60e51b815260206004820152601160248201527015da5d1a191c985dd85b0819985a5b1959607a1b6044820152606401610abc565b600b546001600160a01b03166001600160a01b03167f7084f5476618d8e60b11ef0d7d3f06914655adb8793e28ff7f018d4c76d505d583604051610ca291815260200190565b60405180910390a250610cb56001600c55565b50565b606060008054610cc790612fab565b80601f0160208091040260200160405190810160405280929190818152602001828054610cf390612fab565b8015610d405780601f10610d1557610100808354040283529160200191610d40565b820191906000526020600020905b815481529060010190602001808311610d2357829003601f168201915b5050505050905090565b6000610d5582611e3e565b506000828152600460205260409020546001600160a01b0316610ad2565b610d7e828233611e77565b5050565b6000610d8c611e14565b60135460ff16610dae5760405162461bcd60e51b8152600401610abc90612fe5565b3360009081526014602052604090205460ff16610dff5760405162461bcd60e51b815260206004820152600f60248201526e139bdd081dda1a5d195b1a5cdd1959608a1b6044820152606401610abc565b601154600d5410610e225760405162461bcd60e51b8152600401610abc90612f7f565b6012543360009081526015602052604090205410610e825760405162461bcd60e51b815260206004820152601c60248201527f4578636565646564206d6178206d696e74207065722077616c6c6574000000006044820152606401610abc565b610e8c3383611d4e565b9050610e986001600c55565b919050565b6001600160a01b038216610ec757604051633250574960e11b815260006004820152602401610abc565b6000610ed4838333611e84565b9050836001600160a01b0316816001600160a01b031614610f22576040516364283d7b60e01b81526001600160a01b0380861660048301526024820184905282166044820152606401610abc565b50505050565b6016546001600160a01b0381169060009061271090610f5790600160a01b90046001600160601b031685613028565b610f61919061303f565b90509250929050565b6000610f75836112f2565b8210610fa65760405163295f44f760e21b81526001600160a01b038416600482015260248101839052604401610abc565b506001600160a01b03919091166000908152600760209081526040808320938352929052205490565b610fd7611d21565b610fdf611e14565b47806110245760405162461bcd60e51b81526020600482015260146024820152734e6f2066756e647320746f20776974686472617760601b6044820152606401610abc565b6000611038600b546001600160a01b031690565b6001600160a01b03168260405160006040518083038185875af1925050503d8060008114611082576040519150601f19603f3d011682016040523d82523d6000602084013e611087565b606091505b50509050806110cc5760405162461bcd60e51b815260206004820152601160248201527015da5d1a191c985dd85b0819985a5b1959607a1b6044820152606401610abc565b600b546001600160a01b03166001600160a01b03167f7084f5476618d8e60b11ef0d7d3f06914655adb8793e28ff7f018d4c76d505d58360405161111291815260200190565b60405180910390a250506111266001600c55565b565b611130611d21565b6013805460ff610100808304821615810261ff001990931692909217928390556040517fa81e445dac2343503dc87e4663774817434721db7d985310a6959766e6d4480e936111889390049091161515815260200190565b60405180910390a1565b6111ad8383836040518060200160405280600081525061166c565b505050565b6111ba611d21565b6013805461ffff1916610101179055565b60006111d6600d5490565b82106111ff5760405163295f44f760e21b81526000600482015260248101839052604401610abc565b6009828154811061121257611212613061565b90600052602060002001549050919050565b61122c611d21565b6013805461ffff19169055565b611241611d21565b600e61124d82826130c5565b507f6741b2fc379fad678116fe3d4d4b9a1a184ab53ba36b86ad0fa66340b1ab41ad8160405161127d9190612c0b565b60405180910390a150565b6000610ad282611e3e565b61129b611d21565b600d548110156112ed5760405162461bcd60e51b815260206004820152601f60248201527f43616e6e6f74207365742062656c6f772063757272656e7420737570706c79006044820152606401610abc565b601155565b60006001600160a01b03821661131e576040516322718ad960e21b815260006004820152602401610abc565b506001600160a01b031660009081526003602052604090205490565b611342611d21565b6111266000611e99565b611354611d21565b6013805460ff8082161560ff1990921682179092556040519116151581527f6bdfe227d5db299c59aa56d5f846f40dbd73b271aaa78e18ed74fc3e00b8aa6b90602001611188565b6001600160a01b038116600090815260156020526040812054601254909190819081906113ca908590613185565b6001600160a01b03909516600090815260146020526040902054601054949660ff909116949350915050565b60606000611403836112f2565b905060008167ffffffffffffffff81111561142057611420612a1f565b604051908082528060200260200182016040528015611449578160200160208202803683370190505b50905060005b82811015611490576114618582610f6a565b82828151811061147357611473613061565b60209081029190910101528061148881613198565b91505061144f565b509392505050565b6114a0611d21565b6001600160a01b0381166000818152601460209081526040808320805460ff19169055519182527ff93f9a76c1bf3444d22400a00cb9fe990e6abe9dbb333fda48859cfee864543d91015b60405180910390a250565b60006060818061151b856000908152600260205260409020546001600160a01b031690565b6001600160a01b031614801591506115445761153684611288565b925061154184611683565b91505b9193909250565b611553611d21565b600f610d7e82826130c5565b606060018054610cc790612fab565b610d7e338383611eeb565b611581611d21565b60005b818110156111ad576001601460008585858181106115a4576115a4613061565b90506020020160208101906115b99190612cdb565b6001600160a01b031681526020810191909152604001600020805460ff19169115159190911790558282828181106115f3576115f3613061565b90506020020160208101906116089190612cdb565b6001600160a01b03167ff93f9a76c1bf3444d22400a00cb9fe990e6abe9dbb333fda48859cfee864543d6001604051611645911515815260200190565b60405180910390a28061165781613198565b915050611584565b611667611d21565b601255565b611677848484610e9d565b610f2284848484611f8a565b6060610ad2826120b3565b600e805461169b90612fab565b80601f01602080910402602001604051908101604052809291908181526020018280546116c790612fab565b80156117145780601f106116e957610100808354040283529160200191611714565b820191906000526020600020905b8154815290600101906020018083116116f757829003601f168201915b505050505081565b6000611726611e14565b60135460ff166117485760405162461bcd60e51b8152600401610abc90612fe5565b601354610100900460ff168061176d57503360009081526014602052604090205460ff165b6117b35760405162461bcd60e51b8152602060048201526017602482015276141d589b1a58c81b5a5b9d081b9bdd08195b98589b1959604a1b6044820152606401610abc565b601154600d54106117d65760405162461bcd60e51b8152600401610abc90612f7f565b60105434101561181f5760405162461bcd60e51b8152602060048201526014602482015273125b9cdd59999a58da595b9d081c185e5b595b9d60621b6044820152606401610abc565b601254336000908152601560205260409020541061187f5760405162461bcd60e51b815260206004820152601c60248201527f4578636565646564206d6178206d696e74207065722077616c6c6574000000006044820152606401610abc565b6000825111610e825760405162461bcd60e51b815260206004820152601960248201527f546f6b656e205552492063616e6e6f7420626520656d707479000000000000006044820152606401610abc565b600f805461169b90612fab565b6118e5611d21565b6001600160a01b038116600081815260146020908152604091829020805460ff1916600190811790915591519182527ff93f9a76c1bf3444d22400a00cb9fe990e6abe9dbb333fda48859cfee864543d91016114eb565b6060600e60405160200161195091906131b1565b604051602081830303815290604052905090565b6001600160a01b03918216600090815260056020908152604080832093909416825291909152205460ff1690565b606061199c611e14565b60135460ff166119be5760405162461bcd60e51b8152600401610abc90612fe5565b601354610100900460ff16806119e357503360009081526014602052604090205460ff165b611a295760405162461bcd60e51b8152602060048201526017602482015276141d589b1a58c81b5a5b9d081b9bdd08195b98589b1959604a1b6044820152606401610abc565b6000825111611a715760405162461bcd60e51b81526020600482015260146024820152734d757374206d696e74206174206c65617374203160601b6044820152606401610abc565b601482511115611ac35760405162461bcd60e51b815260206004820152601a60248201527f4d6178696d756d20323020706572207472616e73616374696f6e0000000000006044820152606401610abc565b6011548251600d54611ad5919061323e565b1115611b235760405162461bcd60e51b815260206004820152601760248201527f576f756c6420657863656564206d617820737570706c790000000000000000006044820152606401610abc565b8151601054611b329190613028565b341015611b785760405162461bcd60e51b8152602060048201526014602482015273125b9cdd59999a58da595b9d081c185e5b595b9d60621b6044820152606401610abc565b601254825133600090815260156020526040902054611b97919061323e565b1115611be55760405162461bcd60e51b815260206004820181905260248201527f576f756c6420657863656564206d6178206d696e74207065722077616c6c65746044820152606401610abc565b6000825167ffffffffffffffff811115611c0157611c01612a1f565b604051908082528060200260200182016040528015611c2a578160200160208202803683370190505b50905060005b8351811015611c8b57611c5c33858381518110611c4f57611c4f613061565b6020026020010151611d4e565b828281518110611c6e57611c6e613061565b602090810291909101015280611c8381613198565b915050611c30565b509050610e986001600c55565b611ca0611d21565b6001600160a01b038116611cca57604051631e4fbdf760e01b815260006004820152602401610abc565b610cb581611e99565b611cdb611d21565b601080549082905560408051828152602081018490527f2e1c9e000c6e8dda4d03536adb13b7cb6034ccff90d17f01de381e4d5097b52591015b60405180910390a15050565b600b546001600160a01b031633146111265760405163118cdaa760e01b8152336004820152602401610abc565b600d805460009182611d5f83613198565b9091555050600d54611d7184826121af565b611d7b81846121c9565b6001600160a01b0384166000908152601560205260408120805491611d9f83613198565b919050555080846001600160a01b03167f7f9dd5d8fa69e733db2277a568b65a9651a3042da18fb2b5ea1966d3891cbfda8534604051611de0929190613251565b60405180910390a39392505050565b60006001600160e01b0319821663780e9d6360e01b1480610ad25750610ad282612212565b6002600c5403611e3757604051633ee5aeb560e01b815260040160405180910390fd5b6002600c55565b6000818152600260205260408120546001600160a01b031680610ad257604051637e27328960e01b815260048101849052602401610abc565b6111ad8383836001612237565b6000611e9184848461233d565b949350505050565b600b80546001600160a01b038381166001600160a01b0319831681179093556040519116919082907f8be0079c531659141344cd1fd0a4f28419497f9722a3daafe3b4186f6b6457e090600090a35050565b6001600160a01b038216611f1d57604051630b61174360e31b81526001600160a01b0383166004820152602401610abc565b6001600160a01b03838116600081815260056020908152604080832094871680845294825291829020805460ff191686151590811790915591519182527f17307eab39ab6107e8899845ad3d59bd9653f200f220920489ca2b5937696c31910160405180910390a3505050565b6001600160a01b0383163b15610f2257604051630a85bd0160e11b81526001600160a01b0384169063150b7a0290611fcc903390889087908790600401613273565b6020604051808303816000875af1925050508015612007575060408051601f3d908101601f19168201909252612004918101906132b0565b60015b612070573d808015612035576040519150601f19603f3d011682016040523d82523d6000602084013e61203a565b606091505b50805160000361206857604051633250574960e11b81526001600160a01b0385166004820152602401610abc565b805181602001fd5b6001600160e01b03198116630a85bd0160e11b146120ac57604051633250574960e11b81526001600160a01b0385166004820152602401610abc565b5050505050565b60606120be82611e3e565b50600082815260066020526040812080546120d890612fab565b80601f016020809104026020016040519081016040528092919081815260200182805461210490612fab565b80156121515780601f1061212657610100808354040283529160200191612151565b820191906000526020600020905b81548152906001019060200180831161213457829003601f168201915b50505050509050600061216261240a565b90508051600003612174575092915050565b8151156121a657808260405160200161218e9291906132cd565b60405160208183030381529060405292505050919050565b611e9184612419565b610d7e828260405180602001604052806000815250612481565b60008281526006602052604090206121e182826130c5565b506040518281527ff8e1a15aba9398e019f0b49df1a4fde98ee17ae345cb5f6b5e2c27f5033e8ce790602001611d15565b60006001600160e01b03198216632483248360e11b1480610ad25750610ad282612498565b808061224b57506001600160a01b03821615155b1561230d57600061225b84611e3e565b90506001600160a01b038316158015906122875750826001600160a01b0316816001600160a01b031614155b801561229a57506122988184611964565b155b156122c35760405163a9fbf51f60e01b81526001600160a01b0384166004820152602401610abc565b811561230b5783856001600160a01b0316826001600160a01b03167f8c5be1e5ebec7d5bd14f71427d1e84f3dd0314c0f7b2291e5b200ac8c7c3b92560405160405180910390a45b505b5050600090815260046020526040902080546001600160a01b0319166001600160a01b0392909216919091179055565b60008061234b8585856124e8565b90506001600160a01b0381166123a8576123a384600980546000838152600a60205260408120829055600182018355919091527f6e1540171b6c0c960b71a7020d9f60077f6af931a8bbf590da0223dacf75c7af0155565b6123cb565b846001600160a01b0316816001600160a01b0316146123cb576123cb81856125e1565b6001600160a01b0385166123e7576123e284612672565b611e91565b846001600160a01b0316816001600160a01b031614611e9157611e918585612721565b6060600e8054610cc790612fab565b606061242482611e3e565b50600061242f61240a565b9050600081511161244f576040518060200160405280600081525061247a565b8061245984612771565b60405160200161246a9291906132cd565b6040516020818303038152906040525b9392505050565b61248b8383612804565b6111ad6000848484611f8a565b60006001600160e01b031982166380ac58cd60e01b14806124c957506001600160e01b03198216635b5e139f60e01b145b80610ad257506301ffc9a760e01b6001600160e01b0319831614610ad2565b6000828152600260205260408120546001600160a01b039081169083161561251557612515818486612869565b6001600160a01b0381161561255357612532600085600080612237565b6001600160a01b038116600090815260036020526040902080546000190190555b6001600160a01b03851615612582576001600160a01b0385166000908152600360205260409020805460010190555b60008481526002602052604080822080546001600160a01b0319166001600160a01b0389811691821790925591518793918516917fddf252ad1be2c89b69c2b068fc378daa952ba7f163c4a11628f55a4df523b3ef91a4949350505050565b60006125ec836112f2565b60008381526008602052604090205490915080821461263f576001600160a01b03841660009081526007602090815260408083208584528252808320548484528184208190558352600890915290208190555b5060009182526008602090815260408084208490556001600160a01b039094168352600781528383209183525290812055565b60095460009061268490600190613185565b6000838152600a6020526040812054600980549394509092849081106126ac576126ac613061565b9060005260206000200154905080600983815481106126cd576126cd613061565b6000918252602080832090910192909255828152600a90915260408082208490558582528120556009805480612705576127056132fc565b6001900381819060005260206000200160009055905550505050565b6000600161272e846112f2565b6127389190613185565b6001600160a01b039093166000908152600760209081526040808320868452825280832085905593825260089052919091209190915550565b6060600061277e836128cd565b600101905060008167ffffffffffffffff81111561279e5761279e612a1f565b6040519080825280601f01601f1916602001820160405280156127c8576020820181803683370190505b5090508181016020015b600019016f181899199a1a9b1b9c1cb0b131b232b360811b600a86061a8153600a85049450846127d257509392505050565b6001600160a01b03821661282e57604051633250574960e11b815260006004820152602401610abc565b600061283c83836000611e84565b90506001600160a01b038116156111ad576040516339e3563760e11b815260006004820152602401610abc565b6128748383836129a5565b6111ad576001600160a01b0383166128a257604051637e27328960e01b815260048101829052602401610abc565b60405163177e802f60e01b81526001600160a01b038316600482015260248101829052604401610abc565b60008072184f03e93ff9f4daa797ed6e38ed64bf6a1f0160401b831061290c5772184f03e93ff9f4daa797ed6e38ed64bf6a1f0160401b830492506040015b6d04ee2d6d415b85acef81000000008310612938576d04ee2d6d415b85acef8100000000830492506020015b662386f26fc10000831061295657662386f26fc10000830492506010015b6305f5e100831061296e576305f5e100830492506008015b612710831061298257612710830492506004015b60648310612994576064830492506002015b600a8310610ad25760010192915050565b60006001600160a01b03831615801590611e915750826001600160a01b0316846001600160a01b031614806129df57506129df8484611964565b80611e915750506000908152600460205260409020546001600160a01b03908116911614919050565b80356001600160a01b0381168114610e9857600080fd5b634e487b7160e01b600052604160045260246000fd5b604051601f8201601f1916810167ffffffffffffffff81118282101715612a5e57612a5e612a1f565b604052919050565b600067ffffffffffffffff831115612a8057612a80612a1f565b612a93601f8401601f1916602001612a35565b9050828152838383011115612aa757600080fd5b828260208301376000602084830101529392505050565b600082601f830112612acf57600080fd5b610acf83833560208501612a66565b60008060408385031215612af157600080fd5b612afa83612a08565b9150602083013567ffffffffffffffff811115612b1657600080fd5b612b2285828601612abe565b9150509250929050565b6001600160e01b031981168114610cb557600080fd5b600060208284031215612b5457600080fd5b813561247a81612b2c565b60008060408385031215612b7257600080fd5b612b7b83612a08565b915060208301356001600160601b0381168114612b9757600080fd5b809150509250929050565b600060208284031215612bb457600080fd5b5035919050565b60005b83811015612bd6578181015183820152602001612bbe565b50506000910152565b60008151808452612bf7816020860160208601612bbb565b601f01601f19169290920160200192915050565b602081526000610acf6020830184612bdf565b60008060408385031215612c3157600080fd5b612c3a83612a08565b946020939093013593505050565b600060208284031215612c5a57600080fd5b813567ffffffffffffffff811115612c7157600080fd5b611e9184828501612abe565b600080600060608486031215612c9257600080fd5b612c9b84612a08565b9250612ca960208501612a08565b9150604084013590509250925092565b60008060408385031215612ccc57600080fd5b50508035926020909101359150565b600060208284031215612ced57600080fd5b610acf82612a08565b6020808252825182820181905260009190848201906040850190845b81811015612d2e57835183529284019291840191600101612d12565b50909695505050505050565b6001600160a01b0384168152606060208201819052600090612d5e90830185612bdf565b90508215156040830152949350505050565b60008060408385031215612d8357600080fd5b612d8c83612a08565b915060208301358015158114612b9757600080fd5b60008060208385031215612db457600080fd5b823567ffffffffffffffff80821115612dcc57600080fd5b818501915085601f830112612de057600080fd5b813581811115612def57600080fd5b8660208260051b8501011115612e0457600080fd5b60209290920196919550909350505050565b60008060008060808587031215612e2c57600080fd5b612e3585612a08565b9350612e4360208601612a08565b925060408501359150606085013567ffffffffffffffff811115612e6657600080fd5b8501601f81018713612e7757600080fd5b612e8687823560208401612a66565b91505092959194509250565b60008060408385031215612ea557600080fd5b612eae83612a08565b9150610f6160208401612a08565b60006020808385031215612ecf57600080fd5b823567ffffffffffffffff80821115612ee757600080fd5b818501915085601f830112612efb57600080fd5b813581811115612f0d57612f0d612a1f565b8060051b612f1c858201612a35565b9182528381018501918581019089841115612f3657600080fd5b86860192505b83831015612f7257823585811115612f545760008081fd5b612f628b89838a0101612abe565b8352509186019190860190612f3c565b9998505050505050505050565b60208082526012908201527113585e081cdd5c1c1b1e481c995858da195960721b604082015260600190565b600181811c90821680612fbf57607f821691505b602082108103612fdf57634e487b7160e01b600052602260045260246000fd5b50919050565b602080825260139082015272135a5b9d1a5b99c81a5cc8191a5cd8589b1959606a1b604082015260600190565b634e487b7160e01b600052601160045260246000fd5b8082028115828204841417610ad257610ad2613012565b60008261305c57634e487b7160e01b600052601260045260246000fd5b500490565b634e487b7160e01b600052603260045260246000fd5b601f8211156111ad57600081815260208120601f850160051c8101602086101561309e5750805b601f850160051c820191505b818110156130bd578281556001016130aa565b505050505050565b815167ffffffffffffffff8111156130df576130df612a1f565b6130f3816130ed8454612fab565b84613077565b602080601f83116001811461312857600084156131105750858301515b600019600386901b1c1916600185901b1785556130bd565b600085815260208120601f198616915b8281101561315757888601518255948401946001909101908401613138565b50858210156131755787850151600019600388901b60f8161c191681555b5050505050600190811b01905550565b81810381811115610ad257610ad2613012565b6000600182016131aa576131aa613012565b5060010190565b60008083546131bf81612fab565b600182811680156131d757600181146131ec5761321b565b60ff198416875282151583028701945061321b565b8760005260208060002060005b858110156132125781548a8201529084019082016131f9565b50505082870194505b50506e31b7b63632b1ba34b7b7173539b7b760891b83525050600f019392505050565b80820180821115610ad257610ad2613012565b6040815260006132646040830185612bdf565b90508260208301529392505050565b6001600160a01b03858116825284166020820152604081018390526080606082018190526000906132a690830184612bdf565b9695505050505050565b6000602082840312156132c257600080fd5b815161247a81612b2c565b600083516132df818460208801612bbb565b8351908301906132f3818360208801612bbb565b01949350505050565b634e487b7160e01b600052603160045260246000fdfea26469706673582212208756549ac2d027008d90ab4fa7258402cb31bf077b9ef02b9fbc7bcfbef16ae264736f6c6343000814003357616c6c6574436f6e6e656374204e465420436f6c6c656374696f6e202d204d696e7420796f757220756e69717565206469676974616c20617373657421",
  "linkReferences": {},
  "deployedLinkReferences": {}
}